:100000000C94BC010C947F020C94D9010C94D9017E
:100010000C94D9010C94D9010C94D9010C94D901F8
:100020000C94D9010C94D9010C94D9010C94D901E8
:100030000C94D9010C94D9010C94D9010C94D901D8
:100040000C94D9010C94DB010C94D9010C94D901C6
:100050000C94D9010C94D9010C94D9010C94D901B8
:100060000C94D9010C94D9010C94D9010C94D901A8
:10007000E8D8B87F7FB8D8E8E8D8B87F7FB8D8E8A4
:10008000000000000000000000065F5F06000000A6
:100090000007070007070000147F7F147F7F14000C
:1000A000242E6B6B3A120000466630180C66620014
:1000B000307A4F5D377A48000407030000000000E3
:1000C000001C3E63410000000041633E1C00000034
:1000D000082A3E1C1C3E2A0808083E3E080800006C
:1000E00000A0E06000000000080808080808000000
:1000F00000006060000000006030180C0603010082
:100100003E7F594D7F3E000042427F7F40400000CD
:10011000627359496F660000226349497F360000C7
:10012000181C16137F7F1000276745457D39000096
:100130003C7E4B4979300000036371190F070000C2
:10014000367F49497F360000064F49693F1E00004F
:1001500000006C6C0000000000A0EC6C00000000CF
:10016000081C366341000000141414141414000019
:10017000004163361C080000020351590F060000BD
:100180003E7F415D5D1F1E007C7E13137E7C000060
:10019000417F7F49497F36001C3E63414163220015
:1001A000417F7F41637F1C00417F7F495D41630048
:1001B000417F7F491D0103001C3E63415173720062
:1001C0007F7F08087F7F000000417F7F41000000A3
:1001D000307040417F3F0100417F7F081C77630002
:1001E000417F7F41406070007F7F060C067F7F006B
:1001F0007F7F060C187F7F001C3E6341633E1C001E
:10020000417F7F49090F06001E3F21717F5E00007C
:10021000417F7F19396F460026674D597B320000B8
:1002200003417F7F410300007F7F40407F7F0000CC
:100230001F3F60603F1F00007F7F3018307F7F00CE
:1002400063771C081C776300074F78784F0700001E
:100250006773594D47637100007F7F414100000083
:100260000103060C183060000041417F7F00000050
:10027000080C0603060C0800808080808080808047
:100280000000030704000000207454543C78400030
:10029000413F7F44447C3800387C44446C28000053
:1002A000307848493F7F4000387C54545C18000047
:1002B000487E7F490302000098BCA4A4F87C040097
:1002C000417F7F08047C780000447D7D4000000071
:1002D00040C484FD7D000000417F7F10386C4400E5
:1002E00000417F7F400000007C7C0C180C7C780073
:1002F0007C7C04047C780000387C44447C3800001A
:1003000084FCF8A4243C1800183C24A4F8FC8400C5
:10031000447C78441C180000485C54547424000049
:1003200000043E7F442400003C7C40403C7C400074
:100330001C3C60603C1C00003C7C6030607C3C00ED
:10034000446C3810386C44009CBCA0A0FC7C0000BD
:100350004C64745C4C64000008083E774141000026
:1003600000000077770000004141773E0808000058
:10037000020301030203010011241FBECFEFD4E0EA
:10038000DEBFCDBF12E0A0E0B1E0E0ECF3E102C0DF
:1003900005900D92A43AB107D9F722E0A4EAB2E0A1
:1003A00001C01D92A53BB207E1F70E94EC010C943D
:1003B000DE090C9400001F920F920FB60F921124C9
:1003C0000F900FBE0F901F90189582E089BF12BE4C
:1003D00083E083BF789408958FE190E00E94360512
:1003E00083E792E09F938F930E94BC050E945F0475
:1003F0000E94E5010E941D040E9439020F900F9097
:100400000E94DB040E948B03FBCF30980895843058
:1004100040F48460809300142899FECF80910014EA
:1004200008958FEF089520E1629FF0011124E059B3
:10043000FF4FDC019C01205F3F4F94919D933196CB
:10044000A217B307D1F70895E62FF0E0EE0FFF1FD4
:10045000EE0FFF1FEE0FFF1FE058F040DC019C0184
:10046000285F3F4F94919D933196A217B307D1F720
:1004700008950E94A2030E945D0240E86FEF8FE0A2
:100480000E9465024FEF60E680E60E94650241E04F
:1004900061E08BE20E94650240E060EE8FE00E9426
:1004A00065028A988BB780648BBF089585B7806892
:1004B00085BF80B7806280BF08950E94AE0380EC44
:1004C0000E94AA030E94B00308951F93CF93DF9365
:1004D000182FD62FC42F0E94AE0385E00E94AA03D6
:1004E000812F0E94AA038D2F0E94AA038C2F0E94A5
:1004F000AA030E94B003DF91CF911F9108951F922C
:100500000F920FB60F9211240F900FBE0F901F90F5
:100510001895E091001CF0E0F096F695FE2FEE277E
:10052000F795E795E60FF11D80830895CF93DF934C
:10053000D82F8093001CC0E06C2F80E00E948902BD
:10054000CF5FC038C9F7D093001CDF91CF910895D9
:10055000CF93C0E08C2F0E949602CF5FC830D1F7B6
:100560001092001CCF910895CF92DF92EF92FF92EC
:100570000F931F93CF93DF93CDB7DEB728970FB6B6
:10058000F894DEBF0FBECDBF062F142F682FCE010B
:1005900001960E9424020130B1F4110F110F110FC6
:1005A000CE0101967C016E0199E0C90ED11CF701C4
:1005B00081917F01612F80950E9489021F5FCE1477
:1005C000DF04A9F714C0110F110F110FCE0101960E
:1005D0007C016E0199E0C90ED11C612FF701819158
:1005E0007F010E9489021F5FEC14FD04B1F7289679
:1005F0000FB6F894DEBF0FBECDBFDF91CF911F9134
:100600000F91FF90EF90DF90CF900895CF92DF92FF
:10061000FF920F931F93CF93DF93CDB7DEB7609711
:100620000FB6F894DEBF0FBECDBFF62E682FCE01F9
:1006300001960E941302FF0CFF0CFF0C8E010F5F4E
:100640001F4F6E0181E1C80ED11CF80181918F010D
:100650006F2D80950E948902F3940C151D05A9F752
:1006600060960FB6F894DEBF0FBECDBFDF91CF917D
:100670001F910F91FF90DF90CF900895E0E0F0E19F
:100680008EEA808381EA80838AED808382E18083A1
:1006900088EC808380E28083108288EA80838FE305
:1006A000808385ED808380E880838BED808380E389
:1006B000808381E8808380E5808389ED808381E287
:1006C00080838DEA8083108284EA808386EA808337
:1006D0008FEA80830E94A80208950F931F93CF93FF
:1006E000DF93FC018081882389F0D62F8F010F5F73
:1006F0001F4FC0E04C2F6D2F0E94B402F801819172
:100700008F01882319F0CF5FC031A1F7DF91CF911E
:100710001F910F910895E0E0F0E181E28083108263
:100720008FE7808382E28083108287E08083E0E02D
:10073000F8E1A0E0B2E181918C93E1158CE1F8073A
:10074000D1F7089587B3806B87BBBE988DB1816563
:100750008DB908958FB9779BFECF0895C4980895F9
:10076000C49A08951F93CF93DF93EC01862F142F23
:100770000E949602612FCE010E946D03DF91CF91FE
:100780001F910895CF930E94A802E091A502F091D5
:10079000A60240E060E0808191810E94B203A091B6
:1007A000A502B091A60250968C9150978823B9F17A
:1007B000C1E001C0C92F8FEF8C0F9091A402981354
:1007C00012C0892F90E00196880F991FFD01E80F54
:1007D000F91F0190F081E02D41E06C2F8081918123
:1007E0000E94B20310C0E82FF0E03196EE0FFF1F19
:1007F000EA0FFB1F0190F081E02D40E06C2F80811B
:1008000091810E94B203A091A502B091A60291E04D
:100810009C0F50968C915097C81760F201C0C0E0B1
:10082000CE5F40E06C2F80E290E00E94B2036C2F1C
:1008300080E00E940603CF910895ECE3F1E0F0938D
:10084000A602E093A502828193819093A8028093EF
:10085000A7020E94C2030895843091F42091A4025B
:10086000422F50E0E091A502F091A602808990E02D
:100870000197481759076CF42F5F2093A40209C011
:10088000833039F48091A402882319F08150809339
:10089000A4022091A5023091A6028091A402E82F23
:1008A000F0E03196EE0FFF1FE20FF31F8081918180
:1008B0009093A8028093A7020E94C20308950E9409
:1008C00056020E9405020E943E0387B3876087BBE1
:1008D000C29A0895CF9380E00E940702C82F81E05A
:1008E0000E940702282FCC23A4F44C2F50E04F572E
:1008F000510984E6849FB001859F700D11247723F0
:1009000014F461587F4F660F672F661F770B462FD1
:1009100013C0CF3780F44C2F50E04F57510934E6C5
:10092000349FC001359F900D11246FE770E00E9445
:100930004905462F01C040E022239CF430E02F57A8
:10094000310984E6829FB001839F700D11247723C3
:1009500014F461587F4F660F672F661F770B762F51
:1009600012C02F3778F430E02F57310954E6529FE8
:10097000C001539F900D11246FE770E00E9449055C
:10098000762F01C070E0642F80E0CF9108950E941F
:100990006A046E3C14F481E00895633314F082E03D
:1009A00008957E3C14F484E00895733314F083E0DA
:1009B000089580E008950E94C704823039F118F448
:1009C000813079F007C0833041F0843019F40E94FF
:1009D0002C043CC081113AC0089583E00E942C048D
:1009E00035C0E091A502F091A60286859785009713
:1009F00069F1F093A802E093A7029093A602809376
:100A0000A5021092A4020E94C20320C02091A50258
:100A10003091A6028091A402E82FF0E03196EE0F0B
:100A2000FF1FE20FF31F0190F081E02D309771F06E
:100A3000F093A602E093A502828193819093A8028D
:100A40008093A7021092A4020E94C2030E94C704CE
:100A50008111FCCF08955D9BFECF8CB980E090E0C2
:100A600008955F9BFECF8CB190E0089590BD89B949
:100A700088E98AB98EE880BD61E375E08BE295E094
:100A80000E9471059093AA028093A90280E090E0F1
:100A9000089597FB072E16F4009407D077FD09D030
:100AA0000E945D0507FC05D03EF4909581959F4F0F
:100AB0000895709561957F4F0895AA1BBB1B51E166
:100AC00007C0AA1FBB1FA617B70710F0A61BB70BBE
:100AD000881F991F5A95A9F780959095BC01CD0163
:100AE00008950F931F93CF93DF93009731F461150F
:100AF000710519F480E090E03AC08B01EC016EE0E2
:100B000070E081E090E00E94B307FC01892B91F333
:100B100080E883830115110571F01387028781E84E
:100B200083838091AB029091AC02892B21F4F093E6
:100B3000AC02E093AB022097C9F0D187C0878381D4
:100B4000826083838091AD029091AE02892B71F413
:100B5000F093AE02E093AD028091AF029091B002AB
:100B6000892B21F4F093B002E093AF02CF01DF9123
:100B7000CF911F910F910895A0E0B0E0E2ECF5E075
:100B80000C94B709AE014B5F5F4FFA01619171910F
:100B9000AF018091AD029091AE020E94D205E2E0D9
:100BA0000C94D309ABE0B0E0E8EDF5E00C94A709B4
:100BB0006C017B018A01FC0117821682838181FF0F
:100BC000CCC1CE0101963C01F6019381F70193FD62
:100BD000859193FF81917F01882309F4BAC1853201
:100BE00039F493FD859193FF81917F01853229F43A
:100BF000B60190E00E940D09E7CF912C212C312CF9
:100C0000FFE1F315D8F08B3279F038F4803279F0C7
:100C10008332A1F4232D20611DC08D3261F0803319
:100C200069F4232D216016C0832D8260382EE32DB8
:100C3000E4603E2E2AC0F32DF8601DC037FC2DC0A5
:100C400020ED280F2A3040F08E32B9F436FC81C1F5
:100C5000232D2064322E19C036FE06C08AE0989EED
:100C6000200D1124922E11C0EAE02E9E200D112499
:100C7000222EF32DF0623F2E08C08C3621F4832DF6
:100C80008068382E02C0883641F4F70193FD8591C3
:100C900093FF81917F018111B3CF982F9F7D955450
:100CA000933028F40C5F1F4F9FE399830DC0833668
:100CB00031F0833771F0833509F059C021C0F80154
:100CC000808189830E5F1F4F88248394912C530168
:100CD00013C02801F2E04F0E511CF801A080B18032
:100CE00036FE03C0692D70E002C06FEF7FEFC501D3
:100CF0000E9402094C018201F32DFF773F2E16C09E
:100D0000280122E0420E511CF801A080B18036FE7D
:100D100003C0692D70E002C06FEF7FEFC5010E9434
:100D2000F0084C01F32DF0683F2E820133FC1BC00C
:100D3000822D90E088169906B0F4B60180E290E02A
:100D40000E940D092A94F4CFF50137FC859137FEF6
:100D500081915F01B60190E00E940D0921102A9453
:100D600021E0821A91088114910471F7E8C0843659
:100D700011F0893641F5F80137FE07C060817181B5
:100D8000828193810C5F1F4F08C060817181072EA3
:100D9000000C880B990B0E5F1F4FF32DFF763F2E33
:100DA00097FF09C090958095709561957F4F8F4F03
:100DB0009F4FF0683F2E2AE030E0A3010E944909CE
:100DC000882E861845C0853731F4232D2F7EB22E0C
:100DD0002AE030E025C0932D997FB92E8F36C1F0DF
:100DE00018F4883579F0B5C0803719F0883721F0CC
:100DF000B0C0E92FE061BE2EB4FE0DC0FB2DF46043
:100E0000BF2E09C034FE0AC0292F2660B22E06C0AC
:100E100028E030E005C020E130E002C020E132E00F
:100E2000F801B7FE07C060817181828193810C5FF8
:100E30001F4F06C06081718180E090E00E5F1F4F00
:100E4000A3010E944909882E8618FB2DFF773F2EAB
:100E500036FE0DC0232D2E7FA22E891458F434FEA9
:100E60000BC032FC09C0832D8E7EA82E05C0B82C85
:100E7000A32C03C0B82C01C0B92CA4FE0FC0FE01E6
:100E8000E80DF11D8081803321F49A2D997EA92EE1
:100E900009C0A2FE06C0B394B39404C08A2D86781C
:100EA00009F0B394A3FC11C0A0FE06C0B21488F4EC
:100EB000280C922C9B180EC0B21460F4B60180E28C
:100EC00090E00E940D09B394F7CFB21418F42B18D8
:100ED00002C0982C212CA4FE10C0B60180E390E043
:100EE0000E940D09A2FE17C0A1FC03C088E790E094
:100EF00002C088E590E0B6010CC08A2D867859F0D2
:100F0000A1FE02C08BE201C080E2A7FC8DE2B60127
:100F100090E00E940D09891438F4B60180E390E056
:100F20000E940D099A94F7CF8A94F301E80DF11D00
:100F30008081B60190E00E940D098110F5CF22203A
:100F400009F442CEB60180E290E00E940D092A9495
:100F5000F6CFF6018681978102C08FEF9FEF2B9627
:100F6000E2E10C94C3090F931F93CF93DF93869F05
:100F70008001879F100D969F100D1124C8010E94BB
:100F8000CF07EC01009729F0A80160E070E00E9413
:100F9000FB08CE01DF91CF911F910F9108950F9320
:100FA0001F93CF93DF938230910510F482E090E09D
:100FB000E091B302F091B40220E030E0A0E0B0E0B4
:100FC000309719F1408151810281138148175907E7
:100FD000C8F08417950769F4109731F012960C93B6
:100FE000129713961C9327C00093B3021093B40278
:100FF00022C02115310519F04217530718F49A0140
:10100000BD01EF01DF01F801DBCF21153105F9F05A
:10101000281B390B2430310580F48A819B816115AE
:10102000710521F0FB019383828304C09093B40285
:101030008093B302FE01329644C0FE01E20FF31F1B
:101040008193919322503109398328833AC02091AA
:10105000B1023091B202232B41F420910201309170
:1010600003013093B2022093B1022091000130912C
:1010700001012115310541F42DB73EB7409104011E
:1010800050910501241B350BE091B102F091B202A1
:10109000E217F307A0F42E1B3F0B2817390778F04F
:1010A000AC014E5F5F4F2417350748F04E0F5F1FAE
:1010B0005093B2024093B1028193919302C0E0E059
:1010C000F0E0CF01DF91CF911F910F910895CF9361
:1010D000DF93009709F481C0FC01329713821282DA
:1010E000A091B302B091B402109781F420813181B4
:1010F000820F931F2091B1023091B2022817390755
:1011000051F5F093B202E093B10267C0ED0120E027
:1011100030E0CE17DF0740F44A815B819E01411524
:101120005105F1F0EA01F5CFD383C28340815181AB
:10113000840F951FC817D90759F488819981840FA6
:10114000951F0296918380838A819B8193838283FA
:101150002115310529F4F093B402E093B3023DC0A8
:10116000E901FB83EA8349915991C40FD51FEC171C
:10117000FD0761F480819181840F951F0296E9013A
:1011800099838883828193819B838A83E0E0F0E066
:1011900012968D919C911397009719F0FD01DC0137
:1011A000F7CF8D919C9111979D012E5F3F4F820F3C
:1011B000931F2091B1023091B2022817390769F4C8
:1011C000309729F41092B4021092B30202C0138235
:1011D0001282B093B202A093B102DF91CF91089531
:1011E000FC010590615070400110D8F780959095F2
:1011F0008E0F9F1F0895DC0101C06D934150504038
:10120000E0F70895FC016150704001900110D8F79B
:10121000809590958E0F9F1F08950F931F93CF93E6
:10122000DF93FB01238121FD03C08FEF9FEF2CC0D3
:1012300022FF16C04681578124813581421753070A
:1012400044F4A081B1819D012F5F3F4F3183208302
:101250008C93268137812F5F3F4F3783268314C0BD
:101260008B01EC01FB010084F185E02D0995892BB0
:10127000E1F6D80116968D919C91179701961796D5
:101280009C938E931697CE01DF91CF911F910F9172
:101290000895FA01AA27283051F1203181F1E8940C
:1012A0006F936E7F6E5F7F4F8F4F9F4FAF4FB1E059
:1012B0003ED0B4E03CD0670F781F891F9A1FA11D54
:1012C000680F791F8A1F911DA11D6A0F711D811D55
:1012D000911DA11D20D009F468943F912AE0269F1A
:1012E00011243019305D3193DEF6CF010895462F79
:1012F0004770405D4193B3E00FD0C9F7F6CF462F5A
:101300004F70405D4A3318F0495D31FD40524193C2
:1013100002D0A9F7EACFB4E0A6959795879577957F
:101320006795BA95C9F700976105710508959B0106
:10133000AC010A2E06945795479537952795BA958F
:10134000C9F7620F731F841F951FA01D08952F9268
:101350003F924F925F926F927F928F929F92AF9245
:10136000BF92CF92DF92EF92FF920F931F93CF9392
:10137000DF93CDB7DEB7CA1BDB0B0FB6F894DEBF29
:101380000FBECDBF09942A88398848885F846E844F
:101390007D848C849B84AA84B984C884DF80EE8099
:1013A000FD800C811B81AA81B981CE0FD11D0FB6A2
:1013B000F894DEBF0FBECDBFED010895F894FFCFC6
:1013C0000000B50220007C020000000000000000C8
:1013D000000000002A010003870200000000000056
:1013E0000000000000003C01000291020601000024
:1013F00000000000000000003C0101019A021801F9
:101400002A010000000000000000000002005374E8
:10141000617274696E67205352414D207465737414
:101420002E2E2E00577269746520706861736520D6
:101430006572726F723A206578745F72616D5B25B8
:1014400034645D203D2025303258202873686F7544
:101450006C642062652025303258290A0D005265DF
:101460007472696576616C2070686173652065725D
:10147000726F723A206578745F72616D5B253464B7
:101480005D203D2025303258202873686F756C64CC
:101490002062652025303258290A0D005352414DF3
:1014A000207465737420636F6D706C65746564205F
:1014B000776974680A253464206572726F727320CC
:1014C000696E207772697465207068617365206148
:1014D0006E640A253464206572726F7273696E20BF
:1014E00072657472696576616C2070686173650AF3
:1014F0000A0D0078203D2025692C09090909792069
:101500003D20256909090909646972203D20257576
:10151000200A0D004C454654203D2025692C090920
:1015200009095249474854203D20256909090909FC
:101530000A0D007374617274210A0D006469666695
:101540006963756C747900506C61792067616D65B1
:101550000053657474696E6773004D61696E206D28
:04156000656E75003F
:00000001FF
