S01100006279676765726E34332E73726563BE
S11300000C94BC010C94B5020C94D9010C94D90144
S11300100C94D9010C94D9010C94D9010C942302A9
S11300200C94D9010C94D9010C94D9010C94D901E4
S11300300C94D9010C94D9010C94D9010C94D901D4
S11300400C94D9010C94DB010C94D9010C94D901C2
S11300500C94D9010C94D9010C94D9010C94D901B4
S11300600C94D9010C94D9010C94D9010C94D901A4
S1130070E8D8B87F7FB8D8E8E8D8B87F7FB8D8E8A0
S1130080000000000000000000065F5F06000000A2
S11300900007070007070000147F7F147F7F140008
S11300A0242E6B6B3A120000466630180C66620010
S11300B0307A4F5D377A48000407030000000000DF
S11300C0001C3E63410000000041633E1C00000030
S11300D0082A3E1C1C3E2A0808083E3E0808000068
S11300E000A0E060000000000808080808080000FC
S11300F000006060000000006030180C060301007E
S11301003E7F594D7F3E000042427F7F40400000C9
S1130110627359496F660000226349497F360000C3
S1130120181C16137F7F1000276745457D39000092
S11301303C7E4B4979300000036371190F070000BE
S1130140367F49497F360000064F49693F1E00004B
S113015000006C6C0000000000A0EC6C00000000CB
S1130160081C366341000000141414141414000015
S1130170004163361C080000020351590F060000B9
S11301803E7F415D5D1F1E007C7E13137E7C00005C
S1130190417F7F49497F36001C3E63414163220011
S11301A0417F7F41637F1C00417F7F495D41630044
S11301B0417F7F491D0103001C3E6341517372005E
S11301C07F7F08087F7F000000417F7F410000009F
S11301D0307040417F3F0100417F7F081C776300FE
S11301E0417F7F41406070007F7F060C067F7F0067
S11301F07F7F060C187F7F001C3E6341633E1C001A
S1130200417F7F49090F06001E3F21717F5E000078
S1130210417F7F19396F460026674D597B320000B4
S113022003417F7F410300007F7F40407F7F0000C8
S11302301F3F60603F1F00007F7F3018307F7F00CA
S113024063771C081C776300074F78784F0700001A
S11302506773594D47637100007F7F41410000007F
S11302600103060C183060000041417F7F0000004C
S1130270080C0603060C0800808080808080808043
S11302800000030704000000207454543C7840002C
S1130290413F7F44447C3800387C44446C2800004F
S11302A0307848493F7F4000387C54545C18000043
S11302B0487E7F490302000098BCA4A4F87C040093
S11302C0417F7F08047C780000447D7D400000006D
S11302D040C484FD7D000000417F7F10386C4400E1
S11302E000417F7F400000007C7C0C180C7C78006F
S11302F07C7C04047C780000387C44447C38000016
S113030084FCF8A4243C1800183C24A4F8FC8400C1
S1130310447C78441C180000485C54547424000045
S113032000043E7F442400003C7C40403C7C400070
S11303301C3C60603C1C00003C7C6030607C3C00E9
S1130340446C3810386C44009CBCA0A0FC7C0000B9
S11303504C64745C4C64000008083E774141000022
S113036000000077770000004141773E0808000054
S1130370020301030203010011241FBECFEFD4E0E6
S1130380DEBFCDBF12E0A0E0B1E0EEE9F4E102C0CF
S113039005900D92A03BB107D9F722E0A0EBB2E0A3
S11303A001C01D92A23CB207E1F70E94FF010C9428
S11303B04D0A0C9400001F920F920FB60F92112455
S11303C02F933F934F935F936F937F938F939F9359
S11303D0AF93BF93EF93FF930E94C903FF91EF91F3
S11303E0BF91AF919F918F917F916F915F914F9149
S11303F03F912F910F900FBE0F901F9018958FE192
S113040090E00E94A5058D9A84E792E09F938F93D4
S11304100E942B060E94CE04F8940E948C040E9431
S11304206F020E94BF020E94C20278948DE792E09C
S11304309F938F930E942B060F900F900F900F9015
S11304400E944A05FDCF1F920F920FB60F921124FE
S11304508F938091B0028E3418F01092B00205C0D0
S11304608091B0028F5F8093B0028F910F900FBE86
S11304700F901F90189530980895843040F484604C
S1130480809300142899FECF8091001408958FEF73
S1130490089520E1629FF0011124E059FF4FDC012F
S11304A09C01205F3F4F94919D933196A217B3070F
S11304B0D1F70895E62FF0E0EE0FFF1FEE0FFF1FB8
S11304C0EE0FFF1FE058F040DC019C01285F3F4F16
S11304D094919D933196A217B307D1F708950E9482
S11304E011040E94930240E86FEF8FE00E949B0288
S11304F04FEF60E680E60E949B0241E061E08BE200
S11305000E949B0240E060EE8FE00E949B028A986A
S11305108BB780648BBF089585B7806885BF80B72B
S1130520806280BF08950E941D0480EC0E9419041B
S11305300E941F0408951F93CF93DF93182FD62F83
S1130540C42F0E941D0485E00E941904812F0E947B
S113055019048D2F0E9419048C2F0E9419040E94E3
S11305601F04DF91CF911F9108951F920F920FB630
S11305700F9211240F900FBE0F901F9018950E9498
S1130580E00308950E9401040E9408040895E09184
S1130590001CF0E0F096F695FE2FEE27F795E79510
S11305A0E60FF11D80830895CF93DF93D82F8093B6
S11305B0001CC0E06C2F80E00E94C702CF5FC038EF
S11305C0C9F7D093001CDF91CF910895CF93C0E079
S11305D08C2F0E94D402CF5FC830D1F71092001C38
S11305E0CF910895CF92DF92EF92FF920F931F93D2
S11305F0CF93DF93CDB7DEB728970FB6F894DEBF5D
S11306000FBECDBF062F142F682FCE0101960E9476
S11306105A020130B1F4110F110F110FCE010196DE
S11306207C016E0199E0C90ED11CF70181917F0113
S1130630612F80950E94C7021F5FCE14DF04A9F7C3
S113064014C0110F110F110FCE0101967C016E0120
S113065099E0C90ED11C612FF70181917F010E949D
S1130660C7021F5FEC14FD04B1F728960FB6F89487
S1130670DEBF0FBECDBFDF91CF911F910F91FF90D1
S1130680EF90DF90CF900895CF92DF92FF920F9377
S11306901F93CF93DF93CDB7DEB760970FB6F8946F
S11306A0DEBF0FBECDBFF62E682FCE0101960E948D
S11306B04902FF0CFF0CFF0C8E010F5F1F4F6E01F0
S11306C081E1C80ED11CF80181918F016F2D8095B5
S11306D00E94C702F3940C151D05A9F760960FB686
S11306E0F894DEBF0FBECDBFDF91CF911F910F9164
S11306F0FF90DF90CF900895E0E0F0E18EEA8083F0
S113070081EA80838AED808382E1808388EC808320
S113071080E28083108288EA80838FE3808385ED82
S1130720808380E880838BED808380E3808381E80D
S1130730808380E5808389ED808381E280838DEAF4
S11307408083108284EA808386EA80838FEA8083B0
S11307500E94E60208950F931F93CF93DF93FC0149
S11307608081882389F0D62F8F010F5F1F4FC0E04F
S11307704C2F6D2F0E94F202F80181918F01882382
S113078019F0CF5FC031A1F7DF91CF911F910F9185
S11307900895E0E0F0E181E2808310828FE78083B6
S11307A082E28083108287E08083E0E0F8E1A0E0C9
S11307B0B2E181918C93E1158CE1F807D1F70895AA
S11307C082E089BF12BE83E083BF8FB583648FBD8F
S11307D08FB58F778FBD8EB588618EBDEBE8F0E065
S11307E080818C738083EAE8F0E080818F7E80834F
S11307F0808188608083EDE7F0E080818061808380
S113080008958EB582608EBD8EB58A7F8EBD0895A3
S1130810EAE8F0E080818460808380818C7F80833B
S1130820089587B3806B87BBBE988DB181658DB900
S113083008958FB9779BFECF0895C4980895C49AFC
S113084008951F93CF93DF93EC01862F142F0E94FA
S1130850D402612FCE010E94AB03DF91CF911F918F
S11308600895CF930E94E602E091B202F091B302A0
S113087040E060E0808191810E942104A091B20255
S1130880B091B30250968C9150978823B9F1C1E08E
S113089001C0C92F8FEF8C0F9091B102981312C031
S11308A0892F90E00196880F991FFD01E80FF91F29
S11308B00190F081E02D41E06C2F808191810E94B4
S11308C0210410C0E82FF0E03196EE0FFF1FEA0F6D
S11308D0FB1F0190F081E02D40E06C2F808191811D
S11308E00E942104A091B202B091B30291E09C0F46
S11308F050968C915097C81760F201C0C0E0CE5F4B
S113090040E06C2F85E892E00E9421046C2F80E087
S11309100E944403CF910895ECE3F1E0F093B30215
S1130920E093B202828193819093B5028093B402E2
S11309300E9431040895843091F42091B102422F31
S113094050E0E091B202F091B302808990E0019707
S1130950481759076CF42F5F2093B10209C0833004
S113096039F48091B102882319F081508093B10247
S11309702091B2023091B3028091B102E82FF0E0ED
S11309803196EE0FFF1FE20FF31F80819181909348
S1130990B5028093B4020E94310408950E948C022F
S11309A00E943B020E947C0387B3876087BBC29A84
S11309B00895CF9380E00E943D02C82F81E00E94F9
S11309C03D02282FCC23A4F44C2F50E04F5751095B
S11309D084E6849FB001859F700D1124772314F45D
S11309E061587F4F660F672F661F770B462F13C022
S11309F0CF3780F44C2F50E04F57510934E6349FE1
S1130A00C001359F900D11246FE770E00E94B80576
S1130A10462F01C040E022239CF430E02F573109D7
S1130A2084E6829FB001839F700D1124772314F410
S1130A3061587F4F660F672F661F770B762F12C0A2
S1130A402F3778F430E02F57310954E6529FC00114
S1130A50539F900D11246FE770E00E94B805762F24
S1130A6001C070E0642F80E0CF9108950E94D90402
S1130A706E3C14F481E00895633314F082E0089529
S1130A807E3C14F484E00895733314F083E00895F5
S1130A9080E008950E943605823039F118F48130DF
S1130AA079F007C0833041F0843019F40E949B042C
S1130AB03CC081113AC0089583E00E949B0435C074
S1130AC0E091B202F091B30286859785009769F1AF
S1130AD0F093B502E093B4029093B3028093B20210
S1130AE01092B1020E94310420C02091B2023091D0
S1130AF0B3028091B102E82FF0E03196EE0FFF1FB0
S1130B00E20FF31F0190F081E02D309771F0F09324
S1130B10B302E093B202828193819093B5028093F1
S1130B20B4021092B1020E9431040E943605811170
S1130B30FCCF08955D9BFECF8CB980E090E00895D2
S1130B405F9BFECF8CB190E0089590BD89B988E990
S1130B508AB98EE880BD60EA75E08AE995E00E9472
S1130B60E0059093B7028093B60280E090E0089588
S1130B7097FB072E16F4009407D077FD09D00E9446
S1130B80CC0507FC05D03EF4909581959F4F0895C0
S1130B90709561957F4F0895AA1BBB1B51E107C057
S1130BA0AA1FBB1FA617B70710F0A61BB70B881FF9
S1130BB0991F5A95A9F780959095BC01CD01089588
S1130BC00F931F93CF93DF93009731F46115710551
S1130BD019F480E090E03AC08B01EC016EE070E023
S1130BE081E090E00E942208FC01892B91F380E8C7
S1130BF083830115110571F01387028781E88383CC
S1130C008091B8029091B902892B21F4F093B90232
S1130C10E093B8022097C9F0D187C08783818260AE
S1130C2083838091BA029091BB02892B71F4F09373
S1130C30BB02E093BA028091BC029091BD02892B61
S1130C4021F4F093BD02E093BC02CF01DF91CF9178
S1130C501F910F910895A0E0B0E0E1E3F6E00C9459
S1130C60260AAE014B5F5F4FFA0161917191AF01AA
S1130C708091BA029091BB020E944106E2E00C947A
S1130C80420AABE0B0E0E7E4F6E00C94160A6C012B
S1130C907B018A01FC0117821682838181FFCCC10A
S1130CA0CE0101963C01F6019381F70193FD8591F4
S1130CB093FF81917F01882309F4BAC1853239F405
S1130CC093FD859193FF81917F01853229F4B601CB
S1130CD090E00E947C09E7CF912C212C312CFFE17C
S1130CE0F315D8F08B3279F038F4803279F083320E
S1130CF0A1F4232D20611DC08D3261F0803369F48D
S1130D00232D216016C0832D8260382EE32DE460EC
S1130D103E2E2AC0F32DF8601DC037FC2DC020EDF7
S1130D20280F2A3040F08E32B9F436FC81C1232DCD
S1130D302064322E19C036FE06C08AE0989E200D2B
S1130D401124922E11C0EAE02E9E200D1124222E91
S1130D50F32DF0623F2E08C08C3621F4832D806879
S1130D60382E02C0883641F4F70193FD859193FF34
S1130D7081917F018111B3CF982F9F7D955493303A
S1130D8028F40C5F1F4F9FE399830DC0833631F025
S1130D90833771F0833509F059C021C0F80180818F
S1130DA089830E5F1F4F88248394912C530113C0B1
S1130DB02801F2E04F0E511CF801A080B18036FEEC
S1130DC003C0692D70E002C06FEF7FEFC5010E9480
S1130DD071094C018201F32DFF773F2E16C02801C3
S1130DE022E0420E511CF801A080B18036FE03C0FF
S1130DF0692D70E002C06FEF7FEFC5010E945F09AB
S1130E004C01F32DF0683F2E820133FC1BC0822D70
S1130E1090E088169906B0F4B60180E290E00E9452
S1130E207C092A94F4CFF50137FC859137FE819132
S1130E305F01B60190E00E947C0921102A9421E010
S1130E40821A91088114910471F7E8C0843611F074
S1130E50893641F5F80137FE07C0608171818281CE
S1130E6093810C5F1F4F08C060817181072E000CB5
S1130E70880B990B0E5F1F4FF32DFF763F2E97FFC4
S1130E8009C090958095709561957F4F8F4F9F4FC6
S1130E90F0683F2E2AE030E0A3010E94B809882EB2
S1130EA0861845C0853731F4232D2F7EB22E2AE0D3
S1130EB030E025C0932D997FB92E8F36C1F018F4F8
S1130EC0883579F0B5C0803719F0883721F0B0C083
S1130ED0E92FE061BE2EB4FE0DC0FB2DF460BF2EE1
S1130EE009C034FE0AC0292F2660B22E06C028E0AD
S1130EF030E005C020E130E002C020E132E0F8013A
S1130F00B7FE07C060817181828193810C5F1F4F9E
S1130F1006C06081718180E090E00E5F1F4FA301E5
S1130F200E94B809882E8618FB2DFF773F2E36FEC7
S1130F300DC0232D2E7FA22E891458F434FE0BC02D
S1130F4032FC09C0832D8E7EA82E05C0B82CA32C9C
S1130F5003C0B82C01C0B92CA4FE0FC0FE01E80DDB
S1130F60F11D8081803321F49A2D997EA92E09C028
S1130F70A2FE06C0B394B39404C08A2D867809F007
S1130F80B394A3FC11C0A0FE06C0B21488F4280CCC
S1130F90922C9B180EC0B21460F4B60180E290E06B
S1130FA00E947C09B394F7CFB21418F42B1802C032
S1130FB0982C212CA4FE10C0B60180E390E00E947E
S1130FC07C09A2FE17C0A1FC03C088E790E002C020
S1130FD088E590E0B6010CC08A2D867859F0A1FE10
S1130FE002C08BE201C080E2A7FC8DE2B60190E072
S1130FF00E947C09891438F4B60180E390E00E94D1
S11310007C099A94F7CF8A94F301E80DF11D80814D
S1131010B60190E00E947C098110F5CF222009F4EA
S113102042CEB60180E290E00E947C092A94F6CF79
S1131030F6018681978102C08FEF9FEF2B96E2E144
S11310400C94320A0F931F93CF93DF93869F8001F2
S1131050879F100D969F100D1124C8010E943E0811
S1131060EC01009729F0A80160E070E00E946A0991
S1131070CE01DF91CF911F910F9108950F931F938C
S1131080CF93DF938230910510F482E090E0E091F9
S1131090C002F091C10220E030E0A0E0B0E030975F
S11310A019F1408151810281138148175907C8F011
S11310B08417950769F4109731F012960C931297E0
S11310C013961C9327C00093C0021093C10222C040
S11310D02115310519F04217530718F49A01BD017F
S11310E0EF01DF01F801DBCF21153105F9F0281BF1
S11310F0390B2430310580F48A819B816115710597
S113110021F0FB019383828304C09093C1028093F6
S1131110C002FE01329644C0FE01E20FF31F819328
S1131120919322503109398328833AC02091BE0219
S11311303091BF02232B41F420910201309103012D
S11311403093BF022093BE0220910001309101012F
S11311502115310541F42DB73EB74091040150915A
S11311600501241B350BE091BE02F091BF02E2178A
S1131170F307A0F42E1B3F0B2817390778F0AC01B6
S11311804E5F5F4F2417350748F04E0F5F1F509393
S1131190BF024093BE028193919302C0E0E0F0E06D
S11311A0CF01DF91CF911F910F910895CF93DF93DA
S11311B0009709F481C0FC01329713821282A09136
S11311C0C002B091C102109781F420813181820F55
S11311D0931F2091BE023091BF022817390751F5A1
S11311E0F093BF02E093BE0267C0ED0120E030E05F
S11311F0CE17DF0740F44A815B819E0141155105FA
S1131200F1F0EA01F5CFD383C28340815181840F89
S1131210951FC817D90759F488819981840F951FA0
S11312200296918380838A819B8193838283211593
S1131230310529F4F093C102E093C0023DC0E901F5
S1131240FB83EA8349915991C40FD51FEC17FD071D
S113125061F480819181840F951F0296E90199833D
S11312608883828193819B838A83E0E0F0E01296F5
S11312708D919C911397009719F0FD01DC01F7CF34
S11312808D919C9111979D012E5F3F4F820F931F6B
S11312902091BE023091BF022817390769F43097B4
S11312A029F41092C1021092C00202C01382128269
S11312B0B093BF02A093BE02DF91CF910895FC01C9
S11312C00590615070400110D8F7809590958E0F6D
S11312D09F1F0895DC0101C06D9341505040E0F719
S11312E00895FC016150704001900110D8F7809579
S11312F090958E0F9F1F08950F931F93CF93DF93A5
S1131300FB01238121FD03C08FEF9FEF2CC022FF3F
S113131016C046815781248135814217530744F40E
S1131320A081B1819D012F5F3F4F318320838C9336
S1131330268137812F5F3F4F3783268314C08B016B
S1131340EC01FB010084F185E02D0995892BE1F680
S1131350D80116968D919C911797019617969C9398
S11313608E931697CE01DF91CF911F910F9108951F
S1131370FA01AA27283051F1203181F1E8946F93C2
S11313806E7F6E5F7F4F8F4F9F4FAF4FB1E03ED068
S1131390B4E03CD0670F781F891F9A1FA11D680F06
S11313A0791F8A1F911DA11D6A0F711D811D911D39
S11313B0A11D20D009F468943F912AE0269F1124AE
S11313C03019305D3193DEF6CF010895462F477012
S11313D0405D4193B3E00FD0C9F7F6CF462F4F706D
S11313E0405D4A3318F0495D31FD4052419302D0CB
S11313F0A9F7EACFB4E0A695979587957795679571
S1131400BA95C9F700976105710508959B01AC0170
S11314100A2E06945795479537952795BA95C9F797
S1131420620F731F841F951FA01D08952F923F9272
S11314304F925F926F927F928F929F92AF92BF92E0
S1131440CF92DF92EF92FF920F931F93CF93DF938C
S1131450CDB7DEB7CA1BDB0B0FB6F894DEBF0FBEE9
S1131460CDBF09942A88398848885F846E847D8436
S11314708C849B84AA84B984C884DF80EE80FD8038
S11314800C811B81AA81B981CE0FD11D0FB6F894AE
S1111490DEBF0FBECDBFED010895F894FFCF6F
S113149E0000C202200087020000000000000000CD
S11314AE000000002A010003920200000000000068
S11314BE0000000000003C0100029C020601000036
S11314CE00000000000000003C010101A50218010B
S11314DE2A01000000000000000000000200537406
S11314EE617274696E67205352414D207465737432
S11314FE2E2E2E00577269746520706861736520F4
S113150E6572726F723A206578745F72616D5B25D5
S113151E34645D203D2025303258202873686F7561
S113152E6C642062652025303258290A0D005265FC
S113153E7472696576616C2070686173652065727A
S113154E726F723A206578745F72616D5B253464D4
S113155E5D203D2025303258202873686F756C64E9
S113156E2062652025303258290A0D005352414D10
S113157E207465737420636F6D706C65746564207C
S113158E776974680A253464206572726F727320E9
S113159E696E207772697465207068617365206165
S11315AE6E640A253464206572726F727320696EDC
S11315BE2072657472696576616C207068617365FA
S11315CE0A0A0D0078203D2025692C09090909799C
S11315DE203D20256909090909646972203D2025E9
S11315EE75200A0D004C454654203D2025692C09D2
S11315FE0909095249474854203D2025690909091A
S113160E090A0D007374617274210A0D0048657223
S113161E3F200A0D002000646966666963756C7468
S113162E7900506C61792067616D6500536574743F
S113163E696E6773004D61696E206D656E7500008D
S9030000FC
