S01700006279676765726E34335F6E6F6465322E7372656381
S113000071C0000049C300008DC000008BC0000017
S113001089C0000087C0000085C0000083C00000C4
S113002081C000007FC000007DC000007BC00000D4
S113003079C0000077C0000075C0000073C00000E4
S113004071C000006FC000006DC000006BC00000F4
S113005069C000004AC5000065C0000063C000001C
S113006061C000005FC000005DC000005BC0000014
S113007059C000009FC0000055C0000053C00000DC
S113008042C100004FC000004DC000004BC0000042
S113009049C0000047C0000045C0000005C400007E
S11300A041C000003FC000003DC000003BC0000054
S11300B039C0000037C0000035C0000033C0000064
S11300C031C000002FC000002DC000002BC0000074
S11300D029C0000027C0000025C0000023C0000084
S11300E021C0000011241FBECFEFD1E2DEBFCDBF7F
S11300F000E00CBF12E0A0E0B2E0E4E1F7E100E0D0
S11301000BBF02C007900D92A43BB107D9F722E0C0
S1130110A4EBB2E001C01D92A83DB207E1F78CD474
S11301200C94880B6DCFECE7F0E0808180668083CF
S1130130EAE7F0E0808188688083EBE7F0E0808183
S113014083608083EEE7F0E080818160808308959E
S11301508634E0F49091B7029F939091B6029F93F6
S11301609091B5029F939091B4029F931F928F93A5
S113017085E192E09F938F93C9D68DB79EB7089679
S11301800FB6F8949EBF0FBE8DBF08958091B40240
S11301909091B502A091B602B091B7020196A11D4B
S11301A0B11D8093B4029093B502A093B602B093AC
S11301B0B70208951F920F920FB60F9211240BB637
S11301C00F922F933F934F935F936F937F938F93EC
S11301D09F93AF93BF93EF93FF9380917900B8DF20
S11301E0FF91EF91BF91AF919F918F917F916F910B
S11301F05F914F913F912F910F900BBE0F900FBEC7
S11302000F901F901895AAD223D240E86FEF8FE089
S113021023D24FEF60E680E61FD241E061E08BE23B
S11302201BD240E060EE8FE017C20F931F93CF9371
S11302308C01FC01608166956695669581E3FAD12F
S1130240F8016081F0E26F9FB001112482E3F2D1E2
S1130250F801618185E3EED1C0E0F8018181C8171E
S113026048F4F801EC0FF11D628186E38C0FE2D1B2
S1130270CF5FF3CF80E0CF911F910F9100C20F9316
S11302801F93CF938C018CE2C8D180FF29C081E6F3
S1130290C4D1C82F82E6C1D198E0C99F900111242E
S11302A0829586958770282BF801208385E6B5D141
S11302B08F70F8018183C0E0F8018181C81748F488
S11302C086E68C0FAAD1F801EC0FF11D8283CF5F73
S11302D0F3CF40E061E08CE2CF911F910F91BCC15C
S11302E0CF911F910F91089506D19093BB028093F3
S11302F0BA02BC01809106029091070263D0E3C068
S11303008091B90208951F920F920FB60F92112493
S11303100BB60F922F933F934F935F936F937F93FB
S11303208F939F93AF93BF93EF93FF93DDDF44D0FD
S1130330882369F08091B802803120F080E03FD0BA
S11303401092B8028091B8028F5F8093B802FF9137
S1130350EF91BF91AF919F918F917F916F915F9139
S11303604F913F912F910F900BBE0F900FBE0F90A6
S11303701F90189590E090930702809306020895C9
S11303808093B90208956C9A749A089574980895A4
S11303902FEF81EE94E0215080409040E1F700C0BF
S11303A00000749A8FE39CE90197F1F700C0000004
S11303B081E08093BC0208958091BC0208958093EB
S11303C0BC020895CF92DF92EF92FF92CF93DF9316
S11303D06C017B0118D1EC011BD19E01281B390B48
S11303E0C90137FF03C09195819591096FEF70E0C2
S11303F030D56C9DE0016D9DD00D7C9DD00D1124F8
S1130400CE19DF09CE01C1968336910558F41092B6
S1130410BD021092BE021092BF021092C002C0E050
S1130420D0E022C0BE010D2E000C880B990B0ED417
S11304302091100230911102409112025091130246
S113044091D49B01AC016091BD027091BE02809178
S1130450BF029091C00263D36093BD027093BE0249
S11304608093BF029093C0022091BD023091BE02DE
S11304704091BF025091C00260910802709109023C
S113048080910A0290910B026DD46B017C01BE0134
S1130490DD0F880B990BDAD320910C0230910D02F9
S11304A040910E0250910F025DD49B01AC01C70133
S11304B0B60135D398D3CB01DF91CF91FF90EF9064
S11304C0DF90CF9008951816190644F486399105E3
S11304D014F4682F01C066E980E00CC08B362FEF5E
S11304E092072CF066277727681B790B02C066E910
S11304F070E081E021C1E2E0F1E08081877D8083CA
S11305008FEE90E00197F1F700C00000A6E0B1E0A3
S11305102C918081886080838FEE90E00197F1F7C1
S113052000C000008C9190819062908390E0922BA7
S11305300895CF93DF93C1E9D0E088818A7F8883CF
S11305406AE581E0F9D02FEF83ED90E321508040FC
S11305509040E1F700C000006AE580E0EDD02FEFA5
S113056083ED90E3215080409040E1F700C000000B
S11305706AE582E0E1D02FEF81EE94E021508040E3
S11305809040E1F700C00000B6DF9093C40280936E
S1130590C30264E681E0D0D02FEF83ED90E32150D5
S11305A080409040E1F700C0000060E082E0C4D0E9
S11305B02FEF81EE94E0215080409040E1F700C09D
S11305C0000099DF9093C2028093C1028881856004
S11305D088838091C2028F938091C1028F9380910E
S11305E0C4028F938091C3028F9382E392E09F931E
S11305F08F938CD40F900F900F900F900F900F90BB
S1130600DF91CF9108958091C3029091C40208951F
S11306108091C1029091C2020895CF93C82FB2D0A5
S113062083E0A4D08C2FA2D0A6D0C82FADD08C2F1D
S1130630CF910895CF93DF93D82FC62FA3D082E014
S113064095D08D2F93D08C2F91D0DF91CF919CC0DA
S113065099D080EC8BD098C01F93CF93DF93182F41
S1130660D62FC42F8FD085E081D0812F7FD08D2FBE
S11306707DD08C2F7BD0DF91CF911F9185C0CF93FC
S1130680C82F80D081E090E001C0880FCA95EAF7B6
S113069080686CD0CF9178C01F920F920FB60F92E2
S11306A011240F900FBE0F901F901895E2E0F1E017
S11306B080818F7B80838FE193E00197F1F700C005
S11306C000008081806480830895E1E0F1E080810E
S11306D08A678083E2E0F1E08081806180838AB16F
S11306E083608AB9E3DF10920701B2C0CF93DF932E
S11306F000D0CDB7DEB79EE599831A828B8363E081
S1130700CE010196AFD0E7ECF0E03197F1F700C0ED
S11307100000883F59F01F928F9381E792E09F93E6
S11307208F93F4D30F900F900F900F900F900F9022
S11307300F90DF91CF910895982F862F911104C0C7
S1130740909102019D7F05C0913031F49091020196
S113075092609093020101C080E0C8CF84B18768A1
S113076084B923988CB581658CBD08958EBD0DB474
S113077007FEFDCF08958AEA8EBD0DB407FEFDCFB6
S11307808EB508952F9808952F9A089584B58260A0
S113079084BD85B5856085BD8FE787BDEEE6F0E055
S11307A0808182608083E0E8F0E0808182688083D9
S11307B0E1E8F0E080818B61808388E893E19093A5
S11307C08700809386008CE291E090938900809367
S11307D08800E0E9F0E0808182608083E1E9F0E074
S11307E08081856080838AEF90E090939900809364
S11307F09800E1E7F0E0808182608083089526E03C
S1130800AC01249FC001259F900D941B11248A5F85
S1130810964066ED70E009D36F517F4F613E7105DC
S113082031F0683052E0750710F068E072E07093C0
S11308308900609388000895E1E9F0E080818A7F6F
S113084080830895E1E9F0E08081856080830895E4
S11308508CE08093B8008FEF8093BB0084E080939A
S1130860BC0008952091BC0020FDFCCF6093C7021A
S1130870FC0120812093C80220FF0BC01092C60205
S11308808091140298EF9093140295EA9093BC001F
S11308900895FC013196A9ECB2E081E0861770F767
S11308A091919D938F5FFACF1F920F920FB60F9283
S11308B011240BB60F922F933F938F939F93EF9333
S11308C0FF938091B900883201F140F48031D9F06E
S11308D08831D9F0883009F04AC015C0803491F1CC
S11308E028F4883309F043C085EA46C08035F1F026
S11308F08835E9F58091BB00E091C502F0E0E8534A
S1130900FD4F80832DC01092C502E091C5028091F5
S1130910C702E81728F581E08E0F8093C502F0E046
S1130920E853FD4F80818093BB0018C0E091C5025D
S113093081E08E0F8093C5028091BB00F0E0E85304
S1130940FD4F80832091C50230E08091C70290E082
S113095001972817390714F485EC0EC085E80CC0FC
S11309608091C60281608093C60284E905C08091AB
S1130970B9008093140284E08093BC00FF91EF914E
S11309809F918F913F912F910F900BBE0F900FBEAF
S11309900F901F9018959091C00095FFFCCF809305
S11309A0C60080E090E008958091C00087FFFCCFEE
S11309B08091C60090E008959093C5008093C40090
S11309C088E98093C1008EE08093C20064ED74E0F6
S11309D08BEC94E051D29093CD028093CC0280E0D2
S11309E090E00895CF93DF93CDB7DEB764970FB649
S11309F0F894DEBF0FBECDBF8BE089838B8381E08B
S1130A008A83CE010B963BDC8B858930D1F7CE01EE
S1130A1001960BDC8EDD8AE089838B8381E08A83F7
S1130A20CE01019602DC64960FB6F894DEBF0FBEC9
S1130A30CDBFDF91CF910895CF93DF93CDB7DEB7CC
S1130A406E970FB6F894DEBF0FBECDBF87E690E079
S1130A50B3DFD9DB8EE792E09F938F9357D2259A29
S1130A6095DE61DB8CE291E0CADE2FDE8CDC7894CB
S1130A70B9DF0F900F9000E912E02FE9E22E22E097
S1130A80F22E81E1D82E92E1C92ECE014596F7DBF4
S1130A908D898130C1F08830F1F4CEDECB86D982E5
S1130AA0CE010B96C2DB1F930F9330D242DDCE01F1
S1130AB00196BBDBFF92EF9229D2C4DE0F900F9018
S1130AC00F900F9008C08F8990E099DE888D8095F3
S1130AD051DC8A8D55DC1D8A13DC8130B1F66CDC67
S1130AE08111D3CF53DC54DCCCCF1F920F920FB6BD
S1130AF00F9211240BB60F928F93EF93FF93EAE7B3
S1130B00F0E0808180648083FF91EF918F910F905A
S1130B100BBE0F900FBE0F901F9018955058BB2717
S1130B20AA270ED0E5C0D6D030F0DBD020F031F4C7
S1130B309F3F11F41EF4CBC00EF4E095E7FBC1C057
S1130B40E92FE7D080F3BA17620773078407950784
S1130B5018F071F49EF5FFC00EF4E0950B2EBA2F39
S1130B60A02D0B01B90190010C01CA01A0011124AF
S1130B70FF27591B99F0593F50F4503E68F11A165B
S1130B80F040A22F232F342F4427585FF3CF4695EC
S1130B9037952795A795F0405395C9F77EF41F160E
S1130BA0BA0B620B730B840BBAF09150A1F0FF0FD8
S1130BB0BB1F661F771F881FC2F70EC0BA0F621FC4
S1130BC0731F841F48F4879577956795B795F795B4
S1130BD09E3F08F0B3CF9395880F08F09927EE0F46
S1130BE097958795089504D06894B111B5C0089578
S1130BF098D088F09F5790F0B92F9927B751A0F05B
S1130C00D1F0660F771F881F991F1AF0BA95C9F79C
S1130C1012C0B13081F09FD0B1E008959CC0672F1D
S1130C20782F8827B85F39F0B93FCCF3869577954C
S1130C306795B395D9F73EF4909580957095619535
S1130C407F4F8F4F9F4F0895E89409C097FB3EF460
S1130C5090958095709561957F4F8F4F9F4F992305
S1130C60A9F0F92F96E9BB279395F6958795779583
S1130C706795B795F111F8CFFAF4BB0F11F460FF43
S1130C801BC06F5F7F4F8F4F9F4F16C0882311F09B
S1130C9096E911C0772321F09EE8872F762F05C0AF
S1130CA0662371F096E8862F70E060E02AF09A954A
S1130CB0660F771F881FDAF7880F9695879597F93F
S1130CC0089597F99F6780E870E060E008959FEFCA
S1130CD080EC089500240A941616170618060906CF
S1130CE0089500240A94121613061406050608959E
S1130CF0092E0394000C11F4882352F0BB0F40F426
S1130D00BF2B11F460FF04C06F5F7F4F8F4F9F4F65
S1130D10089557FD9058440F551F59F05F3F71F0E7
S1130D204795880F97FB991F61F09F3F79F087954E
S1130D300895121613061406551FF2CF4695F1DFD7
S1130D4008C0161617061806991FF1CF8695710567
S1130D50610508940895E894BB2766277727CB019B
S1130D6097F908950BD0C4CFB5DF28F0BADF18F097
S1130D70952309F0A6CFABCF1124EECFCADFA0F3A1
S1130D80959FD1F3950F50E0551F629FF001729F1C
S1130D90BB27F00DB11D639FAA27F00DB11DAA1F3B
S1130DA0649F6627B00DA11D661F829F2227B00D88
S1130DB0A11D621F739FB00DA11D621F839FA00D13
S1130DC0611D221F749F3327A00D611D231F849F63
S1130DD0600D211D822F762F6A2F11249F575040BA
S1130DE08AF0E1F088234AF0EE0FFF1FBB1F661F55
S1130DF0771F881F91505040A9F79E3F510570F00E
S1130E0060CFAACF5F3FECF3983EDCF386957795ED
S1130E106795B795F795E7959F5FC1F7FE2B880F08
S1130E20911D9695879597F90895AA1BBB1B51E1CF
S1130E3007C0AA1FBB1FA617B70710F0A61BB70B46
S1130E40881F991F5A95A9F780959095BC01CD01EB
S1130E50089597FB072E16F4009406D077FD08D06A
S1130E60E4DF07FC05D03EF4909581959F4F0895EB
S1130E70709561957F4F08950F931F93CF93DF93E0
S1130E80009731F46115710519F480E090E039C0E0
S1130E908B01EC016EE070E081E090E047D2FC0150
S1130EA0892B99F380E883830115110571F0138769
S1130EB0028781E883838091CE029091CF02892BAF
S1130EC021F4F093CF02E093CE022097C9F0D187AA
S1130ED0C0878381826083838091D0029091D10204
S1130EE0892B71F4F093D102E093D0028091D20265
S1130EF09091D302892B21F4F093D302E093D20290
S1130F00CF01DF91CF911F910F910895CF93DF937C
S1130F10CDB7DEB7AE014A5F5F4FFA0161917191BF
S1130F20AF018091D0029091D10203D0DF91CF9193
S1130F3008952F923F924F925F926F927F928F9279
S1130F409F92AF92BF92CF92DF92EF92FF920F9354
S1130F501F93CF93DF93CDB7DEB72B970FB6F894DB
S1130F60DEBF0FBECDBF6C017B018A01FC0117827D
S1130F701682838181FFBFC1CE0101963C01F60137
S1130F809381F70193FD859193FF81917F018823DC
S1130F9009F4ADC1853239F493FD859193FF8191B4
S1130FA07F01853221F4B60190E018D3E8CF912C6B
S1130FB0212C312CFFE1F315D8F08B3279F038F481
S1130FC0803279F08332A1F4232D20611DC08D324B
S1130FD061F0803369F4232D216016C0832D826073
S1130FE0382EE32DE4603E2E2AC0F32DF8601DC098
S1130FF037FC2DC020ED280F2A3040F08E32B9F492
S113100036FC75C1232D2064322E19C036FE06C06D
S11310108AE0989E200D1124922E11C0EAE02E9EA3
S1131020200D1124222EF32DF0623F2E08C08C36A1
S113103021F4832D8068382E02C0883641F4F701EC
S113104093FD859193FF81917F018111B3CF982FF7
S11310509F7D9554933028F40C5F1F4F9FE3998331
S11310600DC0833631F0833771F0833509F055C0F4
S113107020C0F801808189830E5F1F4F88248394E8
S1131080912C530112C02801F2E04F0E511CF801BB
S1131090A080B18036FE03C0692D70E002C06FEFFE
S11310A07FEFC50190D24C018201F32DFF773F2ED3
S11310B015C0280122E0420E511CF801A080B18025
S11310C036FE03C0692D70E002C06FEF7FEFC501EB
S11310D068D24C01F32DF0683F2E820133FC19C015
S11310E0822D90E088169906A0F4B60180E290E083
S11310F075D22A94F5CFF50137FC859137FE81919D
S11311005F01B60190E06AD221102A9421E0821A8C
S113111091088114910479F7E1C0843611F089367D
S113112039F5F80137FE07C06081718182819381AE
S11311300C5F1F4F08C060817181072E000C880B63
S1131140990B0E5F1F4FF32DFF763F2E97FF09C0BB
S113115090958095709561957F4F8F4F9F4FF06864
S11311603F2E2AE030E0A30175D2882E861844C0B1
S1131170853731F4232D2F7EB22E2AE030E025C0AE
S1131180932D997FB92E8F36C1F018F4883579F0F4
S1131190AEC0803719F0883721F0A9C0E92FE0618B
S11311A0BE2EB4FE0DC0FB2DF460BF2E09C034FE6C
S11311B00AC0292F2660B22E06C028E030E005C000
S11311C020E130E002C020E132E0F801B7FE07C0C0
S11311D060817181828193810C5F1F4F06C06081A1
S11311E0718180E090E00E5F1F4FA30133D2882EFF
S11311F08618FB2DFF773F2E36FE0DC0232D2E7F44
S1131200A22E891458F434FE0BC032FC09C0832D7D
S11312108E7EA82E05C0B82CA32C03C0B82C01C008
S1131220B92CA4FE0FC0FE01E80DF11D80818033AE
S113123021F49A2D997EA92E09C0A2FE06C0B3946A
S1131240B39404C08A2D867809F0B394A3FC10C02B
S1131250A0FE06C0B21480F4280C922C9B180DC07A
S1131260B21458F4B60180E290E0B8D1B394F8CF48
S1131270B21418F42B1802C0982C212CA4FE0FC011
S1131280B60180E390E0AAD1A2FE16C0A1FC03C07F
S113129088E790E002C088E590E0B6010CC08A2D92
S11312A0867851F0A1FE02C08BE201C080E2A7FC67
S11312B08DE2B60190E092D1891430F4B60180E356
S11312C090E08CD19A94F8CF8A94F301E80DF11D43
S11312D08081B60190E082D18110F6CF222009F4FA
S11312E04ECEB60180E290E079D12A94F7CFF60190
S11312F08681978102C08FEF9FEF2B960FB6F894EB
S1131300DEBF0FBECDBFDF91CF911F910F91FF9034
S1131310EF90DF90CF90BF90AF909F908F907F9091
S11313206F905F904F903F902F9008950F931F936D
S1131330CF93DF93869F8001879F100D969F100D9A
S11313401124C8010DD0EC01009721F0A80160E040
S113135070E032D1CE01DF91CF911F910F910895AA
S11313600F931F93CF93DF938230910510F482E0A3
S113137090E0E091D602F091D70220E030E0A0E0C6
S1131380B0E0309719F140815181028113814817EF
S11313905907C8F08417950769F4109731F012962D
S11313A00C93129713961C9327C00093D6021093A4
S11313B0D70222C02115310519F04217530718F43A
S11313C09A01BD01EF01DF01F801DBCF21153105E1
S11313D0F9F0281B390B2430310580F48A819B8174
S11313E06115710521F0FB019383828304C09093FE
S11313F0D7028093D602FE01329644C0FE01E20F6A
S1131400F31F8193919322503109398328833AC081
S11314102091D4023091D502232B41F42091020271
S1131420309103023093D5022093D402209100021C
S1131430309101022115310541F42DB73EB7409199
S1131440040250910502241B350BE091D402F09163
S1131450D502E217F307A0F42E1B3F0B2817390718
S113146078F0AC014E5F5F4F2417350748F04E0FFC
S11314705F1F5093D5024093D4028193919302C08D
S1131480E0E0F0E0CF01DF91CF911F910F9108953B
S1131490CF93DF93009709F481C0FC013297138244
S11314A01282A091D602B091D702109781F42081C4
S11314B03181820F931F2091D4023091D5022817D5
S11314C0390751F5F093D502E093D40267C0ED01DA
S11314D020E030E0CE17DF0740F44A815B819E01B3
S11314E041155105F1F0EA01F5CFD383C283408160
S11314F05181840F951FC817D90759F488819981A0
S1131500840F951F0296918380838A819B819383A4
S113151082832115310529F4F093D702E093D60292
S11315203DC0E901FB83EA8349915991C40FD51F5A
S1131530EC17FD0761F480819181840F951F029659
S1131540E90199838883828193819B838A83E0E084
S1131550F0E012968D919C911397009719F0FD017C
S1131560DC01F7CF8D919C9111979D012E5F3F4F28
S1131570820F931F2091D4023091D5022817390786
S113158069F4309729F41092D7021092D60202C05F
S113159013821282B093D502A093D402DF91CF912B
S11315A00895FC010590615070400110D8F78095B2
S11315B090958E0F9F1F0895DC0101C06D934150DB
S11315C05040E0F70895FC01615070400190011013
S11315D0D8F7809590958E0F9F1F08950F931F93B2
S11315E0CF93DF93FB01238121FD03C08FEF9FEF96
S11315F02CC022FF16C046815781248135814217B1
S1131600530744F4A081B1819D012F5F3F4F318383
S113161020838C93268137812F5F3F4F3783268326
S113162014C08B01EC01FB010084F185E02D1995B8
S1131630892BE1F6D80116968D919C911797019606
S113164017969C938E931697CE01DF91CF911F919D
S11316500F910895FA01AA27283051F1203181F120
S1131660E8946F936E7F6E5F7F4F8F4F9F4FAF4FA6
S1131670B1E03ED0B4E03CD0670F781F891F9A1FB9
S1131680A11D680F791F8A1F911DA11D6A0F711D6D
S1131690811D911DA11D20D009F468943F912AE079
S11316A0269F11243019305D3193DEF6CF01089561
S11316B0462F4770405D4193B3E00FD0C9F7F6CF92
S11316C0462F4F70405D4A3318F0495D31FD40525A
S11316D0419302D0A9F7EACFB4E0A69597958795F0
S11316E077956795BA95C9F70097610571050895CF
S11316F09B01AC010A2E069457954795379527957B
S1131700BA95C9F7620F731F841F951FA01D089512
S1071710F894FFCF77
S11317140000D80220007D000AD7A33C0AD7233D49
S11317240AD7233CF80D2076616C203D20202564E3
S1131734202073636F7265203D2025642020200AD5
S11317440D000A0A0D63616C6962726174696F6EDB
S113175420646F6E652C206D6178206C656674203E
S113176476616C75653A2025692C206D6178207248
S1131774696768742076616C75653A2025690A0D79
S113178400657272203D20307825780A0D000A0A1B
S11317940A0A0A20626567696E212121200A0D0064
S11317A463616C696272617465696E670A0D0072C3
S11317B46563616C69627261746520646F6E65202F
S10717C40A0D000006
S9030000FC
