S01700006279676765726E34335F6E6F6465322E7372656381
S113000071C000001DC100008CC000008AC0000047
S113001088C0000086C0000084C0000082C00000C8
S113002080C000007EC000007CC000007AC00000D8
S113003078C0000076C0000074C0000072C00000E8
S113004070C000006EC000006CC000006AC00000F8
S113005068C0000014C2000064C0000062C0000058
S113006060C000005EC000005CC000005AC0000018
S113007058C00000ABC1000054C0000052C00000D2
S113008050C000004EC000004CC000004AC0000038
S113009048C0000046C0000044C0000042C0000048
S11300A040C000003EC000003CC000003AC0000058
S11300B038C0000036C0000034C0000032C0000068
S11300C030C000002EC000002CC000002AC0000078
S11300D028C0000026C0000024C0000022C0000088
S11300E020C0000011241FBECFEFD1E2DEBFCDBF80
S11300F000E00CBF12E0A0E0B2E0EAE6FDE000E0C0
S11301000BBF02C007900D92A836B107D9F722E0C1
S1130110A8E6B2E001C01D92A837B207E1F721D1E9
S113012022C66ECF86E092E09F938F931AD2ECE7BB
S1130130F0E0808180668083EAE7F0E0808188686F
S11301408083EBE7F0E0808183608083EEE7F0E07A
S113015080818160808389E092E09F938F9301D2B4
S11301600F900F900F900F90089574D050D040E8E6
S11301706FEF8FE051D04FEF60E680E64DD041E065
S113018061E08BE249D040E060EE8FE045C0089525
S11301900F931F93CF938C018CE22CD080FF26C049
S11301A081E628D0C82F82E625D0CC0FCC0FCC0F07
S11301B08295869587708C2BF801808385E61AD00A
S11301C08F70F8018183882369F0C0E086E68C0F84
S11301D011D0F801EC0FF11D8283CF5FF80181810A
S11301E0C817A0F340E061E08CE216D0CF911F91D4
S11301F00F910895CF93C82F41D083E033D08C2F33
S113020031D035D0C82F3CD08C2FCF91089536D023
S113021080EC28D035C008951F93CF93DF93182F17
S1130220D62FC42F2BD085E01DD0812F1BD08D2F2E
S113023019D08C2F17D024D0DF91CF911F9108951E
S11302401F920F920FB60F9211240F900FBE0F90B2
S11302501F90189584B1876884B923988CB58165FB
S11302608CBD08958EBD0DB407FEFDCF08958AEAB6
S11302708EBD0DB407FEFDCF8EB508952F98089559
S11302802F9A089584B5826084BD85B5856085BD47
S11302908FE787BDEEE6F0E0808182608083E0E84E
S11302A0F0E0808182688083E1E8F0E080818B6106
S11302B0808388E893E19093870080938600089573
S11302C04AEF9C01429FC001439F900D11249C0161
S11302D03695279536952795A7E8B1E6E9D0969502
S11302E0879596958795969587958F519F4F873ECD
S11302F0910538F0883032E0930728F088E092E0E6
S113030002C086EE90E0909389008093880008955F
S1130310E0ECF0E0908195FFFDCF8093C60080E093
S113032090E00895E0ECF0E080818823ECF7809180
S1130330C60090E008959093C5008093C40088E9B6
S11303408093C1008EE08093C20062E971E088E886
S113035091E0BDD090936D0280936C0280E090E0B8
S11303600895CF93DF93CDB7DEB72A970FB6F894ED
S1130370DEBF0FBECDBF87E690E0DDDFF6DE8DE0A9
S113038092E09F938F93EDD0259A7CDFCBDE789417
S11303900F900F900FE112E0CE010196F9DE8981F2
S11303A08823D1F39C811F929F939B811F929F93DB
S11303B01F928F931F930F93D4D08B8190E080DF93
S11303C00FB6F894DEBF0FBECDBFE6CF1F920F92DB
S11303D00FB60F9211240BB60F922F933F934F93A6
S11303E05F936F937F938F939F93AF93BF93EF9399
S11303F0FF93809179008634E0F490916B029F938F
S113040090916A029F93909169029F9390916802E0
S11304109F931F928F938AE492E09F938F93A1D02E
S11304208DB79EB708960FB6F8949EBF0FBE8DBFCA
S113043013C08091680290916902A0916A02B09100
S11304406B020196A11DB11D80936802909369020D
S1130450A0936A02B0936B02FF91EF91BF91AF91A9
S11304609F918F917F916F915F914F913F912F91C8
S11304700F900BBE0F900FBE0F901F9018951F92F8
S11304800F920FB60F9211240BB60F928F93EF9326
S1130490FF93EAE7F0E0808180648083FF91EF912D
S11304A08F910F900BBE0F900FBE0F901F90189559
S11304B0A29FB001B39FC001A39F700D811D1124A1
S11304C0911DB29F700D811D1124911D08950F93EC
S11304D01F93CF93DF93009731F46115710519F4DD
S11304E080E090E039C08B01EC016EE070E081E0C7
S11304F090E047D2FC01892B99F380E883830115AE
S1130500110571F01387028781E8838380916E025D
S113051090916F02892B21F4F0936F02E0936E02A5
S11305202097C9F0D187C0878381826083838091BB
S1130530700290917102892B71F4F0937102E0932F
S113054070028091720290917302892B21F4F093CE
S11305507302E0937202CF01DF91CF911F910F914B
S11305600895CF93DF93CDB7DEB7AE014A5F5F4FF7
S1130570FA0161917191AF018091700290917102C1
S113058003D0DF91CF9108952F923F924F925F92C3
S11305906F927F928F929F92AF92BF92CF92DF928F
S11305A0EF92FF920F931F93CF93DF93CDB7DEB7F4
S11305B02B970FB6F894DEBF0FBECDBF6C017B0145
S11305C08A01FC0117821682838181FFBFC1CE019B
S11305D001963C01F6019381F70193FD859193FF08
S11305E081917F01882309F4ADC1853239F493FDEB
S11305F0859193FF81917F01853221F4B60190E0CA
S113060018D3E8CF912C212C312CFFE1F315D8F02D
S11306108B3279F038F4803279F08332A1F4232DCF
S113062020611DC08D3261F0803369F4232D216077
S113063016C0832D8260382EE32DE4603E2E2AC03E
S1130640F32DF8601DC037FC2DC020ED280F2A3093
S113065040F08E32B9F436FC75C1232D2064322E5D
S113066019C036FE06C08AE0989E200D1124922EF1
S113067011C0EAE02E9E200D1124222EF32DF062EB
S11306803F2E08C08C3621F4832D8068382E02C09A
S1130690883641F4F70193FD859193FF81917F01A1
S11306A08111B3CF982F9F7D9554933028F40C5F1C
S11306B01F4F9FE399830DC0833631F0833771F068
S11306C0833509F055C020C0F801808189830E5F0D
S11306D01F4F88248394912C530112C02801F2E007
S11306E04F0E511CF801A080B18036FE03C0692D65
S11306F070E002C06FEF7FEFC50190D24C01820120
S1130700F32DFF773F2E15C0280122E0420E511C25
S1130710F801A080B18036FE03C0692D70E002C0EC
S11307206FEF7FEFC50168D24C01F32DF0683F2EC7
S1130730820133FC19C0822D90E088169906A0F43A
S1130740B60180E290E075D22A94F5CFF50137FC2A
S1130750859137FE81915F01B60190E06AD2211044
S11307602A9421E0821A91088114910479F7E1C056
S1130770843611F0893639F5F80137FE07C06081F7
S11307807181828193810C5F1F4F08C060817181E8
S1130790072E000C880B990B0E5F1F4FF32DFF766D
S11307A03F2E97FF09C090958095709561957F4F76
S11307B08F4F9F4FF0683F2E2AE030E0A30175D29F
S11307C0882E861844C0853731F4232D2F7EB22E0F
S11307D02AE030E025C0932D997FB92E8F36C1F0E1
S11307E018F4883579F0AEC0803719F0883721F0D5
S11307F0A9C0E92FE061BE2EB4FE0DC0FB2DF4604C
S1130800BF2E09C034FE0AC0292F2660B22E06C0AE
S113081028E030E005C020E130E002C020E132E011
S1130820F801B7FE07C060817181828193810C5FFA
S11308301F4F06C06081718180E090E00E5F1F4F02
S1130840A30133D2882E8618FB2DFF773F2E36FE68
S11308500DC0232D2E7FA22E891458F434FE0BC014
S113086032FC09C0832D8E7EA82E05C0B82CA32C83
S113087003C0B82C01C0B92CA4FE0FC0FE01E80DC2
S1130880F11D8081803321F49A2D997EA92E09C00F
S1130890A2FE06C0B394B39404C08A2D867809F0EE
S11308A0B394A3FC10C0A0FE06C0B21480F4280CBC
S11308B0922C9B180DC0B21458F4B60180E290E05B
S11308C0B8D1B394F8CFB21418F42B1802C0982CF2
S11308D0212CA4FE0FC0B60180E390E0AAD1A2FEB1
S11308E016C0A1FC03C088E790E002C088E590E050
S11308F0B6010CC08A2D867851F0A1FE02C08BE2AD
S113090001C080E2A7FC8DE2B60190E092D1891487
S113091030F4B60180E390E08CD19A94F8CF8A94B5
S1130920F301E80DF11D8081B60190E082D18110C0
S1130930F6CF222009F44ECEB60180E290E079D1C0
S11309402A94F7CFF6018681978102C08FEF9FEF3B
S11309502B960FB6F894DEBF0FBECDBFDF91CF91BB
S11309601F910F91FF90EF90DF90CF90BF90AF90C9
S11309709F908F907F906F905F904F903F902F90BB
S113098008950F931F93CF93DF93869F8001879FD2
S1130990100D969F100D1124C8010DD0EC01009785
S11309A021F0A80160E070E032D1CE01DF91CF9157
S11309B01F910F9108950F931F93CF93DF9382306C
S11309C0910510F482E090E0E0917602F0917702D4
S11309D020E030E0A0E0B0E0309719F1408151818F
S11309E00281138148175907C8F08417950769F4E1
S11309F0109731F012960C93129713961C9327C0FC
S1130A00009376021093770222C02115310519F064
S1130A104217530718F49A01BD01EF01DF01F801F1
S1130A20DBCF21153105F9F0281B390B24303105B2
S1130A3080F48A819B816115710521F0FB01938308
S1130A40828304C09093770280937602FE013296EB
S1130A5044C0FE01E20FF31F8193919322503109A8
S1130A60398328833AC02091740230917502232B74
S1130A7041F42091020230910302309375022093D5
S1130A80740220910002309101022115310541F4D4
S1130A902DB73EB74091040250910502241B350B3B
S1130AA0E0917402F0917502E217F307A0F42E1B93
S1130AB03F0B2817390778F0AC014E5F5F4F2417BE
S1130AC0350748F04E0F5F1F509375024093740230
S1130AD08193919302C0E0E0F0E0CF01DF91CF91E8
S1130AE01F910F910895CF93DF93009709F481C06C
S1130AF0FC01329713821282A0917602B0917702A0
S1130B00109781F420813181820F931F2091740208
S1130B10309175022817390751F5F0937502E09367
S1130B20740267C0ED0120E030E0CE17DF0740F427
S1130B304A815B819E0141155105F1F0EA01F5CF2F
S1130B40D383C28340815181840F951FC817D9076D
S1130B5059F488819981840F951F0296918380832B
S1130B608A819B81938382832115310529F4F09333
S1130B707702E09376023DC0E901FB83EA83499161
S1130B805991C40FD51FEC17FD0761F48081918141
S1130B90840F951F0296E90199838883828193814A
S1130BA09B838A83E0E0F0E012968D919C911397E9
S1130BB0009719F0FD01DC01F7CF8D919C911197FD
S1130BC09D012E5F3F4F820F931F2091740230913D
S1130BD075022817390769F4309729F410927702BF
S1130BE01092760202C013821282B0937502A0930F
S1130BF07402DF91CF910895FC010590615070401B
S1130C000110D8F7809590958E0F9F1F0895DC01F1
S1130C1001C06D9341505040E0F70895FC016150CC
S1130C20704001900110D8F7809590958E0F9F1F0A
S1130C3008950F931F93CF93DF93FB01238121FD2D
S1130C4003C08FEF9FEF2CC022FF16C0468157814F
S1130C50248135814217530744F4A081B1819D0159
S1130C602F5F3F4F318320838C93268137812F5F01
S1130C703F4F3783268314C08B01EC01FB010084B2
S1130C80F185E02D1995892BE1F6D80116968D9101
S1130C909C911797019617969C938E931697CE0165
S1130CA0DF91CF911F910F910895FA01AA2728305F
S1130CB051F1203181F1E8946F936E7F6E5F7F4F25
S1130CC08F4F9F4FAF4FB1E03ED0B4E03CD0670FA1
S1130CD0781F891F9A1FA11D680F791F8A1F911DF4
S1130CE0A11D6A0F711D811D911DA11D20D009F444
S1130CF068943F912AE0269F11243019305D319386
S1130D00DEF6CF010895462F4770405D4193B3E06E
S1130D100FD0C9F7F6CF462F4F70405D4A3318F015
S1130D20495D31FD4052419302D0A9F7EACFB4E0C6
S1130D30A6959795879577956795BA95C9F700977E
S1130D406105710508959B01AC010A2E069457951F
S1130D50479537952795BA95C9F7620F731F841F76
S10D0D60951FA01D0895F894FFCF1D
S1130D6A000078022000686500686532000A0A0AF1
S1130D7A0A0A20626567696E212121200A0D004949
S1130D8A44203D2025752C206C656674736C696457
S1130D9A65723A2025752C207269676874736C69C8
S1130DAA6465723A202575200D000D2076616C2049
S1130DBA3D20202564202073636F7265203D202521
S10B0DCA642020200A0D000042
S9030000FC
