:10000000C2C000006EC10000DDC00000DBC0000007
:10001000D9C00000D7C00000D5C00000D3C0000088
:10002000D1C00000CFC00000CDC00000CBC0000098
:10003000C9C00000C7C00000C5C00000C3C00000A8
:10004000C1C00000BFC00000BDC00000BBC00000B8
:10005000B9C0000040C30000B5C00000B3C000003C
:10006000B1C00000AFC00000ADC00000ABC00000D8
:10007000A9C00000D7C20000A5C00000A3C00000B6
:10008000A1C000009FC000009DC000009BC00000F8
:1000900099C0000097C0000095C00000EBC10000AF
:1000A00091C000008FC000008DC000008BC0000018
:1000B00089C0000087C0000085C0000083C0000028
:1000C00081C000007FC000007DC000007BC0000038
:1000D00079C0000077C0000075C0000073C0000048
:1000E00071C000005802AA02AA02AA02AA02AA0229
:1000F000AA02AA025802AA02AA02AA02AA02AA02F2
:10010000AA02AA025A02AA02AA02AA02AA02AA02DF
:10011000AA02AA02AA02AA02AA02AA02AA02AA027F
:10012000AA02AA025A02AA02AA02AA02AA02AA02BF
:10013000AA02AA02AA02AA02AA02AA02AA02AA025F
:10014000AA02AA02A602AA02AA02AA02AA02AA0253
:10015000AA02AA028302AA02AA02AA02AA02AA0266
:10016000AA02AA02AA02AA02AA02AA02AA02AA022F
:10017000AA02AA027702AA02AA02AA02AA02AA0252
:10018000AA02AA02950211241FBECFEFD1E2DEBF60
:10019000CDBF00E00CBF12E0A0E0B2E0E2EDFFE076
:1001A00000E00BBF02C007900D92AA34B107D9F747
:1001B00022E0AAE4B2E001C01D92A136B207E1F745
:1001C00008D205C71DCF87E092E09F938F93FDD2A1
:1001D000ECE7F0E0808180668083EAE7F0E08081F0
:1001E00088688083EBE7F0E0808183608083EEE7BE
:1001F000F0E08081816080838AE092E09F938F931A
:10020000E4D20F900F900F900F9008959ED050D091
:1002100040E86FEF8FE051D04FEF60E680E64DD0C1
:1002200041E061E08BE249D040E060EE8FE045C004
:1002300008950F931F93CF938C018CE22CD080FFF5
:1002400026C081E628D0C82F82E625D0CC0FCC0F5F
:10025000CC0F8295869587708C2BF801808385E67C
:100260001AD08F70F8018183882369F0C0E086E698
:100270008C0F11D0F801EC0FF11D8283CF5FF801D4
:100280008181C817A0F340E061E08CE216D0CF91E5
:100290001F910F910895CF93C82F6BD083E05DD04D
:1002A0008C2F5BD05FD0C82F66D08C2FCF91089554
:1002B00060D080EC52D05FC008951F93CF93DF933E
:1002C000182FD62FC42F55D085E047D0812F45D089
:1002D0008D2F43D08C2F41D04ED0DF91CF911F91E5
:1002E00008951F920F920FB60F9211240F900FBE18
:1002F0000F901F901895E1E0F1E080818A6780837C
:10030000E2E0F1E080818061808386C00895CF9330
:10031000DF9300D0CDB7DEB790E599831A828B8347
:1003200063E0CE01019682D01F928F938EE092E01F
:100330009F938F934AD20F900F900F900F900F9032
:100340000F900F90DF91CF91089584B1876884B9A1
:1003500023988CB581658CBD08958EBD0DB407FEC4
:10036000FDCF08958AEA8EBD0DB407FEFDCF8EB590
:1003700008952F9808952F9A089584B5826084BDBA
:1003800085B5856085BD8FE787BDEEE6F0E08081AD
:1003900082608083E0E8F0E0808182688083E1E829
:1003A000F0E080818B61808388E893E190938700FF
:1003B000809386008CE291E090938900809388007E
:1003C000089546E09C01429FC001439F900D921BFF
:1003D00011249C0128553E49369527953695279539
:1003E000A7E8B1E699D196958795969587959695C4
:1003F00087958F519F4F873E910538F0883032E0C6
:10040000930728F088E092E002C086EE90E0909397
:1004100089008093880008958CE08093B8008FEF66
:100420008093BB0084E08093BC000895DC01ECEB7A
:10043000F0E0908190FDFDCF60934C028C91809311
:100440004D0280FD0CC0623050F0FD013196AEE4EB
:10045000B2E081E091919D938F5F6813FBCF109282
:100460004B028091060298EF9093060295EA9093D2
:10047000BC0008951F920F920FB60F9211240BB675
:100480000F922F933F938F939F93AF93BF93EF93CD
:10049000FF93E091B9008E2F90E0FC013897E13591
:1004A000F10508F057C08827EE58FF4F8F4F2CC139
:1004B00010924A02E0914A0280914C02E81770F4CF
:1004C00081E08E0F80934A02F0E0E35BFD4F808174
:1004D0008093BB0085E88093BC0043C080914B02B1
:1004E000816080934B0284E98093BC003AC0E09124
:1004F0004A0281E08E0F80934A028091BB00F0E0B7
:10050000E35BFD4F808320914A0230E080914C02F2
:1005100090E001972817390724F485EC8093BC00FC
:1005200020C085E88093BC001CC08091BB00E09196
:100530004A02F0E0E35BFD4F808380914B028160D3
:1005400080934B0284E98093BC000BC085EA8093C2
:10055000BC0007C08091B9008093060284E08093BC
:10056000BC00FF91EF91BF91AF919F918F913F910F
:100570002F910F900BBE0F900FBE0F901F901895EC
:10058000E0ECF0E0908195FFFDCF8093C60080E025
:1005900090E00895E0ECF0E080818823ECF7809112
:1005A000C60090E008959093C5008093C40088E948
:1005B0008093C1008EE08093C2006AEC72E080EC10
:1005C00092E0B9D0909356028093550280E090E07B
:1005D0000895CF93DF93CDB7DEB72A970FB6F8947F
:1005E000DEBF0FBECDBF87E690E0DDDF0FDE8BE123
:1005F00092E09F938F93E9D0259ABFDEE4DD789453
:100600008DE790E0DEDE77DE0F900F90CE01019651
:1006100010DE89818823D1F38B8190E0D2DE8C813A
:1006200076DEF4CF1F920F920FB60F9211240BB605
:100630000F922F933F934F935F936F937F938F937B
:100640009F93AF93BF93EF93FF938091790086348C
:10065000E0F4909154029F93909153029F93909154
:1006600052029F93909151029F931F928F938DE21C
:1006700092E09F938F93A9D08DB79EB708960FB63F
:10068000F8949EBF0FBE8DBF13C080915102909110
:100690005202A0915302B09154020196A11DB11DC6
:1006A0008093510290935202A0935302B09354024C
:1006B000FF91EF91BF91AF919F918F917F916F913A
:1006C0005F914F913F912F910F900BBE0F900FBEF6
:1006D0000F901F9018951F920F920FB60F92112432
:1006E0000BB60F928F93EF93FF93EAE7F0E08081D0
:1006F00080648083FF91EF918F910F900BBE0F90DC
:100700000FBE0F901F901895EE0FFF1F881F8BBF15
:100710000790F691E02D1994A29FB001B39FC001FC
:10072000A39F700D811D1124911DB29F700D811D1D
:100730001124911D08950F931F93CF93DF9300977A
:1007400031F46115710519F480E090E039C08B0136
:10075000EC016EE070E081E090E047D2FC01892B73
:1007600099F380E883830115110571F013870287DF
:1007700081E883838091570290915802892B21F45C
:10078000F0935802E09357022097C9F0D187C087B1
:100790008381826083838091590290915A02892BD0
:1007A00071F4F0935A02E093590280915B029091A8
:1007B0005C02892B21F4F0935C02E0935B02CF0191
:1007C000DF91CF911F910F910895CF93DF93CDB714
:1007D000DEB7AE014A5F5F4FFA0161917191AF01DF
:1007E0008091590290915A0203D0DF91CF910895E0
:1007F0002F923F924F925F926F927F928F929F9231
:10080000AF92BF92CF92DF92EF92FF920F931F931E
:10081000CF93DF93CDB7DEB72B970FB6F894DEBF3B
:100820000FBECDBF6C017B018A01FC0117821682CD
:10083000838181FFBFC1CE0101963C01F601938106
:10084000F70193FD859193FF81917F01882309F43E
:10085000ADC1853239F493FD859193FF81917F017C
:10086000853221F4B60190E018D3E8CF912C212CE9
:10087000312CFFE1F315D8F08B3279F038F4803267
:1008800079F08332A1F4232D20611DC08D3261F0F7
:10089000803369F4232D216016C0832D8260382EA9
:1008A000E32DE4603E2E2AC0F32DF8601DC037FC16
:1008B0002DC020ED280F2A3040F08E32B9F436FCDE
:1008C00075C1232D2064322E19C036FE06C08AE081
:1008D000989E200D1124922E11C0EAE02E9E200D2C
:1008E0001124222EF32DF0623F2E08C08C3621F405
:1008F000832D8068382E02C0883641F4F70193FDBD
:10090000859193FF81917F018111B3CF982F9F7DB6
:100910009554933028F40C5F1F4F9FE399830DC0CB
:10092000833631F0833771F0833509F055C020C02C
:10093000F801808189830E5F1F4F88248394912C56
:10094000530112C02801F2E04F0E511CF801A080A3
:10095000B18036FE03C0692D70E002C06FEF7FEFFB
:10096000C50190D24C018201F32DFF773F2E15C0B7
:10097000280122E0420E511CF801A080B18036FE11
:1009800003C0692D70E002C06FEF7FEFC50168D230
:100990004C01F32DF0683F2E820133FC19C0822DEB
:1009A00090E088169906A0F4B60180E290E075D236
:1009B0002A94F5CFF50137FC859137FE81915F01CF
:1009C000B60190E06AD221102A9421E0821A91089F
:1009D0008114910479F7E1C0843611F0893639F534
:1009E000F80137FE07C060817181828193810C5FBD
:1009F0001F4F08C060817181072E000C880B990B76
:100A00000E5F1F4FF32DFF763F2E97FF09C0909585
:100A10008095709561957F4F8F4F9F4FF0683F2E67
:100A20002AE030E0A30175D2882E861844C08537AD
:100A300031F4232D2F7EB22E2AE030E025C0932DF5
:100A4000997FB92E8F36C1F018F4883579F0AEC091
:100A5000803719F0883721F0A9C0E92FE061BE2E58
:100A6000B4FE0DC0FB2DF460BF2E09C034FE0AC0D9
:100A7000292F2660B22E06C028E030E005C020E114
:100A800030E002C020E132E0F801B7FE07C060812B
:100A90007181828193810C5F1F4F06C060817181DB
:100AA00080E090E00E5F1F4FA30133D2882E86189E
:100AB000FB2DFF773F2E36FE0DC0232D2E7FA22E5D
:100AC000891458F434FE0BC032FC09C0832D8E7E8D
:100AD000A82E05C0B82CA32C03C0B82C01C0B92C7B
:100AE000A4FE0FC0FE01E80DF11D8081803321F4CA
:100AF0009A2D997EA92E09C0A2FE06C0B394B39484
:100B000004C08A2D867809F0B394A3FC10C0A0FE1F
:100B100006C0B21480F4280C922C9B180DC0B2149D
:100B200058F4B60180E290E0B8D1B394F8CFB21493
:100B300018F42B1802C0982C212CA4FE0FC0B6016B
:100B400080E390E0AAD1A2FE16C0A1FC03C088E712
:100B500090E002C088E590E0B6010CC08A2D86784E
:100B600051F0A1FE02C08BE201C080E2A7FC8DE241
:100B7000B60190E092D1891430F4B60180E390E0A0
:100B80008CD19A94F8CF8A94F301E80DF11D8081FD
:100B9000B60190E082D18110F6CF222009F44ECE2A
:100BA000B60180E290E079D12A94F7CFF6018681F0
:100BB000978102C08FEF9FEF2B960FB6F894DEBFA0
:100BC0000FBECDBFDF91CF911F910F91FF90EF909E
:100BD000DF90CF90BF90AF909F908F907F906F905D
:100BE0005F904F903F902F9008950F931F93CF9356
:100BF000DF93869F8001879F100D969F100D112413
:100C0000C8010DD0EC01009721F0A80160E070E070
:100C100032D1CE01DF91CF911F910F9108950F93A3
:100C20001F93CF93DF938230910510F482E090E020
:100C3000E0915F02F091600220E030E0A0E0B0E0DF
:100C4000309719F14081518102811381481759076A
:100C5000C8F08417950769F4109731F012960C9339
:100C6000129713961C9327C000935F0210936002A3
:100C700022C02115310519F04217530718F49A01C3
:100C8000BD01EF01DF01F801DBCF21153105F9F0DE
:100C9000281B390B2430310580F48A819B81611532
:100CA000710521F0FB019383828304C0909360025D
:100CB00080935F02FE01329644C0FE01E20FF31FF3
:100CC0008193919322503109398328833AC020912E
:100CD0005D0230915E02232B41F42091020230919B
:100CE000030230935E0220935D0220910002309156
:100CF00001022115310541F42DB73EB740910402A0
:100D000050910502241B350BE0915D02F0915E02CB
:100D1000E217F307A0F42E1B3F0B2817390778F0D2
:100D2000AC014E5F5F4F2417350748F04E0F5F1F31
:100D300050935E0240935D028193919302C0E0E084
:100D4000F0E0CF01DF91CF911F910F910895CF93E4
:100D5000DF93009709F481C0FC013297138212825D
:100D6000A0915F02B0916002109781F420813181DF
:100D7000820F931F20915D0230915E022817390780
:100D800051F5F0935E02E0935D0267C0ED0120E053
:100D900030E0CE17DF0740F44A815B819E014115A8
:100DA0005105F1F0EA01F5CFD383C283408151812F
:100DB000840F951FC817D90759F488819981840F2A
:100DC000951F0296918380838A819B81938382837E
:100DD0002115310529F4F0936002E0935F023DC0D4
:100DE000E901FB83EA8349915991C40FD51FEC17A0
:100DF000FD0761F480819181840F951F0296E901BE
:100E000099838883828193819B838A83E0E0F0E0E9
:100E100012968D919C911397009719F0FD01DC01BA
:100E2000F7CF8D919C9111979D012E5F3F4F820FBF
:100E3000931F20915D0230915E022817390769F4F3
:100E4000309729F41092600210925F0202C0138260
:100E50001282B0935E02A0935D02DF91CF9108955C
:100E6000FC010590615070400110D8F78095909575
:100E70008E0F9F1F0895DC0101C06D9341505040BB
:100E8000E0F70895FC016150704001900110D8F71F
:100E9000809590958E0F9F1F08950F931F93CF936A
:100EA000DF93FB01238121FD03C08FEF9FEF2CC057
:100EB00022FF16C04681578124813581421753078E
:100EC00044F4A081B1819D012F5F3F4F3183208386
:100ED0008C93268137812F5F3F4F3783268314C041
:100EE0008B01EC01FB010084F185E02D1995892B24
:100EF000E1F6D80116968D919C9117970196179659
:100F00009C938E931697CE01DF91CF911F910F91F5
:100F10000895FA01AA27283051F1203181F1E8948F
:100F20006F936E7F6E5F7F4F8F4F9F4FAF4FB1E0DC
:100F30003ED0B4E03CD0670F781F891F9A1FA11DD7
:100F4000680F791F8A1F911DA11D6A0F711D811DD8
:100F5000911DA11D20D009F468943F912AE0269F9D
:100F600011243019305D3193DEF6CF010895462FFC
:100F70004770405D4193B3E00FD0C9F7F6CF462FDD
:100F80004F70405D4A3318F0495D31FD4052419346
:100F900002D0A9F7EACFB4E0A69597958795779503
:100FA0006795BA95C9F700976105710508959B018A
:100FB000AC010A2E06945795479537952795BA9513
:100FC000C9F7620F731F841F951FA01D0895F89421
:020FD000FFCF51
:100FD200000061022000F8686500686532006572F1
:100FE20072203D20307825780A0D000A0A0A0A0A82
:100FF20020626567696E212121200A0D000D20768D
:10100200616C203D20202564202073636F7265206F
:0A1012003D2025642020200A0D0077
:00000001FF
