S01700006279676765726E34335F6E6F6465322E7372656381
S1130000C2C000008DC30000DEC00000DCC00000E0
S1130010DAC00000D8C00000D6C00000D4C0000080
S1130020D2C00000D0C00000CEC00000CCC0000090
S1130030CAC00000C8C00000C6C00000C4C00000A0
S1130040C2C00000C0C00000BEC00000BCC00000B0
S1130050BAC00000BDC50000B6C00000B4C00000B6
S1130060B2C00000B0C00000AEC00000ACC00000D0
S1130070AAC00000D8C00000A6C00000A4C00000B0
S11300807EC10000A0C000009EC000009CC0000013
S11300909AC0000098C0000096C0000059C4000037
S11300A092C0000090C000008EC000008CC0000010
S11300B08AC0000088C0000086C0000084C0000020
S11300C082C0000080C000007EC000007CC0000030
S11300D07AC0000078C0000076C0000074C0000040
S11300E072C00000C604180518051805180518057F
S11300F018051805C6041805180518051805180567
S113010018051805C8041805180518051805180554
S113011018051805180518051805180518051805F3
S113012018051805C8041805180518051805180534
S113013018051805180518051805180518051805D3
S113014018051805140518051805180518051805C7
S113015018051805F10418051805180518051805DB
S113016018051805180518051805180518051805A3
S113017018051805E50418051805180518051805C7
S113018018051805030511241FBECFEFD1E2DEBF09
S1130190CDBF00E00CBF12E0A0E0B2E0E8E2F8E17D
S11301A000E00BBF02C007900D92AC39B107D9F73C
S11301B022E0ACE9B2E001C01D92AC3BB207E1F72A
S11301C0A7D40C94120C1CCFECE7F0E0808180667D
S11301D08083EAE7F0E0808188688083EBE7F0E0E1
S11301E0808183608083EEE7F0E08081816080839A
S11301F00895CF93DF93CDB7DEB72A970FB6F8945F
S1130200DEBF0FBECDBF863428F480E18983CE01E2
S1130210019645D02A960FB6F894DEBF0FBECDBF27
S1130220DF91CF9108951F920F920FB60F92112470
S11302300BB60F922F933F934F935F936F937F93DC
S11302408F939F93AF93BF93EF93FF938091790024
S1130250D0DFFF91EF91BF91AF919F918F917F91EB
S11302606F915F914F913F912F910F900BBE0F9023
S11302700FBE0F901F901895BBD22AD240E86FEFA3
S11302808FE02BD24FEF60E680E627D241E061E0B9
S11302908BE223D240E060EE8FE01FC208950F93FB
S11302A01F93CF938C01FC016081669566956695DA
S11302B081E3FFD1F8016081F0E26F9FB001112466
S11302C082E3F7D1F801618185E3F3D1F8018181FB
S11302D0882369F0C0E0F801EC0FF11D628186E328
S11302E08C0FE7D1CF5FF8018181C817A0F380E0BC
S11302F008D2CF911F910F9108950F931F93CF931D
S11303008C018CE2C9D180FF26C081E6C5D1C82FFB
S113031082E6C2D1CC0FCC0FCC0F82958695877024
S11303208C2BF801808385E6B7D18F70F801818327
S1130330882369F0C0E086E68C0FAED1F801EC0F9B
S1130340F11D8283CF5FF8018181C817A0F340E0DB
S113035061E08CE2C2D1CF911F910F9108950AD12F
S113036090939F0280939E02BC018091060290911B
S1130370070264D0E5C0089580919D0208951F92FC
S11303800F920FB60F9211240BB60F922F933F9337
S11303904F935F936F937F938F939F93AF93BF9389
S11303A0EF93FF93DCDF44D0882369F080919C02B3
S11303B0803120F080E03FD010929C0280919C021A
S11303C08F5F80939C02FF91EF91BF91AF919F91BA
S11303D08F917F916F915F914F913F912F910F90EA
S11303E00BBE0F900FBE0F901F90189590E0909346
S11303F0070280930602089580939D0208956C9AE3
S1130400749A0895749808952FEF81EE94E0215022
S113041080409040E1F700C00000749A8FE39CE9AB
S11304200197F1F700C0000081E08093A0020895D5
S11304308091A00208958093A0020895CF92DF9244
S1130440EF92FF92CF93DF936C017B011BD1EC0100
S11304501ED19E01281B390BC901992324F4882736
S11304609927821B930B6FEF70E052D56C9DE001CE
S11304706D9DD00D7C9DD00D1124CE19DF09CE01C8
S1130480C1968336910558F41092A1021092A202EB
S11304901092A3021092A402C0E0D0E022C0BE01D8
S11304A00D2E000C880B990B44D42091100230912E
S11304B011024091120250911302C7D49B01AC0166
S11304C06091A1027091A2028091A3029091A40272
S11304D099D36093A1027093A2028093A302909394
S11304E0A4022091A1023091A2024091A302509152
S11304F0A402609108027091090280910A0290910D
S11305000B02A3D46B017C01BE01DD0F880B990B98
S113051010D420910C0230910D0240910E025091A2
S11305200F0293D49B01AC01C701B6016BD3CED3A8
S1130530CB01DF91CF91FF90EF90DF90CF900895A2
S1130540181619064CF48639910514F4682F01C065
S113055066E980E036C108958B362FEF92072CF0C0
S113056066277727681B790B02C066E970E081E093
S113057028C10895E2E0F1E08081877D80838FEED9
S113058090E00197F1F700C00000A6E0B1E02C91E3
S11305908081886080838FEE90E00197F1F700C03E
S11305A000008C9190819062908390E0922B08954A
S11305B0CF93DF93C1E9D0E088818A7F88836AE59D
S11305C081E0FFD02FEF83ED90E3215080409040F5
S11305D0E1F700C000006AE580E0F3D02FEF83ED7F
S11305E090E3215080409040E1F700C000006AE5AC
S11305F082E0E7D02FEF81EE94E0215080409040DC
S1130600E1F700C00000B6DF9093A8028093A70230
S113061064E681E0D6D02FEF83ED90E32150804053
S11306209040E1F700C0000060E082E0CAD02FEF04
S113063081EE94E0215080409040E1F700C000003A
S113064099DF9093A6028093A502888185608883B0
S11306508091A6028F938091A5028F938091A80226
S11306608F938091A7028F9385E192E09F938F935C
S1130670D7D40F900F900F900F900F900F90DF91A1
S1130680CF9108958091A7029091A8020895809136
S1130690A5029091A6020895CF93C82FBDD083E000
S11306A0AFD08C2FADD0B1D0C82FB8D08C2FCF9174
S11306B00895CF93DF93D82FC62FAED082E0A0D079
S11306C08D2F9ED08C2F9CD0A9D0DF91CF910895EF
S11306D0A3D080EC95D0A2C008951F93CF93DF934D
S11306E0182FD62FC42F98D085E08AD0812F88D098
S11306F08D2F86D08C2F84D091D0DF91CF911F91F4
S11307000895CF93C82F88D081E090E002C0880F6D
S1130710991FCA95E2F7806873D080D0CF9108956D
S11307201F920F920FB60F9211240F900FBE0F90CD
S11307301F901895E2E0F1E080818F7B80838FE148
S113074093E00197F1F700C000008081806480830A
S11307500895E1E0F1E080818A678083E2E0F1E0DE
S11307608081806180838AB183608AB9E3DF1092DB
S11307700701C0C00895CF93DF9300D0CDB7DEB793
S11307809EE599831A828B8363E0CE010196BCD0E7
S1130790E7ECF0E03197F1F700C00000883F59F032
S11307A01F928F9384E592E09F938F9339D40F9097
S11307B00F900F900F900F900F900F90DF91CF91AB
S11307C00895811108C0E2E0F1E080818D7F80838B
S11307D0862FD1CF0895813041F4E2E0F1E08081A9
S11307E082608083862FC7CF089580E0C4CF0895A8
S11307F084B1876884B923988CB581658CBD0895CC
S11308008EBD0DB407FEFDCF08958AEA8EBD0DB4EA
S113081007FEFDCF8EB508952F9808952F9A089559
S113082084B5826084BD85B5856085BD8FE787BD4D
S1130830EEE6F0E0808182608083E0E8F0E0808191
S113084082688083E1E8F0E080818B61808388E8BE
S113085093E190938700809386008CE291E09093DB
S1130860890080938800E0E9F0E0808182608083E1
S1130870E1E9F0E08081856080838AEF90E09093E5
S1130880990080939800E1E7F0E0808182608083A2
S1130890089546E09C01429FC001439F900D921B26
S11308A011249C012A5F364036952795A9ECB4E0C3
S11308B04AD3969587958F519F4F823E910538F084
S11308C0883032E0930728F088E092E002C081EE9D
S11308D090E090938900809388000895E1E9F0E026
S11308E080818A7F80830895E1E9F0E080818560DA
S11308F0808308958CE08093B8008FEF8093BB00D1
S113090084E08093BC000895DC01ECEBF0E090817E
S113091090FDFDCF6093AB028C918093AC0280FD7F
S11309200CC0623050F0FD013196ADEAB2E081E0D6
S113093091919D938F5F6813FBCF1092AA028091CF
S1130940140298EF9093140295EA9093BC000895D2
S11309501F920F920FB60F9211240BB60F922F9382
S11309603F938F939F93AF93BF93EF93FF93E09144
S1130970B9008E2F90E0FC013897E135F10508F0BD
S113098057C08827EE58FF4F8F4FD5C21092A90247
S1130990E091A9028091AB02E81770F481E08E0F18
S11309A08093A902F0E0E455FD4F80818093BB0061
S11309B085E88093BC0043C08091AA028160809343
S11309C0AA0284E98093BC003AC0E091A90281E0C4
S11309D08E0F8093A9028091BB00F0E0E455FD4F97
S11309E080832091A90230E08091AB0290E00197CE
S11309F02817390724F485EC8093BC0020C085E8CF
S1130A008093BC001CC08091BB00E091A902F0E07F
S1130A10E455FD4F80838091AA0281608093AA02ED
S1130A2084E98093BC000BC085EA8093BC0007C0B6
S1130A308091B9008093140284E08093BC00FF91FC
S1130A40EF91BF91AF919F918F913F912F910F9013
S1130A500BBE0F900FBE0F901F901895E0ECF0E0C6
S1130A60908195FFFDCF8093C60080E090E00895CB
S1130A70E0ECF0E080818823ECF78091C60090E000
S1130A8008959093C5008093C40088E98093C100C1
S1130A908EE08093C20068E375E08EE295E076D242
S1130AA09093B1028093B00280E090E00895CF93D8
S1130AB0DF93CDB7DEB764970FB6F894DEBF0FBEF1
S1130AC0CDBF8BE08B878D8781E08C87CE0101962B
S1130AD014DC89818930D1F7CE010B96E0DB68DD27
S1130AE08AE08B878D8781E08C87CE010B96D7DBDC
S1130AF081E692E09F938F9393D20F900F90649628
S1130B000FB6F894DEBF0FBECDBFDF91CF9108952D
S1130B10CF93DF93CDB7DEB76E970FB6F894DEBFF1
S1130B200FBECDBF87E690E0ACDFA6DB87E692E0A0
S1130B309F938F9375D2259A73DE46DB8CE291E006
S1130B40A8DE07DE5CDC7894B2DF0F900F900F2EE6
S1130B50F9E7EF2EF2E0FF2EF02D08E812E00F2E59
S1130B60F1E1CF2EF02D0F2EF2E1DF2EF02D1982C0
S1130B70CE010196C2DB8981813019F0883051F0B1
S1130B801EC08B8190E085DE8C8180952FDC8E8168
S1130B9033DC15C0A3DEDD8ACB86CE0145967FDB30
S1130BA0FF92EF923DD204DDCE010B9678DB1F93CA
S1130BB00F9336D299DE0F900F900F900F90DCDBDD
S1130BC08130A9F635DC8111D2CF1CDC1DDCC7CF06
S1130BD01F920F920FB60F9211240BB60F928F93A0
S1130BE0EF93FF93EAE7F0E0808180648083FF91D4
S1130BF0EF918F910F900BBE0F900FBE0F901F902F
S1130C0018955058BB27AA270ED0E5C0D6D030F08F
S1130C10DBD020F031F49F3F11F41EF4CBC00EF46E
S1130C20E095E7FBC1C0E92FE7D080F3BA1762076C
S1130C3073078407950718F071F49EF5FFC00EF44E
S1130C40E0950B2EBA2FA02D0B01B90190010C01D8
S1130C50CA01A0011124FF27591B99F0593F50F4F0
S1130C60503E68F11A16F040A22F232F342F442748
S1130C70585FF3CF469537952795A795F040539540
S1130C80C9F77EF41F16BA0B620B730B840BBAF010
S1130C909150A1F0FF0FBB1F661F771F881FC2F77B
S1130CA00EC0BA0F621F731F841F48F4879577958F
S1130CB06795B795F7959E3F08F0B3CF9395880F46
S1130CC008F09927EE0F97958795089504D06894B6
S1130CD0B111B5C0089598D088F09F5790F0B92FFE
S1130CE09927B751A0F0D1F0660F771F881F991F7D
S1130CF01AF0BA95C9F712C0B13081F09FD0B1E0B3
S1130D0008959CC0672F782F8827B85F39F0B93FC2
S1130D10CCF3869577956795B395D9F73EF490957E
S1130D208095709561957F4F8F4F9F4F0895E894FC
S1130D3009C097FB3EF490958095709561957F4F1F
S1130D408F4F9F4F9923A9F0F92F96E9BB279395CD
S1130D50F695879577956795B795F111F8CFFAF4DD
S1130D60BB0F11F460FF1BC06F5F7F4F8F4F9F4F0E
S1130D7016C0882311F096E911C0772321F09EE86C
S1130D80872F762F05C0662371F096E8862F70E0D2
S1130D9060E02AF09A95660F771F881FDAF7880FAC
S1130DA09695879597F9089597F99F6780E870E07D
S1130DB060E008959FEF80EC089500240A941616CD
S1130DC0170618060906089500240A941216130635
S1130DD0140605060895092E0394000C11F48823C3
S1130DE052F0BB0F40F4BF2B11F460FF04C06F5FDF
S1130DF07F4F8F4F9F4F089557FD9058440F551FB5
S1130E0059F05F3F71F04795880F97FB991F61F088
S1130E109F3F79F087950895121613061406551FFF
S1130E20F2CF4695F1DF08C0161617061806991F6B
S1130E30F1CF86957105610508940895E894BB2760
S1130E4066277727CB0197F908950BD0C4CFB5DF78
S1130E5028F0BADF18F0952309F0A6CFABCF112400
S1130E60EECFCADFA0F3959FD1F3950F50E0551F45
S1130E70629FF001729FBB27F00DB11D639FAA27EB
S1130E80F00DB11DAA1F649F6627B00DA11D661F3A
S1130E90829F2227B00DA11D621F739FB00DA11D5B
S1130EA0621F839FA00D611D221F749F3327A00D15
S1130EB0611D231F849F600D211D822F762F6A2FB1
S1130EC011249F5750408AF0E1F088234AF0EE0F36
S1130ED0FF1FBB1F661F771F881F91505040A9F743
S1130EE09E3F510570F060CFAACF5F3FECF3983E70
S1130EF0DCF3869577956795B795F795E7959F5FAA
S1130F00C1F7FE2B880F911D9695879597F9089543
S1130F1097FB072E16F4009406D077FD08D022D054
S1130F2007FC05D03EF4909581959F4F08957095E8
S1130F3061957F4F0895EE0FFF1F881F8BBF0790A9
S1130F40F691E02D1994A29FB001B39FC001A39F15
S1130F50700D811D1124911DB29F700D811D1124EE
S1130F60911D0895AA1BBB1B51E107C0AA1FBB1FFB
S1130F70A617B70710F0A61BB70B881F991F5A9521
S1130F80A9F780959095BC01CD0108950F931F9307
S1130F90CF93DF93009731F46115710519F480E064
S1130FA090E039C08B01EC016EE070E081E090E0EC
S1130FB047D2FC01892B99F380E88383011511053D
S1130FC071F01387028781E883838091B202909144
S1130FD0B302892B21F4F093B302E093B202209779
S1130FE0C9F0D187C0878381826083838091B402F2
S1130FF09091B502892B71F4F093B502E093B40299
S11310008091B6029091B702892B21F4F093B70234
S1131010E093B602CF01DF91CF911F910F91089514
S1131020CF93DF93CDB7DEB7AE014A5F5F4FFA01CE
S113103061917191AF018091B4029091B50203D096
S1131040DF91CF9108952F923F924F925F926F92CA
S11310507F928F929F92AF92BF92CF92DF92EF9244
S1131060FF920F931F93CF93DF93CDB7DEB72B97E8
S11310700FB6F894DEBF0FBECDBF6C017B018A01B1
S1131080FC0117821682838181FFBFC1CE010196C4
S11310903C01F6019381F70193FD859193FF8191C2
S11310A07F01882309F4ADC1853239F493FD85911C
S11310B093FF81917F01853221F4B60190E018D32A
S11310C0E8CF912C212C312CFFE1F315D8F08B3291
S11310D079F038F4803279F08332A1F4232D206141
S11310E01DC08D3261F0803369F4232D216016C058
S11310F0832D8260382EE32DE4603E2E2AC0F32D2A
S1131100F8601DC037FC2DC020ED280F2A3040F0B8
S11311108E32B9F436FC75C1232D2064322E19C0E9
S113112036FE06C08AE0989E200D1124922E11C02E
S1131130EAE02E9E200D1124222EF32DF0623F2E84
S113114008C08C3621F4832D8068382E02C088367E
S113115041F4F70193FD859193FF81917F01811102
S1131160B3CF982F9F7D9554933028F40C5F1F4F75
S11311709FE399830DC0833631F0833771F0833553
S113118009F055C020C0F801808189830E5F1F4F8C
S113119088248394912C530112C02801F2E04F0E4D
S11311A0511CF801A080B18036FE03C0692D70E0A7
S11311B002C06FEF7FEFC50190D24C018201F32D85
S11311C0FF773F2E15C0280122E0420E511CF80182
S11311D0A080B18036FE03C0692D70E002C06FEFBD
S11311E07FEFC50168D24C01F32DF0683F2E8201D8
S11311F033FC19C0822D90E088169906A0F4B6013C
S113120080E290E075D22A94F5CFF50137FC859100
S113121037FE81915F01B60190E06AD221102A94D1
S113122021E0821A91088114910479F7E1C084368F
S113123011F0893639F5F80137FE07C060817181F4
S1131240828193810C5F1F4F08C060817181072EDA
S1131250000C880B990B0E5F1F4FF32DFF763F2E6A
S113126097FF09C090958095709561957F4F8F4F3A
S11312709F4FF0683F2E2AE030E0A30175D2882EFC
S1131280861844C0853731F4232D2F7EB22E2AE0F0
S113129030E025C0932D997FB92E8F36C1F018F414
S11312A0883579F0AEC0803719F0883721F0A9C0AD
S11312B0E92FE061BE2EB4FE0DC0FB2DF460BF2EFD
S11312C009C034FE0AC0292F2660B22E06C028E0C9
S11312D030E005C020E130E002C020E132E0F80156
S11312E0B7FE07C060817181828193810C5F1F4FBB
S11312F006C06081718180E090E00E5F1F4FA30102
S113130033D2882E8618FB2DFF773F2E36FE0DC074
S1131310232D2E7FA22E891458F434FE0BC032FCE8
S113132009C0832D8E7EA82E05C0B82CA32C03C023
S1131330B82C01C0B92CA4FE0FC0FE01E80DF11DAC
S11313408081803321F49A2D997EA92E09C0A2FEB2
S113135006C0B394B39404C08A2D867809F0B3947C
S1131360A3FC10C0A0FE06C0B21480F4280C922C7A
S11313709B180DC0B21458F4B60180E290E0B8D1C5
S1131380B394F8CFB21418F42B1802C0982C212C63
S1131390A4FE0FC0B60180E390E0AAD1A2FE16C05D
S11313A0A1FC03C088E790E002C088E590E0B601A4
S11313B00CC08A2D867851F0A1FE02C08BE201C0D8
S11313C080E2A7FC8DE2B60190E092D1891430F45A
S11313D0B60180E390E08CD19A94F8CF8A94F3011B
S11313E0E80DF11D8081B60190E082D18110F6CF25
S11313F0222009F44ECEB60180E290E079D12A94FD
S1131400F7CFF6018681978102C08FEF9FEF2B966D
S11314100FB6F894DEBF0FBECDBFDF91CF911F9101
S11314200F91FF90EF90DF90CF90BF90AF909F907F
S11314308F907F906F905F904F903F902F90089582
S11314400F931F93CF93DF93869F8001879F100D87
S1131450969F100D1124C8010DD0EC01009721F0C6
S1131460A80160E070E032D1CE01DF91CF911F91ED
S11314700F9108950F931F93CF93DF9382309105BB
S113148010F482E090E0E091BA02F091BB0220E017
S113149030E0A0E0B0E0309719F140815181028141
S11314A0138148175907C8F08417950769F41097F2
S11314B031F012960C93129713961C9327C0009345
S11314C0BA021093BB0222C02115310519F042174C
S11314D0530718F49A01BD01EF01DF01F801DBCFD6
S11314E021153105F9F0281B390B2430310580F41E
S11314F08A819B816115710521F0FB0193838283AD
S113150004C09093BB028093BA02FE01329644C099
S1131510FE01E20FF31F8193919322503109398325
S113152028833AC02091B8023091B902232B41F4A8
S113153020910202309103023093B9022093B80241
S113154020910002309101022115310541F42DB79B
S11315503EB74091040250910502241B350BE091E3
S1131560B802F091B902E217F307A0F42E1B3F0B67
S11315702817390778F0AC014E5F5F4F2417350701
S113158048F04E0F5F1F5093B9024093B802819305
S1131590919302C0E0E0F0E0CF01DF91CF911F9181
S11315A00F910895CF93DF93009709F481C0FC0154
S11315B0329713821282A091BA02B091BB021097A3
S11315C081F420813181820F931F2091B8023091E0
S11315D0B9022817390751F5F093B902E093B8021C
S11315E067C0ED0120E030E0CE17DF0740F44A8108
S11315F05B819E0141155105F1F0EA01F5CFD383DA
S1131600C28340815181840F951FC817D90759F4AB
S113161088819981840F951F0296918380838A81A2
S11316209B81938382832115310529F4F093BB02B6
S1131630E093BA023DC0E901FB83EA8349915991E1
S1131640C40FD51FEC17FD0761F480819181840FCD
S1131650951F0296E90199838883828193819B83F4
S11316608A83E0E0F0E012968D919C9113970097A5
S113167019F0FD01DC01F7CF8D919C9111979D012B
S11316802E5F3F4F820F931F2091B8023091B90211
S11316902817390769F4309729F41092BB02109285
S11316A0BA0202C013821282B093B902A093B802A4
S11316B0DF91CF910895FC010590615070400110B5
S11316C0D8F7809590958E0F9F1F0895DC0101C077
S11316D06D9341505040E0F70895FC016150704013
S11316E001900110D8F7809590958E0F9F1F089553
S11316F00F931F93CF93DF93FB01238121FD03C03D
S11317008FEF9FEF2CC022FF16C0468157812481A2
S113171035814217530744F4A081B1819D012F5FA5
S11317203F4F318320838C93268137812F5F3F4F36
S11317303783268314C08B01EC01FB010084F185FF
S1131740E02D1995892BE1F6D80116968D919C917F
S11317501797019617969C938E931697CE01DF9157
S1131760CF911F910F910895FA01AA27283051F1C2
S1131770203181F1E8946F936E7F6E5F7F4F8F4FBE
S11317809F4FAF4FB1E03ED0B4E03CD0670F781F1D
S1131790891F9A1FA11D680F791F8A1F911DA11D02
S11317A06A0F711D811D911DA11D20D009F468943B
S11317B03F912AE0269F11243019305D3193DEF6E3
S11317C0CF010895462F4770405D4193B3E00FD099
S11317D0C9F7F6CF462F4F70405D4A3318F0495D84
S11317E031FD4052419302D0A9F7EACFB4E0A69567
S11317F09795879577956795BA95C9F70097610589
S1131800710508959B01AC010A2E069457954795DE
S113181037952795BA95C9F7620F731F841F951FD3
S10B1820A01D0895F894FFCF08
S11318280000BC0220007D000AD7A33C0AD7233D50
S11318380AD7233CF80A0A0D63616C696272617401
S1131848696F6E20646F6E652C206D6178206C65FD
S113185866742076616C75653A2025692C206D6163
S1131868782072696768742076616C75653A2025FA
S1131878690A0D00657272203D20307825780A0DBA
S11318880073656E6474000A0A0A0A0A20626567AE
S1131898696E212121200A0D0063616C69627261FD
S11318A87465696E670A0D00726563616C696272BA
S10F18B861746520646F6E65200A0D00E9
S9030000FC
