S01600006279676765726E5F6E6F64655F312E737265638B
S11300000C94BB030C94BE060C94D8030C94D80334
S11300100C94D8030C94D8030C94D8030C94670460
S11300200C94D8030C94D8030C94D8030C94D803E0
S11300300C94D8030C94D8030C94D8030C94D803D0
S11300400C94D8030C943D040C94D8030C94D8035A
S11300500C94D8030C94D8030C94D8030C94D803B0
S11300600C94D8030C94D8030C94D8030C94D803A0
S113007062057205B3050406FF0534064106000057
S1130080000000000000000000000000000000006C
S1130090000000000000000000000000000000005C
S11300A0000000000000000000000000000000004C
S11300B00000000000E0F0F0F8F8F8FCFCFEFFFFA0
S11300C0FFFFFFFFFFFFFFFFFFFFFFFFFFFFFFFF3C
S11300D0FFFFFEFEFCFCF8F0F0E0C0C080800000F2
S11300E0000000000000000000000000000000000C
S11300F000000000000000000000000000000000FC
S113010000000000000000000000000000000000EB
S113011000000000000000000000000000000000DB
S113012000000000000000000000000000000000CB
S113013000000028FFFFFFFFFFFFFFFFFFFFFF7F1F
S11301407F7FFFFFFFFFFFFFFFFFFFFFFFFFFFFFBB
S1130150FFFFFFFFFFFFFFFFFFFFFFFFFFFFFFFEAC
S1130160FCF8F0F0C0C080000000000000000000B7
S1130170000000000000000000000000000000007B
S1130180000000000000000000000000000000006B
S1130190000000000000000000000000000000005B
S11301A0000000000000000000000000000000004B
S11301B0000000007FFFFFFFFFFFFFFFFFF82000AC
S11301C0400082020000040505252727276F6F6F72
S11301D06FEFDFDFFFFFFFFFFFFFFFFFFFFFFFFF0B
S11301E0FFFFFFFFFFFFFFFFFFFEF8F0E0C080000E
S11301F000000000000000000000000000000000FB
S113020000000000000000000000000000000000EA
S113021000000000000000000000000000000000DA
S113022000000000000000000000000000000000CA
S113023000000000207FFFFFFFFFFFFFFFFFFEF035
S1130240FC03000000000000000088C8FCFCFCFE69
S1130250FEFEFEFFFFFFFFFFFFFFFFFFFFDFDF9F4D
S11302603F3F7FFFFFFFFFFFFFFFFFFFFFFFFFFF9A
S1130270FCF0E0800000000000000000000000002E
S1130280000000000000000000000000000000006A
S1130290000000000000000000000000000000005A
S11302A0000000000000000000000000000000004A
S11302B00000000000000003071F7FFFFFFFFFFF97
S11302C0F9180000000018FCFEFFFFFFFFFFFFFF0E
S11302D0FFFFFFFFF7C30783C3C3E3F3F3F3FFFF9A
S11302E0FF7C00000001030F1F7FFFFFFFFFFFFFE4
S11302F0FFFFFFFF100000000000000000000000EE
S113030000000000000000000000000000000000E9
S113031000000000000000000000000000000000D9
S113032000000000000000000000000000000000C9
S113033000000000000000000000000001030301B1
S1130340000000800000000001C3FFFFFFFFFFFF6B
S1130350FFFFFFFFFFFFE083FFFFFFFFFF7F1F0F94
S11303600300000000000000000001FFFFFFFFFF8A
S1130370FF3F0F010000000000000000000000002B
S11303800000000000000000000000000000000069
S11303900000000000000000000000000000000059
S11303A00000000000000000000000000000000049
S11303B00000000000000000000000000000000039
S11303C000000000000000020207070F0F0F1F1FAC
S11303D03F7F7FFFFFFFFFFFFFFF1F0701000000BC
S11303E00000000000000000C0603C1F1F0F070356
S11303F001000000000000000000000000000000F8
S113040000000000000000000000000000000000E8
S113041000000000000000000000000000000000D8
S113042000000000000000000000000000000000C8
S113043000000000000000000000000000000000B8
S113044000000000000000000000000000000000A8
S1130450000000000001010103030000000000008F
S11304600000000000000001000000000000000087
S11304700000000000000000000000000000000078
S113048000000000000000065F5F06000000000797
S1130490070007070000147F7F147F7F1400242EB9
S11304A06B6B3A120000466630180C666200307AB4
S11304B04F5D377A48000407030000000000001C69
S11304C03E63410000000041633E1C000000082A16
S11304D03E1C1C3E2A0808083E3E0808000000A0F6
S11304E0E060000000000808080808080000000098
S11304F06060000000006030180C060301003E7FBD
S1130500594D7F3E000042427F7F404000006273AD
S113051059496F660000226349497F360000181C60
S113052016137F7F1000276745457D3900003C7E08
S11305304B4979300000036371190F070000367FBF
S113054049497F360000064F49693F1E00000000FC
S11305506C6C0000000000A0EC6C00000000081CA3
S113056036634100000014141414141400000041F4
S113057063361C080000020351590F0600003E7F39
S1130580415D5D1F1E007C7E13137E7C0000417F55
S11305907F49497F36001C3E634141632200417F0D
S11305A07F41637F1C00417F7F495D416300417F40
S11305B07F491D0103001C3E6341517372007F7F1C
S11305C008087F7F000000417F7F410000003070F9
S11305D040417F3F0100417F7F081C776300417FDA
S11305E07F41406070007F7F060C067F7F007F7F25
S11305F0060C187F7F001C3E6341633E1C00417F54
S11306007F49090F06001E3F21717F5E0000417F74
S11306107F19396F460026674D597B32000003412C
S11306207F7F410300007F7F40407F7F00001F3FAA
S113063060603F1F00007F7F3018307F7F0063774A
S11306401C081C776300074F78784F070000677316
S1130650594D47637100007F7F4141000000010351
S1130660060C183060000041417F7F000000080C38
S11306700603060C08008080808080808080000053
S1130680030704000000207454543C784000413FA8
S11306907F44447C3800387C44446C280000307823
S11306A048493F7F4000387C54545C180000487E21
S11306B07F490302000098BCA4A4F87C0400417F95
S11306C07F08047C780000447D7D4000000040C425
S11306D084FD7D000000417F7F10386C44000041A0
S11306E07F7F400000007C7C0C180C7C78007C7CB4
S11306F004047C780000387C44447C38000084FC8A
S1130700F8A4243C1800183C24A4F8FC8400447C7D
S113071078441C180000485C5454742400000004FD
S11307203E7F442400003C7C40403C7C40001C3C18
S113073060603C1C00003C7C6030607C3C00446C8D
S11307403810386C44009CBCA0A0FC7C00004C64B5
S1130750745C4C64000008083E77414100000000CE
S11307600077770000004141773E0808000002034B
S113077001030203010011241FBECFEFD4E0DEBF4A
S1130780CDBF13E0A0E0B1E0ECE2F0E202C00590DE
S11307900D92AE33B107D9F723E0AEE3B3E001C065
S11307A01D92A836B207E1F70E9407040C941410B6
S11307B00C940000CF93DF93CDB7DEB72A970FB622
S11307C0F894DEBF0FBECDBF1982CE0101960E9400
S11307D0F7048981803119F0813149F00FC00E94FA
S11307E05806823059F483E00E94550607C00E94DF
S11307F05806863019F484E00E9455062A960FB6EE
S1130800F894DEBF0FBECDBFDF91CF910895F89469
S11308108FE190E00E941B0888EA91E09F938F93F8
S11308200E94D00B8D9A0E94E2070E940A080E943F
S1130830D8080E9499048EEB91E09F938F930E94B5
S1130840D00B0E94BD0A0E94980878940E94010867
S113085084ED91E09F938F930E94D00B0F900F90A3
S11308600F900F900F900F900E94DA030E94B5072B
S11308700E9442050E94E409F7CF1F920F920FB61F
S11308800F9211242F933F934F935F936F937F9312
S11308908F939F93AF93BF93EF93FF9382EE91E077
S11308A09F938F930E94D00B0F900F90FF91EF9125
S11308B0BF91AF919F918F917F916F915F914F9174
S11308C03F912F910F900FBE0F901F9018951F927C
S11308D00F920FB60F9211240F900FBE0F901F901E
S11308E0189530980895843040F4846080930014FF
S11308F02899FECF8091001408958FEF08958258AF
S11309009F4FFC0184910895E62FF0E0EE0FFF1F46
S1130910EE0FFF1FEE0FFF1FE258FC4FDC019C019E
S1130920285F3F4F94919D933196A217B307D1F757
S113093008950E94CC070E948A0640E86FEF8FE07A
S11309400E9492064FEF60E680E60E94920641E024
S113095061E08BE20E94920640E060EE8FE00E942C
S113096092068A988BB780648BBF08950F931F9368
S1130970CF938C01FC01608166956695669581E351
S11309800E947606F8016081F0E26F9FB0011124A5
S113099082E30E947606F801618185E30E9476066F
S11309A0F80180811F928F9380EF91E09F938F9342
S11309B00E94D00B0F900F900F900F90F80181813F
S11309C0882371F0C0E0F801EC0FF11D628186E329
S11309D08C0F0E947606CF5FF8018181C81798F3C7
S11309E080E00E94AC06CF911F910F9108950F9360
S11309F01F93CF938C018CE20E94640680FF37C062
S1130A0081E60E946406C82F82E60E946406CC0F29
S1130A10CC0FCC0F8295869587708C2BF801808340
S1130A201F928F938DE092E09F938F930E94D00B3F
S1130A3085E60E9464068F70F80181830F900F9001
S1130A400F900F90882371F0C0E086E68C0F0E940F
S1130A506406F801EC0FF11D8283CF5FF8018181F8
S1130A60C81798F340E061E08CE20E949206CF91AF
S1130A701F910F91089585B7806885BF80B7806204
S1130A8080BF0895CF92DF92EF92FF920F931F934E
S1130A90CF93DF93CDB7DEB7A8970FB6F894DEBF38
S1130AA00FBECDBF82E080934E03E09141038E2FB1
S1130AB090E08730910508F0E9C0FC01E85CFF4F45
S1130AC00C946B0BE4E4F3E0118210821382128223
S1130AD015821482178216821186108684E0809310
S1130AE04103D4C01092400310923F0340E060E001
S1130AF082E392E00E942E0803E010E00F2EFEE451
S1130B00CF2EF2E0DF2EF02D7E012BE0E20EF11C61
S1130B101F930F93DF92CF92FF92EF920E94E60B06
S1130B2040E063E0C7010E942E080E94B5073FEF32
S1130B308FEF9EE0315080409040E1F700C000000C
S1130B40015011090F900F900F900F900F900F907C
S1130B50F9F60E94E7068EE493E00E94B60482E070
S1130B608093410393C00E946009809140038F9356
S1130B7080913F038F9382E492E09F938F938E0141
S1130B80065E1F4F1F930F930E94E60B40E061E047
S1130B90C8010E942E08E4E4F3E081818F938081F0
S1130BA08F938EE492E09F938F930F5011091F93BC
S1130BB00F930E94E60B40E064E081E592E00E941E
S1130BC02E0840E065E0C8010E942E0880913E0393
S1130BD08F5F80933E030FB6F894DEBF0FBECDBF88
S1130BE0853108F453C080913F03909140030196EE
S1130BF09093400380933F0310923E0347C00E94AA
S1130C0085090E94930842C060913F03709140039C
S1130C10E4E4F3E04EE453E020E0A0E030E0FF241D
S1130C20F394213039F490818181A0833183A92FF9
S1130C30382F0CC0808191818617970738F42111D1
S1130C4005C071836083A82F392F2F2D32964E173C
S1130C505F0739F71092400310923F030E944C0B38
S1130C6084E08093410312C088E089838B8381E010
S1130C708A83CE0101960E94B60486E080934103E4
S1130C8005C00E944C0B84E080934103A8960FB6E4
S1130C90F894DEBF0FBECDBFDF91CF911F910F91AE
S1130CA0FF90EF90DF90CF900895809341030895D3
S1130CB0809141030895E82FF0E0EE0FFF1FEC5BF5
S1130CC0FC4F808191810895CF93C82F0E94DE0745
S1130CD083E00E94D4078C2F0E94D4070E94D80777
S1130CE0C82F0E94E0078C2FCF910895CF93DF93F4
S1130CF0D82FC62F0E94DE0782E00E94D4078D2FD2
S1130D000E94D4078C2F0E94D4070E94E007DF9131
S1130D10CF9108950E94DE0780EC0E94D4070E94C0
S1130D20E00708951F93CF93DF93182FD62FC42F76
S1130D300E94DE0785E00E94D407812F0E94D40719
S1130D408D2F0E94D4078C2F0E94D4070E94E007A5
S1130D50DF91CF911F910895CF93C82F0E94DE0792
S1130D6081E090E002C0880F991FCA95E2F780687D
S1130D700E94D4070E94E007CF9108951F920F921A
S1130D800FB60F9211240F900FBE0F901F9018955D
S1130D90E091001CF0E0F096F695FE2FEE27F79513
S1130DA0E795E60FF11D80830895CF93DF93D82F45
S1130DB08093001CC0E06C2F80E00E94C806CF5FC7
S1130DC0C038C9F7D093001CDF91CF910895CF9319
S1130DD0C0E08C2F0E94D506CF5FC830D1F71092A7
S1130DE0001CCF910895CF92DF92EF92FF920F9360
S1130DF01F93CF93DF93CDB7DEB728970FB6F89440
S1130E00DEBF0FBECDBF062F142F682FCE01019673
S1130E100E9484040130B1F4110F110F110FCE019F
S1130E2001967C016E0199E0C90ED11CF7018191F4
S1130E307F01612F80950E94C8061F5FCE14DF04D6
S1130E40A9F714C0110F110F110FCE0101967C01E7
S1130E506E0199E0C90ED11C612FF70181917F01C8
S1130E600E94C8061F5FEC14FD04B1F728960FB664
S1130E70F894DEBF0FBECDBFDF91CF911F910F91CC
S1130E80FF90EF90DF90CF9008950F931F93CF932F
S1130E90DF93E0E0F0E181E2808310828FE78083DA
S1130EA082E28083108287E08083C0E0D0E000E0AB
S1130EB012E1CE010E947F04F80180832196C115BE
S1130EC0F4E0DF07B1F7DF91CF911F910F910895FF
S1130ED0E0E0F0E18EEA808381EA80838AED80831A
S1130EE082E1808388EC808380E28083108288EAB8
S1130EF080838FE3808385ED808380E880838BED1E
S1130F00808380E3808381E8808380E5808389ED2A
S1130F10808381E280838DEA8083108284EA8083E7
S1130F2086EA80838FEA80830E94E70608950F9300
S1130F301F93CF93DF93FC018081882389F0D62F00
S1130F408F010F5F1F4FC0E04C2F6D2F0E94F306DF
S1130F50F80181918F01882319F0CF5FC031A1F787
S1130F60DF91CF911F910F910895E0E0F0E181E2CC
S1130F70808310828FE7808382E28083108287E0FF
S1130F808083E0E0F8E1A0E0B2E181918C93E11587
S1130F908CE1F807D1F7089587B3806B87BBBE98BF
S1130FA08DB181658DB908958FB9779BFECF089572
S1130FB08AEA8FB9779BFECF8FB10895C4980895BC
S1130FC0C49A089582E089BF12BE8FB583648FBD31
S1130FD08FB58F778FBD8EB588618EBDEBE8F0E05D
S1130FE080818C738083EAE8F0E080818F7E808347
S1130FF0808188608083EDE7F0E080818061808378
S11310000895EAE8F0E080818460808380818C7FA9
S113101080830895EAE8F0E08081887F80830895E2
S11310205D9BFECF8CB980E090E008955F9BFECF7E
S11310308CB190E0089590BD89B988E98AB98EE8A9
S113104080BD66E178E080E198E00E94850B909392
S113105059038093580380E090E008951F93CF9341
S1131060DF93EC01862F142F0E94D506612FCE0149
S11310700E949707DF91CF911F910895CF93E0913C
S11310805A03F0915B0340E060E0808191810E940B
S11310902E08A0915A03B0915B0350968C915097FF
S11310A08823B9F1C1E001C0C92F8FEF8C0F909153
S11310B04303981312C0892F90E00196880F991F5B
S11310C0FD01E80FF91F0190F081E02D41E06C2F44
S11310D0808191810E942E0810C0E82FF0E03196A3
S11310E0EE0FFF1FEA0FFB1F0190F081E02D40E09F
S11310F06C2F808191810E942E08A0915A03B09197
S11311005B0391E09C0F50968C915097C81760F246
S113111001C0C0E062E06C0F40E08EEE91E00E94FE
S11311202E08CF9108950E94E7060E943E08089574
S1131130E6E9F1E0F0935B03E0935A038281938143
S113114090935D0380935C030E9493080895843018
S113115091F420914303422F50E0E0915A03F0911F
S11311605B03808990E00197481759076CF42F5F5F
S11311702093430309C0833039F4809143038823C7
S113118019F081508093430320915A0330915B03FB
S113119080914303E82FF0E03196EE0FFF1FE20F3A
S11311A0F31F8081918190935D0380935C03089584
S11311B00E943B050E9471040E94680787B3876000
S11311C087BBC29A0895CF9380E00E947304C82F0E
S11311D081E00E947304282FCC23A4F44C2F50E008
S11311E04F57510984E6849FB001859F700D1124E7
S11311F0772314F461587F4F660F672F661F770BB0
S1131200462F13C0CF3780F44C2F50E04F5751096D
S113121034E6349FC001359F900D11246FE770E0D0
S11312200E94570B462F01C040E022239CF430E07B
S11312302F57310984E6829FB001839F700D1124DA
S1131240772314F461587F4F660F672F661F770B5F
S1131250762F12C02F3778F430E02F57310954E637
S1131260529FC001539F900D11246FE770E00E94BC
S1131270570B762F01C070E0642F80E0CF91089562
S11312800E94E3086E3C14F481E00895633314F083
S113129082E008957E3C14F484E00895733314F0DE
S11312A083E0089580E00895CF9383E00E9473045F
S11312B0C82F82E00E947304982F8C2FCF91089539
S11312C0CF93DF93CDB7DEB72A970FB6F894DEBF7E
S11312D00FBECDBF0E94540936B326B341E0498303
S11312E044E04A838B839C8332703D8321702E8338
S11312F0CE0101960E94B6042A960FB6F894DEBF7A
S11313000FBECDBFDF91CF9108950E944009909107
S11313104203911154C0823071F118F4813099F074
S11313200895833049F0843009F04DC00E94A70825
S113133081E080934203089583E00E94A70881E03E
S1131340809342030895E0915A03F0915B038685EC
S113135097850097C1F1F0935D03E0935C0390934C
S11313605B0380935A03109243030E94930881E025
S113137080934203089520915A0330915B03809136
S11313804303E82FF0E03196EE0FFF1FE20FF31F47
S11313900190F081E02D3097B1F0F0935B03E0937E
S11313A05A038281938190935D0380935C0310922E
S11313B043030E94930881E08093420308958111BE
S11313C002C01092420308958F929F92AF92BF92EF
S11313D0CF92DF92EF92FF920F931F93CF93DF93FD
S11313E0CDB7DEB7CB54D1090FB6F894DEBF0FBE2C
S11313F0CDBFE0915A03F0915B038189823099F06B
S113140028F4882351F0813059F0A1C08430B1F020
S1131410C0F0883009F48FC09AC00E94930899C024
S11314200E94930896C00E945806843009F091C027
S11314300E94930881E00E9455068BC00E94930885
S113144088C00E94930880E00E945B069F938F935C
S113145080E692E09F938F935E018DE3A80EB11C0A
S1131460BF92AF920E94E60B81E00E945B069F93BD
S11314708F9388E692E09F938F936E019EE2C90E4C
S1131480D11CDF92CF920E94E60B82E00E945B06A1
S11314909F938F9380E792E09F938F937E018FE1D8
S11314A0E80EF11CFF92EF920E94E60B83E00E948B
S11314B05B069F938F9388E792E09F938F938E01AF
S11314C0005F1F4F1F930F930E94E60B84E00E945E
S11314D05B069F938F9380E892E09F938F93CE0156
S11314E001964C019F938F930E94E60B40E060E0CD
S11314F088E892E00E942E0840E062E0C5010E9464
S11315002E0840E063E0C6010E942E0840E064E03B
S1131510C7010E942E0840E065E0C8010E942E0821
S113152040E066E0C4010E942E080FB6F894DEBFC6
S11315300FBECDBF0EC00E945806853051F00E94E8
S11315405806863031F085E00E94550602C00E949C
S11315509308C55BDF4F0FB6F894DEBF0FBECDBF57
S1131560DF91CF911F910F91FF90EF90DF90CF907B
S1131570BF90AF909F908F900895CF93DF93CDB796
S1131580DEB764970FB6F894DEBF0FBECDBF0E94DE
S1131590E70640E060E084E992E00E942E0840E023
S11315A061E08DE992E00E942E0840E062E08CEA5E
S11315B092E00E942E0840E063E087EB92E00E94F4
S11315C02E0840E064E085EC92E00E942E0840E0A2
S11315D065E08FEC92E00E942E088CEC94E0019779
S11315E0F1F700C000000E94B5070E94B5079FEF05
S11315F02FEF8CE2915020408040E1F700C000C002
S11316000E94E7060E94450789E08B878D8781E069
S11316108C87CE010B960E94B6049FEF2FE781E0E2
S1131620915020408040E1F700C000C0CE010196F7
S11316300E94F70489818B3051F09FEF2FE781E0FE
S1131640915020408040E1F700C000C0E2CF9FEFFE
S11316502FE781E0915020408040E1F700C000C0B6
S11316608FED92E09F938F930E94D00B9FEF2FEF0B
S11316708DE1915020408040E1F700C000000E94BD
S1131680E7060F900F9064960FB6F894DEBF0FBE76
S1131690CDBFDF91CF910895E0915A03F0915B03A0
S11316A08685978590935B0380935A03089597FBEF
S11316B0072E16F4009407D077FD09D00E94710B11
S11316C007FC05D03EF4909581959F4F0895709541
S11316D061957F4F0895EE0FFF1F0590F491E02D63
S11316E00994AA1BBB1B51E107C0AA1FBB1FA61765
S11316F0B70710F0A61BB70B881F991F5A95A9F7B7
S113170080959095BC01CD0108950F931F93CF93BD
S1131710DF93009731F46115710519F480E090E0CE
S11317203AC08B01EC016EE070E081E090E00E9431
S1131730E90DFC01892B91F380E8838301151105E0
S113174071F01387028781E8838380915E0390910F
S11317505F03892B21F4F0935F03E0935E032097EA
S1131760C9F0D187C08783818260838380916003BD
S113177090916103892B71F4F0936103E09360030A
S11317808091620390916303892B21F4F0936303A6
S1131790E0936203CF01DF91CF911F910F910895E0
S11317A0A0E0B0E0E6EDFBE00C94ED0FAE014B5F82
S11317B05F4FFA0161917191AF0180916003909143
S11317C061030E94080CE2E00C940910AEE0B0E062
S11317D0ECEEFBE00C94EB0F0D891E8986E08C8304
S11317E01A8309838FEF9FE79E838D83AE01475E43
S11317F05F4F6F89788DCE0101960E94080CEF81AE
S1131800F885E00FF11F10822E96E4E00C94071087
S1131810ABE0B0E0EEE0FCE00C94DD0F6C017B018A
S11318208A01FC0117821682838181FFCCC1CE011B
S113183001963C01F6019381F70193FD859193FF95
S113184081917F01882309F4BAC1853239F493FD6B
S1131850859193FF81917F01853229F4B60190E04F
S11318600E94430FE7CF912C212C312CFFE1F3157B
S1131870D8F08B3279F038F4803279F08332A1F4E5
S1131880232D20611DC08D3261F0803369F4232D36
S1131890216016C0832D8260382EE32DE4603E2E35
S11318A02AC0F32DF8601DC037FC2DC020ED280F91
S11318B02A3040F08E32B9F436FC81C1232D2064E5
S11318C0322E19C036FE06C08AE0989E200D1124DF
S11318D0922E11C0EAE02E9E200D1124222EF32D0B
S11318E0F0623F2E08C08C3621F4832D8068382E98
S11318F002C0883641F4F70193FD859193FF8191ED
S11319007F018111B3CF982F9F7D9554933028F494
S11319100C5F1F4F9FE399830DC0833631F08337EB
S113192071F0833509F059C021C0F80180818983A1
S11319300E5F1F4F88248394912C530113C02801F8
S1131940F2E04F0E511CF801A080B18036FE03C0B6
S1131950692D70E002C06FEF7FEFC5010E94380F60
S11319604C018201F32DFF773F2E16C0280122E09F
S1131970420E511CF801A080B18036FE03C0692DCF
S113198070E002C06FEF7FEFC5010E94260F4C018B
S1131990F32DF0683F2E820133FC1BC0822D90E0B2
S11319A088169906B0F4B60180E290E00E94430FD5
S11319B02A94F4CFF50137FC859137FE81915F01BC
S11319C0B60190E00E94430F21102A9421E0821A6C
S11319D091088114910471F7E8C0843611F08936B6
S11319E041F5F80137FE07C06081718182819381DE
S11319F00C5F1F4F08C060817181072E000C880B9B
S1131A00990B0E5F1F4FF32DFF763F2E97FF09C0F2
S1131A1090958095709561957F4F8F4F9F4FF0689B
S1131A203F2E2AE030E0A3010E947F0F882E861803
S1131A3045C0853731F4232D2F7EB22E2AE030E0C5
S1131A4025C0932D997FB92E8F36C1F018F48835AF
S1131A5079F0B5C0803719F0883721F0B0C0E92F8C
S1131A60E061BE2EB4FE0DC0FB2DF460BF2E09C094
S1131A7034FE0AC0292F2660B22E06C028E030E0CA
S1131A8005C020E130E002C020E132E0F801B7FEF9
S1131A9007C060817181828193810C5F1F4F06C0F2
S1131AA06081718180E090E00E5F1F4FA3010E946E
S1131AB07F0F882E8618FB2DFF773F2E36FE0DC034
S1131AC0232D2E7FA22E891458F434FE0BC032FC31
S1131AD009C0832D8E7EA82E05C0B82CA32C03C06C
S1131AE0B82C01C0B92CA4FE0FC0FE01E80DF11DF5
S1131AF08081803321F49A2D997EA92E09C0A2FEFB
S1131B0006C0B394B39404C08A2D867809F0B394C4
S1131B10A3FC11C0A0FE06C0B21488F4280C922CB9
S1131B209B180EC0B21460F4B60180E290E00E94EB
S1131B30430FB394F7CFB21418F42B1802C0982CA7
S1131B40212CA4FE10C0B60180E390E00E94430F54
S1131B50A2FE17C0A1FC03C088E790E002C088E59C
S1131B6090E0B6010CC08A2D867859F0A1FE02C01F
S1131B708BE201C080E2A7FC8DE2B60190E00E94F6
S1131B80430F891438F4B60180E390E00E94430FB8
S1131B909A94F7CF8A94F301E80DF11D8081B60180
S1131BA090E00E94430F8110F5CF222009F442CE29
S1131BB0B60180E290E00E94430F2A94F6CFF6012A
S1131BC08681978102C08FEF9FEF2B96E2E10C9400
S1131BD0F90F0F931F93CF93DF93869F8001879F05
S1131BE0100D969F100D1124C8010E94050EEC01E2
S1131BF0009729F0A80160E070E00E94310FCE0147
S1131C00DF91CF911F910F9108950F931F93CF935D
S1131C10DF938230910510F482E090E0E091660356
S1131C20F091670320E030E0A0E0B0E0309719F1D4
S1131C30408151810281138148175907C8F08417E4
S1131C40950769F4109731F012960C931297139636
S1131C501C9327C0009366031093670322C02115C9
S1131C60310519F04217530718F49A01BD01EF0129
S1131C70DF01F801DBCF21153105F9F0281B390B01
S1131C802430310580F48A819B816115710521F02E
S1131C90FB019383828304C090936703809366035C
S1131CA0FE01329644C0FE01E20FF31F819391932B
S1131CB022503109398328833AC02091640330913A
S1131CC06503232B41F420910201309103013093E9
S1131CD065032093640320910001309101012115D3
S1131CE0310541F42DB73EB74091040150910501EF
S1131CF0241B350BE0916403F0916503E217F307AD
S1131D00A0F42E1B3F0B2817390778F0AC014E5F67
S1131D105F4F2417350748F04E0F5F1F509365033C
S1131D20409364038193919302C0E0E0F0E0CF011B
S1131D30DF91CF911F910F910895CF93DF93009777
S1131D4009F481C0FC01329713821282A0916603C8
S1131D50B0916703109781F420813181820F931F22
S1131D6020916403309165032817390751F5F093E6
S1131D706503E093640367C0ED0120E030E0CE1713
S1131D80DF0740F44A815B819E0141155105F1F062
S1131D90EA01F5CFD383C28340815181840F951F1B
S1131DA0C817D90759F488819981840F951F029621
S1131DB0918380838A819B8193838283211531055A
S1131DC029F4F0936703E09366033DC0E901FB83C4
S1131DD0EA8349915991C40FD51FEC17FD0761F4AB
S1131DE080819181840F951F0296E90199838883EC
S1131DF0828193819B838A83E0E0F0E012968D9147
S1131E009C911397009719F0FD01DC01F7CF8D9198
S1131E109C9111979D012E5F3F4F820F931F20913C
S1131E206403309165032817390769F4309729F45E
S1131E30109267031092660302C013821282B09359
S1131E406503A0936403DF91CF910895FC0105908D
S1131E50615070400110D8F7809590958E0F9F1FA8
S1131E600895DC0101C06D9341505040E0F708959E
S1131E70FC016150704001900110D8F78095909555
S1131E808E0F9F1F08950F931F93CF93DF93FB0132
S1131E90238121FD03C08FEF9FEF2CC022FF16C0CA
S1131EA046815781248135814217530744F4A08128
S1131EB0B1819D012F5F3F4F318320838C93268115
S1131EC037812F5F3F4F3783268314C08B01EC018A
S1131ED0FB010084F185E02D0995892BE1F6D801F9
S1131EE016968D919C911797019617969C938E93B5
S1131EF01697CE01DF91CF911F910F910895FA01AA
S1131F00AA27283051F1203181F1E8946F936E7F34
S1131F106E5F7F4F8F4F9F4FAF4FB1E03ED0B4E025
S1131F203CD0670F781F891F9A1FA11D680F791F66
S1131F308A1F911DA11D6A0F711D811D911DA11D77
S1131F4020D009F468943F912AE0269F1124301987
S1131F50305D3193DEF6CF010895462F4770405D22
S1131F604193B3E00FD0C9F7F6CF462F4F70405DD1
S1131F704A3318F0495D31FD4052419302D0A9F72C
S1131F80EACFB4E0A6959795879577956795BA9526
S1131F90C9F700976105710508959B01AC010A2EEC
S1131FA006945795479537952795BA95C9F7620FC3
S1131FB0731F841F951FA01D08952F923F924F9267
S1131FC05F926F927F928F929F92AF92BF92CF92C5
S1131FD0DF92EF92FF920F931F93CF93DF93CDB7CE
S1131FE0DEB7CA1BDB0B0FB6F894DEBF0FBECDBF46
S1131FF009942A88398848885F846E847D848C8417
S11320009B84AA84B984C884DF80EE80FD800C811F
S11320101B81AA81B981CE0FD11D0FB6F894DEBF02
S10F20200FBECDBFED010895F894FFCF72
S113202C000068032000EE02000000000000000025
S113203C0000000084010008FA0200000000000007
S113204C00000000000060010007FF020000000017
S113205C0000000000000000600100060603000000
S113206C00000000000000000000600100050B03EC
S113207C00000000000000000000000096010003B6
S113208C15033C012A011801000000000000840122
S113209C0304200300000000000000000000000006
S11320AC960100022A0360010601000000000000F2
S11320BC0000960102013303720184014E010000F9
S11320CC00000000000003000A0A0D7374617274AE
S11320DC206F662070726F6772616D0A0D000A0DB5
S11320EC77616974696E67206F6E206E6F6465200A
S11320FC310A0D000A0D696E697420646F6E650AED
S113210C0D0074696D657220302074657374200041
S113211C53454E44542056414C4944204D45535349
S113212C4147452069643A2025750A0D0056414CF7
S113213C4944204D455353414745207265636965B5
S113214C76656420776974682069643A2025750A79
S113215C0D0047414D452053544152545320494E90
S113216C3A00594F55522053434F52453A20257546
S113217C00484947484553542053434F52453A006D
S113218C3173743A20257500326E643A202575003B
S113219C3372643A202575003474683A202575002E
S11321AC3574683A202575004849474853434F52C3
S11321BC45533A0057656C636F6D65210057652074
S11321CC6172652077616974696E6700666F72204D
S11321DC4E6F64652032005768696C6520776169BD
S11321EC74696E6700766965772074686973006238
S11321FC656175746966756C204C756E6465004810
S113220C616E647368616B6520646F6E6500526502
S113221C63616C6962726174650048617264004D3B
S113222C656469756D004561737900486967687305
S113223C636F726500446966666963756C747900D2
S113224C506C61792067616D650053657474696EB7
S111225C6773004D61696E206D656E7500003C
S9030000FC
