S01600006279676765726E5F6E6F64655F312E737265638B
S11300000C94BC010C9492020C94D9010C94D90167
S11300100C94D9010C94D9010C94D9010C940E02BE
S11300200C94D9010C94D9010C94D9010C94D901E4
S11300300C94D9010C94D9010C94D9010C94D901D4
S11300400C94D9010C94E6010C94D9010C94D901B7
S11300500C94D9010C94D9010C94D9010C94D901B4
S11300600C94D9010C94D9010C94D9010C94D901A4
S1130070E8D8B87F7FB8D8E8E8D8B87F7FB8D8E8A0
S1130080000000000000000000065F5F06000000A2
S11300900007070007070000147F7F147F7F140008
S11300A0242E6B6B3A120000466630180C66620010
S11300B0307A4F5D377A48000407030000000000DF
S11300C0001C3E63410000000041633E1C00000030
S11300D0082A3E1C1C3E2A0808083E3E0808000068
S11300E000A0E060000000000808080808080000FC
S11300F000006060000000006030180C060301007E
S11301003E7F594D7F3E000042427F7F40400000C9
S1130110627359496F660000226349497F360000C3
S1130120181C16137F7F1000276745457D39000092
S11301303C7E4B4979300000036371190F070000BE
S1130140367F49497F360000064F49693F1E00004B
S113015000006C6C0000000000A0EC6C00000000CB
S1130160081C366341000000141414141414000015
S1130170004163361C080000020351590F060000B9
S11301803E7F415D5D1F1E007C7E13137E7C00005C
S1130190417F7F49497F36001C3E63414163220011
S11301A0417F7F41637F1C00417F7F495D41630044
S11301B0417F7F491D0103001C3E6341517372005E
S11301C07F7F08087F7F000000417F7F410000009F
S11301D0307040417F3F0100417F7F081C776300FE
S11301E0417F7F41406070007F7F060C067F7F0067
S11301F07F7F060C187F7F001C3E6341633E1C001A
S1130200417F7F49090F06001E3F21717F5E000078
S1130210417F7F19396F460026674D597B320000B4
S113022003417F7F410300007F7F40407F7F0000C8
S11302301F3F60603F1F00007F7F3018307F7F00CA
S113024063771C081C776300074F78784F0700001A
S11302506773594D47637100007F7F41410000007F
S11302600103060C183060000041417F7F0000004C
S1130270080C0603060C0800808080808080808043
S11302800000030704000000207454543C7840002C
S1130290413F7F44447C3800387C44446C2800004F
S11302A0307848493F7F4000387C54545C18000043
S11302B0487E7F490302000098BCA4A4F87C040093
S11302C0417F7F08047C780000447D7D400000006D
S11302D040C484FD7D000000417F7F10386C4400E1
S11302E000417F7F400000007C7C0C180C7C78006F
S11302F07C7C04047C780000387C44447C38000016
S113030084FCF8A4243C1800183C24A4F8FC8400C1
S1130310447C78441C180000485C54547424000045
S113032000043E7F442400003C7C40403C7C400070
S11303301C3C60603C1C00003C7C6030607C3C00E9
S1130340446C3810386C44009CBCA0A0FC7C0000B9
S11303504C64745C4C64000008083E774141000022
S113036000000077770000004141773E0808000054
S1130370020301030203010011241FBECFEFD4E0E6
S1130380DEBFCDBF11E0A0E0B1E0ECE6FEE002C0CC
S113039005900D92A033B107D9F721E0A0E3B1E0B5
S11303A001C01D92A234B207E1F70E94DB010C9454
S11303B034070C9400008FE190E00E94F0030E9447
S11303C0C5030E94A1040E944C02FFCF1F920F920A
S11303D00FB60F9211242F933F934F935F936F9314
S11303E07F938F939F93AF93BF93EF93FF930E9459
S11303F09E030E941D050E947C05FF91EF91BF9111
S1130400AF919F918F917F916F915F914F913F91A8
S11304102F910F900FBE0F901F9018951F920F925F
S11304200FB60F9211240F900FBE0F901F901895C6
S113043030980895843040F484608093001428999F
S1130440FECF8091001408958FEF089520E1629FFC
S1130450F0011124E059FF4FDC019C01205F3F4F64
S113046094919D933196A217B307D1F70895E62F7F
S1130470F0E0EE0FFF1FEE0FFF1FEE0FFF1FE0581F
S1130480F040DC019C01285F3F4F94919D9331968D
S1130490A217B307D1F708950E94B5030E94700212
S11304A040E86FEF8FE00E9478024FEF60E680E64D
S11304B00E94780241E061E08BE20E94780240E011
S11304C060EE8FE00E9478028A988BB780648BBFBD
S11304D0089585B7806885BF80B7806280BF08951E
S11304E00E94C10380EC0E94BD030E94C3030895CF
S11304F01F93CF93DF93182FD62FC42F0E94C103CD
S113050085E00E94BD03812F0E94BD038D2F0E94B0
S1130510BD038C2F0E94BD030E94C303DF91CF91C2
S11305201F9108951F920F920FB60F9211240F90EE
S11305300FBE0F901F901895E091001CF0E0F0960C
S1130540F695FE2FEE27F795E795E60FF11D8083CC
S11305500895CF93DF93D82F8093001CC0E06C2FB5
S113056080E00E949C02CF5FC038C9F7D093001C82
S1130570DF91CF910895CF93C0E08C2F0E94A90200
S1130580CF5FC830D1F71092001CCF910895CF925D
S1130590DF92EF92FF920F931F93CF93DF93CDB728
S11305A0DEB728970FB6F894DEBF0FBECDBF062F77
S11305B0142F682FCE0101960E9437020130B1F446
S11305C0110F110F110FCE0101967C016E0199E0FC
S11305D0C90ED11CF70181917F01612F80950E9482
S11305E09C021F5FCE14DF04A9F714C0110F110F72
S11305F0110FCE0101967C016E0199E0C90ED11C48
S1130600612FF70181917F010E949C021F5FEC140E
S1130610FD04B1F728960FB6F894DEBF0FBECDBF28
S1130620DF91CF911F910F91FF90EF90DF90CF90CA
S11306300895CF92DF92FF920F931F93CF93DF938E
S1130640CDB7DEB760970FB6F894DEBF0FBECDBF4F
S1130650F62E682FCE0101960E942602FF0CFF0C95
S1130660FF0C8E010F5F1F4F6E0181E1C80ED11C7C
S1130670F80181918F016F2D80950E949C02F39463
S11306800C151D05A9F760960FB6F894DEBF0FBED2
S1130690CDBFDF91CF911F910F91FF90DF90CF904D
S11306A00895E0E0F0E18EEA808381EA80838AEDB8
S11306B0808382E1808388EC808380E2808310825F
S11306C088EA80838FE3808385ED808380E880835C
S11306D08BED808380E3808381E8808380E5808361
S11306E089ED808381E280838DEA8083108284EAAD
S11306F0808386EA80838FEA80830E94BB02089508
S11307000F931F93CF93DF93FC018081882389F09B
S1130710D62F8F010F5F1F4FC0E04C2F6D2F0E940B
S1130720C702F80181918F01882319F0CF5FC0318E
S1130730A1F7DF91CF911F910F910895E0E0F0E1CF
S113074081E2808310828FE7808382E2808310823B
S113075087E08083E0E0F8E1A0E0B2E181918C934E
S1130760E1158CE1F807D1F7089587B3806B87BB57
S1130770BE988DB181658DB908958FB9779BFECFF1
S11307800895C4980895C49A089582E089BF12BE5A
S113079083BF8FB583648FBD8FB58F778FBD8EB5C3
S11307A088618EBDEBE8F0E080818C738083EAE899
S11307B0F0E080818F7E8083808188608083EDE794
S11307C0F0E080818061808308955D9BFECF8CB9C9
S11307D080E090E008955F9BFECF8CB190E0089597
S11307E090BD89B988E98AB98EE880BD6BEE73E063
S11307F085EE93E00E94A505909333018093320126
S113080080E090E008951F93CF93DF93EC01862F4F
S1130810142F0E94A902612FCE010E948003DF9150
S1130820CF911F910895CF930E94BB02E0913401B0
S1130830F091350140E060E0808191810E940304E1
S1130840A0913401B091350150968C915097882332
S1130850B9F1C1E001C0C92F8FEF8C0F9091310124
S1130860981312C0892F90E00196880F991FFD01FB
S1130870E80FF91F0190F081E02D41E06C2F808199
S113088091810E94030410C0E82FF0E03196EE0F2E
S1130890FF1FEA0FFB1F0190F081E02D40E06C2F59
S11308A0808191810E940304A0913401B0913501AB
S11308B091E09C0F50968C915097C81760F201C03C
S11308C0C0E0CE5F40E06C2F86E091E00E9403041C
S11308D06C2F80E00E941903CF910895843091F425
S11308E020913101422F50E0E0913401F091350123
S11308F0808990E00197481759076CF42F5F209383
S1130900310109C0833039F480913101882319F011
S113091081508093310120913401309135018091CF
S11309203101E82FF0E03196EE0FFF1FE20FF31FC5
S11309308081918190933701809336010E94130442
S113094008950E9469020E9418020E94510387B30D
S1130950876087BBC29A0895CF9380E00E941A02F1
S1130960C82F81E00E941A02282FCC23A4F44C2F14
S113097050E04F57510984E6849FB001859F700D64
S11309801124772314F461587F4F660F672F661F75
S1130990770B462F13C0CF3780F44C2F50E04F57BE
S11309A0510934E6349FC001359F900D11246FE73F
S11309B070E00E947D05462F01C040E022239CF494
S11309C030E02F57310984E6829FB001839F700D78
S11309D01124772314F461587F4F660F672F661F25
S11309E0770B762F12C02F3778F430E02F57310968
S11309F054E6529FC001539F900D11246FE770E09D
S1130A000E947D05762F01C070E0642F80E0CF91B5
S1130A1008950E94AC046E3C14F481E0089563339D
S1130A2014F082E008957E3C14F484E00895733356
S1130A3014F083E0089580E008950E9409059091E0
S1130A403001911154C0823071F118F4813099F061
S1130A500895833049F0843009F04DC00E946E043B
S1130A6081E080933001089583E00E946E0481E068
S1130A70809330010895E0913401F0913501868529
S1130A8097850097C1F1F0933701E0933601909375
S1130A90350180933401109231010E94130481E0E6
S1130AA08093300108952091340130913501809173
S1130AB03101E82FF0E03196EE0FFF1FE20FF31F34
S1130AC00190F081E02D3097B1F0F0933501E0937F
S1130AD0340182819381909337018093360110927F
S1130AE031010E94130481E0809330010895811143
S1130AF002C0109230010895089597FB072E16F452
S1130B00009407D077FD09D00E94910507FC05D019
S1130B103EF4909581959F4F0895709561957F4F10
S1130B200895AA1BBB1B51E107C0AA1FBB1FA61730
S1130B30B70710F0A61BB70B881F991F5A95A9F782
S1130B4080959095BC01CD0108950F931F93CF9389
S1130B50DF93009731F46115710519F480E090E09A
S1130B603AC08B01EC016EE070E081E090E00E94FD
S1130B70F005FC01892B91F380E8838301151105AD
S1130B8071F01387028781E8838380913801909103
S1130B903901892B21F4F0933901E093380120972E
S1130BA0C9F0D187C08783818260838380913A01B1
S1130BB090913B01892B71F4F0933B01E0933A014E
S1130BC080913C0190913D01892B21F4F0933D01EA
S1130BD0E0933C01CF01DF91CF911F910F910895D4
S1130BE00F931F93CF93DF93869F8001879F100DF0
S1130BF0969F100D1124C8010E940C06EC01009769
S1130C0029F0A80160E070E00E942D07CE01DF9179
S1130C10CF911F910F9108950F931F93CF93DF935B
S1130C208230910510F482E090E0E0914001F0916F
S1130C30410120E030E0A0E0B0E0309719F14081BC
S1130C4051810281138148175907C8F08417950709
S1130C5069F4109731F012960C93129713961C9323
S1130C6027C0009340011093410122C02115310592
S1130C7019F04217530718F49A01BD01EF01DF017F
S1130C80F801DBCF21153105F9F0281B390B24308D
S1130C90310580F48A819B816115710521F0FB0186
S1130CA09383828304C09093410180934001FE01A9
S1130CB0329644C0FE01E20FF31F819391932250B8
S1130CC03109398328833AC020913E0130913F0194
S1130CD0232B41F4209102013091030130933F0111
S1130CE020933E012091000130910101211531052D
S1130CF041F42DB73EB74091040150910501241BE6
S1130D00350BE0913E01F0913F01E217F307A0F4A7
S1130D102E1B3F0B2817390778F0AC014E5F5F4F4D
S1130D202417350748F04E0F5F1F50933F0140933F
S1130D303E018193919302C0E0E0F0E0CF01DF91A6
S1130D40CF911F910F910895CF93DF93009709F4EA
S1130D5081C0FC01329713821282A0914001B091AC
S1130D604101109781F420813181820F931F2091DA
S1130D703E0130913F012817390751F5F0933F01A7
S1130D80E0933E0167C0ED0120E030E0CE17DF07BD
S1130D9040F44A815B819E0141155105F1F0EA015D
S1130DA0F5CFD383C28340815181840F951FC81727
S1130DB0D90759F488819981840F951F02969183EC
S1130DC080838A819B81938382832115310529F451
S1130DD0F0934101E09340013DC0E901FB83EA83C4
S1130DE049915991C40FD51FEC17FD0761F4808117
S1130DF09181840F951F0296E901998388838281EA
S1130E0093819B838A83E0E0F0E012968D919C911C
S1130E101397009719F0FD01DC01F7CF8D919C9198
S1130E2011979D012E5F3F4F820F931F20913E012A
S1130E3030913F012817390769F4309729F410924B
S1130E4041011092400102C013821282B0933F010B
S1130E50A0933E01DF91CF910895DC0101C06D9311
S10F0E6041505040E0F70895F894FFCF93
S1130E6C0000420120002000646966666963756CA9
S1130E7C747900506C61792067616D6500536574F9
S1130E8C74696E6773004D61696E206D656E7500D3
S9030000FC
