:100000000C94B4030C943F060C94D1030C94D103CC
:100010000C94D1030C94D1030C94D1030C9445049B
:100020000C94D1030C94D1030C94D1030C94D10300
:100030000C94D1030C94D1030C94D1030C94D103F0
:100040000C94D1030C943B040C94D1030C94D10375
:100050000C94D1030C94D1030C94D1030C94D103D0
:100060000C94D1030C94D1030C94D1030C94D103C0
:100070000000000000000000000000000000000080
:100080000000000000000000000000000000000070
:100090000000000000000000000000000000000060
:1000A00000000000000000E0F0F0F8F8F8FCFCFEB2
:1000B000FFFFFFFFFFFFFFFFFFFFFFFFFFFFFFFF50
:1000C000FFFFFFFFFEFEFCFCF8F0F0E0C0C0808008
:1000D0000000000000000000000000000000000020
:1000E0000000000000000000000000000000000010
:1000F0000000000000000000000000000000000000
:1001000000000000000000000000000000000000EF
:1001100000000000000000000000000000000000DF
:10012000000000000028FFFFFFFFFFFFFFFFFFFFB1
:10013000FF7F7F7FFFFFFFFFFFFFFFFFFFFFFFFF4F
:10014000FFFFFFFFFFFFFFFFFFFFFFFFFFFFFFFFBF
:10015000FFFEFCF8F0F0C0C08000000000000000CE
:10016000000000000000000000000000000000008F
:10017000000000000000000000000000000000007F
:10018000000000000000000000000000000000006F
:10019000000000000000000000000000000000005F
:1001A0000000000000007FFFFFFFFFFFFFFFFFF8E0
:1001B0002000400082020000040505252727276F44
:1001C0006F6F6FEFDFDFFFFFFFFFFFFFFFFFFFFF3F
:1001D000FFFFFFFFFFFFFFFFFFFFFFFEF8F0E0C0A4
:1001E000800000000000000000000000000000008F
:1001F00000000000000000000000000000000000FF
:1002000000000000000000000000000000000000EE
:1002100000000000000000000000000000000000DE
:10022000000000000000207FFFFFFFFFFFFFFFFF37
:10023000FEF0FC03000000000000000088C8FCFC89
:10024000FCFEFEFEFEFFFFFFFFFFFFFFFFFFFFDFE5
:10025000DF9F3F3F7FFFFFFFFFFFFFFFFFFFFFFF2E
:10026000FFFFFCF0E0800000000000000000000044
:10027000000000000000000000000000000000007E
:10028000000000000000000000000000000000006E
:10029000000000000000000000000000000000005E
:1002A00000000000000000000003071F7FFFFFFFA9
:1002B000FFFFF9180000000018FCFEFFFFFFFFFF22
:1002C000FFFFFFFFFFFFF7C30783C3C3E3F3F3F3AE
:1002D000FFFFFF7C00000001030F1F7FFFFFFFFFF8
:1002E000FFFFFFFFFFFF1000000000000000000004
:1002F00000000000000000000000000000000000FE
:1003000000000000000000000000000000000000ED
:1003100000000000000000000000000000000000DD
:1003200000000000000000000000000000000103C9
:100330000301000000800000000001C3FFFFFFFF79
:10034000FFFFFFFFFFFFFFFFE083FFFFFFFFFF7FD8
:100350001F0F0300000000000000000001FFFFFF6E
:10036000FFFFFF3F0F010000000000000000000041
:10037000000000000000000000000000000000007D
:10038000000000000000000000000000000000006D
:10039000000000000000000000000000000000005D
:1003A000000000000000000000000000000000004D
:1003B000000000000000000000020207070F0F0FFE
:1003C0001F1F3F7F7FFFFFFFFFFFFFFF1F07010092
:1003D00000000000000000000000C0603C1F1F0F74
:1003E0000703010000000000000000000000000002
:1003F00000000000000000000000000000000000FD
:1004000000000000000000000000000000000000EC
:1004100000000000000000000000000000000000DC
:1004200000000000000000000000000000000000CC
:1004300000000000000000000000000000000000BC
:1004400000000000000000010101030300000000A3
:10045000000000000000000000010000000000009B
:10046000000000000000000000000000000000008C
:10047000000000000000000000065F5F06000000B2
:100480000007070007070000147F7F147F7F140018
:10049000242E6B6B3A120000466630180C66620020
:1004A000307A4F5D377A48000407030000000000EF
:1004B000001C3E63410000000041633E1C00000040
:1004C000082A3E1C1C3E2A0808083E3E0808000078
:1004D00000A0E0600000000008080808080800000C
:1004E00000006060000000006030180C060301008E
:1004F0003E7F594D7F3E000042427F7F40400000DA
:10050000627359496F660000226349497F360000D3
:10051000181C16137F7F1000276745457D390000A2
:100520003C7E4B4979300000036371190F070000CE
:10053000367F49497F360000064F49693F1E00005B
:1005400000006C6C0000000000A0EC6C00000000DB
:10055000081C366341000000141414141414000025
:10056000004163361C080000020351590F060000C9
:100570003E7F415D5D1F1E007C7E13137E7C00006C
:10058000417F7F49497F36001C3E63414163220021
:10059000417F7F41637F1C00417F7F495D41630054
:1005A000417F7F491D0103001C3E6341517372006E
:1005B0007F7F08087F7F000000417F7F41000000AF
:1005C000307040417F3F0100417F7F081C7763000E
:1005D000417F7F41406070007F7F060C067F7F0077
:1005E0007F7F060C187F7F001C3E6341633E1C002A
:1005F000417F7F49090F06001E3F21717F5E000089
:10060000417F7F19396F460026674D597B320000C4
:1006100003417F7F410300007F7F40407F7F0000D8
:100620001F3F60603F1F00007F7F3018307F7F00DA
:1006300063771C081C776300074F78784F0700002A
:100640006773594D47637100007F7F41410000008F
:100650000103060C183060000041417F7F0000005C
:10066000080C0603060C0800808080808080808053
:100670000000030704000000207454543C7840003C
:10068000413F7F44447C3800387C44446C2800005F
:10069000307848493F7F4000387C54545C18000053
:1006A000487E7F490302000098BCA4A4F87C0400A3
:1006B000417F7F08047C780000447D7D400000007D
:1006C00040C484FD7D000000417F7F10386C4400F1
:1006D00000417F7F400000007C7C0C180C7C78007F
:1006E0007C7C04047C780000387C44447C38000026
:1006F00084FCF8A4243C1800183C24A4F8FC8400D2
:10070000447C78441C180000485C54547424000055
:1007100000043E7F442400003C7C40403C7C400080
:100720001C3C60603C1C00003C7C6030607C3C00F9
:10073000446C3810386C44009CBCA0A0FC7C0000C9
:100740004C64745C4C64000008083E774141000032
:1007500000000077770000004141773E0808000064
:10076000020301030203010011241FBECFEFD4E0F6
:10077000DEBFCDBF12E0A0E0B1E0E8ECFEE102C0D8
:1007800005900D92A23AB107D9F722E0A2EAB2E0B1
:1007900001C01D92A23CB207E1F70E9402040C9432
:1007A000620F0C940000CF93DF93CDB7DEB72A978A
:1007B0000FB6F894DEBF0FBECDBF1982CE010196F1
:1007C0000E94C7048981803119F0813149F011C03C
:1007D0000E94D905823069F483E00E94D60509C0E1
:1007E0000E94D905853029F40E94A00A84E00E9465
:1007F000D6052A960FB6F894DEBF0FBECDBFDF91A7
:10080000CF910895F8948FE190E00E94930788EAD1
:1008100091E09F938F930E941E0B8D9A0E948207F6
:100820000E9463070E9482070E9450088EEA91E0AE
:100830009F938F930E941E0B0E9477040E94240AAC
:100840000E9410080E94820778940F900F900F90DA
:100850000F900E940E050E9436070E945C090E94BC
:10086000D3032FEF8FE791E0215080409040E1F7D4
:1008700000C000C0EECF1F920F920FB60F9211244E
:100880000F900FBE0F901F9018951F920F920FB6EA
:100890000F9211240F900FBE0F901F901895309853
:1008A0000895843040F48460809300142899FECF2A
:1008B0008091001408958FEF089580599F4FFC0197
:1008C00084910895E62FF0E0EE0FFF1FEE0FFF1F5B
:1008D000EE0FFF1FE059FC4FDC019C01285F3F4FEA
:1008E00094919D933196A217B307D1F708950E9472
:1008F0004D070E940B0640E86FEF8FE00E94130641
:100900004FEF60E680E60E94130641E061E08BE273
:100910000E94130640E060EE8FE00E9413068A9862
:100920008BB780648BBF08950F931F93CF938C0177
:10093000FC01608166956695669581E30E94F705E6
:10094000F8016081F0E26F9FB001112482E30E9400
:10095000F705F801618185E30E94F705F8018181BF
:10096000882371F0C0E0F801EC0FF11D628186E38D
:100970008C0F0E94F705CF5FF8018181C81798F3AB
:1009800080E00E942D06CF911F910F9108950F9343
:100990001F93CF938C018CE20E94E50580FF33C04A
:1009A00084EB91E09F938F930E941E0B81E60E943F
:1009B000E505C82F82E60E94E505CC0FCC0FCC0FD1
:1009C0008295869587708C2BF801808385E60E943E
:1009D000E5058F70F80181830F900F90882371F0E7
:1009E000C0E086E68C0F0E94E505F801EC0FF11DD2
:1009F0008283CF5FF8018181C81798F340E061E0FE
:100A00008CE20E941306CF911F910F91089585B734
:100A1000806885BF80B7806280BF0895FF920F9382
:100A20001F93CF93DF93CDB7DEB769970FB6F894D6
:100A3000DEBF0FBECDBF8091A502823039F128F410
:100A4000882361F08130D1F0A5C0843009F459C009
:100A500008F45CC0853009F489C09CC0E8EAF2E083
:100A600011821082138212821582148217821682DA
:100A70001186108684E08093A5028CC01092A40297
:100A80001092A30282E08093A50284C00E94D8083D
:100A90008091A4028F938091A3028F9385EC91E0C3
:100AA0009F938F938E01055F1F4F1F930F930E949B
:100AB000340B40E061E0C8010E94A60740E064E01A
:100AC00084ED91E00E94A6078091A2028F5F80933F
:100AD000A2020F900F900F900F900F900F90853102
:100AE00058F08091A3029091A40201969093A402E1
:100AF0008093A3021092A2020E940B080E94360764
:100B000049C00E94FD080E940B0844C06091A302E6
:100B10007091A402E8EAF2E042EB52E020E0A0E0AB
:100B200030E0FF24F394213039F490818181A08357
:100B30003183A92F382F0CC08081918186179707A8
:100B400038F4211105C071836083A82F392F2F2D10
:100B50003296E417F50739F71092A4021092A30217
:100B60000E94A00A84E08093A50214C088E08983D3
:100B70008B8381E08A83CE0101960E9494042FEF3B
:100B80008FEF9BE3215080409040E1F700C00000D0
:100B90000E94A00A69960FB6F894DEBF0FBECDBFC3
:100BA000DF91CF911F910F91FF9008958093A5023F
:100BB00008958091A5020895E82FF0E0EE0FFF1F41
:100BC000E855FD4F808191810895CF93C82F0E94F1
:100BD0005F0783E00E9455078C2F0E9455070E94F3
:100BE0005907C82F0E9461078C2FCF910895CF938A
:100BF000DF93D82FC62F0E945F0782E00E9455071F
:100C00008D2F0E9455078C2F0E9455070E94610767
:100C1000DF91CF9108950E945F0780EC0E945507F5
:100C20000E94610708951F93CF93DF93182FD62F4B
:100C3000C42F0E945F0785E00E945507812F0E9404
:100C400055078D2F0E9455078C2F0E9455070E9433
:100C50006107DF91CF911F910895CF93C82F0E9414
:100C60005F0781E090E002C0880F991FCA95E2F704
:100C700080680E9455070E946107CF9108951F92D6
:100C80000F920FB60F9211240F900FBE0F901F906E
:100C90001895E091001CF0E0F096F695FE2FEE27F7
:100CA000F795E795E60FF11D80830895CF93DF93C5
:100CB000D82F8093001CC0E06C2F80E00E94490672
:100CC000CF5FC038C9F7D093001CDF91CF91089552
:100CD000CF93C0E08C2F0E945606CF5FC830D1F76B
:100CE0001092001CCF910895CF92DF92EF92FF9265
:100CF0000F931F93CF93DF93CDB7DEB728970FB62F
:100D0000F894DEBF0FBECDBF062F142F682FCE0183
:100D100001960E9462040130B1F4110F110F110FFE
:100D2000CE0101967C016E0199E0C90ED11CF7013C
:100D300081917F01612F80950E9449061F5FCE142B
:100D4000DF04A9F714C0110F110F110FCE01019686
:100D50007C016E0199E0C90ED11C612FF7018191D0
:100D60007F010E9449061F5FEC14FD04B1F728962D
:100D70000FB6F894DEBF0FBECDBFDF91CF911F91AC
:100D80000F91FF90EF90DF90CF9008950F931F93F6
:100D9000CF93DF93E0E0F0E181E2808310828FE780
:100DA000808382E28083108287E08083C0E0D0E08D
:100DB00000E012E1CE010E945D04F80180832196DB
:100DC000C115F4E0DF07B1F7DF91CF911F910F91CB
:100DD0000895E0E0F0E18EEA808381EA80838AED85
:100DE000808382E1808388EC808380E2808310822C
:100DF00088EA80838FE3808385ED808380E8808329
:100E00008BED808380E3808381E8808380E580832D
:100E100089ED808381E280838DEA8083108284EA79
:100E2000808386EA80838FEA80830E946806089523
:100E30000F931F93CF93DF93FC018081882389F068
:100E4000D62F8F010F5F1F4FC0E04C2F6D2F0E94D8
:100E50007406F80181918F01882319F0CF5FC031AA
:100E6000A1F7DF91CF911F910F910895E0E0F0E19C
:100E700081E2808310828FE7808382E28083108208
:100E800087E08083E0E0F8E1A0E0B2E181918C931B
:100E9000E1158CE1F807D1F7089587B3806B87BB24
:100EA000BE988DB181658DB908958FB9779BFECFBE
:100EB00008958AEA8FB9779BFECF8FB10895C498C1
:100EC0000895C49A089582E089BF12BE8FB58364E5
:100ED0008FBD8FB58F778FBD8EB588618EBDEBE8E6
:100EE000F0E080818C738083EAE8F0E080818F7E7F
:100EF0008083808188608083EDE7F0E0808180617D
:100F000080830895EAE8F0E08081887F80830895F7
:100F10005D9BFECF8CB980E090E008955F9BFECF93
:100F20008CB190E0089590BD89B988E98AB98EE8BE
:100F300080BD6EE877E088E897E00E94D30A90933E
:100F4000B3028093B20280E090E008951F93CF93A4
:100F5000DF93EC01862F142F0E945606612FCE01DD
:100F60000E941807DF91CF911F910895CF93E091D0
:100F7000B402F091B50240E060E0808191810E946E
:100F8000A607A091B402B091B50250968C915097EB
:100F90008823B9F1C1E001C0C92F8FEF8C0F909168
:100FA000A702981312C0892F90E00196880F991F0D
:100FB000FD01E80FF91F0190F081E02D41E06C2F59
:100FC000808191810E94A60710C0E82FF0E0319641
:100FD000EE0FFF1FEA0FFB1F0190F081E02D40E0B4
:100FE0006C2F808191810E94A607A091B402B091DC
:100FF000B50291E09C0F50968C915097C81760F203
:1010000001C0C0E062E06C0F40E083EE91E00E941E
:10101000A607CF9108950E9468060E94B60708951A
:10102000E6E9F1E0F093B502E093B40282819381A6
:101030009093B7028093B6020E940B080895843003
:1010400091F42091A702422F50E0E091B402F09178
:10105000B502808990E00197481759076CF42F5F1B
:101060002093A70209C0833039F48091A702882316
:1010700019F081508093A7022091B4023091B502FB
:101080008091A702E82FF0E03196EE0FFF1FE20FEC
:10109000F31F808191819093B7028093B6020895E7
:1010A0000E9407050E944F040E94E90687B38760EB
:1010B00087BBC29A0895CF9380E00E945104C82F45
:1010C00081E00E945104282FCC23A4F44C2F50E03F
:1010D0004F57510984E6849FB001859F700D1124FC
:1010E000772314F461587F4F660F672F661F770BC5
:1010F000462F13C0CF3780F44C2F50E04F57510983
:1011000034E6349FC001359F900D11246FE770E0E5
:101110000E94AB0A462F01C040E022239CF430E03D
:101120002F57310984E6829FB001839F700D1124EF
:10113000772314F461587F4F660F672F661F770B74
:10114000762F12C02F3778F430E02F57310954E64C
:10115000529FC001539F900D11246FE770E00E94D1
:10116000AB0A762F01C070E0642F80E0CF91089524
:101170000E945B086E3C14F481E00895633314F020
:1011800082E008957E3C14F484E00895733314F0F3
:1011900083E0089580E00895CF9383E00E94510496
:1011A000C82F82E00E945104982F8C2FCF91089570
:1011B000CF93DF93CDB7DEB72A970FB6F894DEBF93
:1011C0000FBECDBF0E94CC0836B326B341E04983A1
:1011D00044E04A838B839C8332703D8321702E834D
:1011E000CE0101960E9494042A960FB6F894DEBFB1
:1011F0000FBECDBFDF91CF9108950E94B8089091A6
:10120000A602911154C0823071F118F4813099F026
:101210000895833049F0843009F04DC00E941F08C2
:1012200081E08093A602089583E00E941F0881E078
:101230008093A6020895E091B402F091B5028685EC
:1012400097850097C1F1F093B702E093B6029093AF
:10125000B5028093B4021092A7020E940B0881E0AD
:101260008093A60208952091B4023091B502809136
:10127000A702E82FF0E03196EE0FFF1FE20FF31FF9
:101280000190F081E02D3097B1F0F093B502E0933A
:10129000B402828193819093B7028093B602109238
:1012A000A7020E940B0881E08093A6020895811195
:1012B00002C01092A60208958F929F92AF92BF92A1
:1012C000CF92DF92EF92FF920F931F93CF93DF9312
:1012D000CDB7DEB7CB54D1090FB6F894DEBF0FBE41
:1012E000CDBFE091B402F091B5028189823099F0CE
:1012F00028F4882351F0813059F090C08430A1F057
:10130000B0F0883009F486C089C00E940B0888C0FC
:101310000E940B0885C00E94D905843009F080C066
:1013200081E00E94D6057CC00E940B0879C00E9413
:101330000B0880E00E94DC059F938F9305EE11E07F
:101340001F930F934E018DE3880E911C9F928F92F5
:101350000E94340B81E00E94DC059F938F931F93C2
:101360000F935E019EE2A90EB11CBF92AF920E9444
:10137000340B82E00E94DC059F938F931F930F93A1
:101380006E018FE1C80ED11CDF92CF920E94340B08
:1013900083E00E94DC059F938F931F930F937E0140
:1013A00090E1E90EF11CFF92EF920E94340B84E071
:1013B0000E94DC059F938F931F930F938E010F5F05
:1013C0001F4F1F930F930E94340B40E060E08DEE9F
:1013D00091E00E94A60740E062E0C4010E94A607D7
:1013E00040E063E0C5010E94A60740E064E0C6015A
:1013F0000E94A60740E065E0C7010E94A60740E002
:1014000066E0C8010E94A6070FB6F894DEBF0FBEC3
:10141000CDBF06C085E00E94D60502C00E940B0821
:10142000C55BDF4F0FB6F894DEBF0FBECDBFDF91B7
:10143000CF911F910F91FF90EF90DF90CF90BF90D1
:10144000AF909F908F900895CF93DF93CDB7DEB785
:1014500064970FB6F894DEBF0FBECDBF0E9468063A
:1014600040E060E089EF91E00E94A60740E061E083
:1014700082E092E00E94A60740E062E081E192E013
:101480000E94A60740E063E08CE192E00E94A6077C
:1014900040E064E08AE292E00E94A60740E065E056
:1014A00084E392E00E94A6078CEC94E00197F1F7A8
:1014B00000C000000E9436070E9436079FEF2FEF02
:1014C0008CE2915020408040E1F700C000C00E94B3
:1014D00068060E94C60689E08B878D8781E08C872D
:1014E000CE010B960E9494049FEF2FE781E091506C
:1014F00020408040E1F700C000C0CE0101960E946C
:10150000C70489818B3061F784E492E09F938F93C5
:101510000E941E0B9FEF2FEF8DE1915020408040E5
:10152000E1F700C000000E9468060F900F906496DB
:101530000FB6F894DEBF0FBECDBFDF91CF910895F7
:10154000E091B402F091B502868597859093B5023B
:101550008093B402089597FB072E16F4009407D0E9
:1015600077FD09D00E94BF0A07FC05D03EF4909594
:1015700081959F4F0895709561957F4F0895AA1B9F
:10158000BB1B51E107C0AA1FBB1FA617B70710F06E
:10159000A61BB70B881F991F5A95A9F780959095A0
:1015A000BC01CD0108950F931F93CF93DF93009754
:1015B00031F46115710519F480E090E03AC08B01B7
:1015C000EC016EE070E081E090E00E94370DFC01DC
:1015D000892B91F380E883830115110571F013873E
:1015E000028781E883838091B8029091B902892BA8
:1015F00021F4F093B902E093B8022097C9F0D187A3
:10160000C0878381826083838091BA029091BB02FC
:10161000892B71F4F093BB02E093BA028091BC0273
:101620009091BD02892B21F4F093BD02E093BC029E
:10163000CF01DF91CF911F910F910895A0E0B0E00D
:10164000E4E2FBE00C943B0FAE014B5F5F4FFA010D
:1016500061917191AF018091BA029091BB020E9499
:10166000560BE2E00C94570FAEE0B0E0EAE3FBE08B
:101670000C94390F0D891E8986E08C831A830983A7
:101680008FEF9FE79E838D83AE01475E5F4F6F892B
:10169000788DCE0101960E94560BEF81F885E00F00
:1016A000F11F10822E96E4E00C94550FABE0B0E0F1
:1016B000ECE5FBE00C942B0F6C017B018A01FC0133
:1016C00017821682838181FFCCC1CE0101963C0135
:1016D000F6019381F70193FD859193FF81917F013D
:1016E000882309F4BAC1853239F493FD859193FFBB
:1016F00081917F01853229F4B60190E00E94910E1C
:10170000E7CF912C212C312CFFE1F315D8F08B324F
:1017100079F038F4803279F08332A1F4232D2061FE
:101720001DC08D3261F0803369F4232D216016C015
:10173000832D8260382EE32DE4603E2E2AC0F32DE7
:10174000F8601DC037FC2DC020ED280F2A3040F076
:101750008E32B9F436FC81C1232D2064322E19C09B
:1017600036FE06C08AE0989E200D1124922E11C0EC
:10177000EAE02E9E200D1124222EF32DF0623F2E42
:1017800008C08C3621F4832D8068382E02C088363C
:1017900041F4F70193FD859193FF81917F018111C0
:1017A000B3CF982F9F7D9554933028F40C5F1F4F33
:1017B0009FE399830DC0833631F0833771F0833511
:1017C00009F059C021C0F801808189830E5F1F4F45
:1017D00088248394912C530113C02801F2E04F0E0A
:1017E000511CF801A080B18036FE03C0692D70E065
:1017F00002C06FEF7FEFC5010E94860E4C0182018F
:10180000F32DFF773F2E16C0280122E0420E511C17
:10181000F801A080B18036FE03C0692D70E002C0DF
:101820006FEF7FEFC5010E94740E4C01F32DF0683D
:101830003F2E820133FC1BC0822D90E08816990652
:10184000B0F4B60180E290E00E94910E2A94F4CFA9
:10185000F50137FC859137FE81915F01B60190E07B
:101860000E94910E21102A9421E0821A910881147D
:10187000910471F7E8C0843611F0893641F5F8011A
:1018800037FE07C060817181828193810C5F1F4F99
:1018900008C060817181072E000C880B990B0E5FC8
:1018A0001F4FF32DFF763F2E97FF09C0909580952F
:1018B000709561957F4F8F4F9F4FF0683F2E2AE0C4
:1018C00030E0A3010E94CD0E882E861845C08537D2
:1018D00031F4232D2F7EB22E2AE030E025C0932D47
:1018E000997FB92E8F36C1F018F4883579F0B5C0DC
:1018F000803719F0883721F0B0C0E92FE061BE2EA3
:10190000B4FE0DC0FB2DF460BF2E09C034FE0AC02A
:10191000292F2660B22E06C028E030E005C020E165
:1019200030E002C020E132E0F801B7FE07C060817C
:101930007181828193810C5F1F4F06C0608171812C
:1019400080E090E00E5F1F4FA3010E94CD0E882E15
:101950008618FB2DFF773F2E36FE0DC0232D2E7FE0
:10196000A22E891458F434FE0BC032FC09C0832D1A
:101970008E7EA82E05C0B82CA32C03C0B82C01C0A5
:10198000B92CA4FE0FC0FE01E80DF11D808180334B
:1019900021F49A2D997EA92E09C0A2FE06C0B39407
:1019A000B39404C08A2D867809F0B394A3FC11C0C7
:1019B000A0FE06C0B21488F4280C922C9B180EC00E
:1019C000B21460F4B60180E290E00E94910EB394EC
:1019D000F7CFB21418F42B1802C0982C212CA4FEB7
:1019E00010C0B60180E390E00E94910EA2FE17C0E5
:1019F000A1FC03C088E790E002C088E590E0B60152
:101A00000CC08A2D867859F0A1FE02C08BE201C07D
:101A100080E2A7FC8DE2B60190E00E94910E89144D
:101A200038F4B60180E390E00E94910E9A94F7CFCB
:101A30008A94F301E80DF11D8081B60190E00E94C7
:101A4000910E8110F5CF222009F442CEB60180E23A
:101A500090E00E94910E2A94F6CFF601868197813C
:101A600002C08FEF9FEF2B96E2E10C94470F0F938C
:101A70001F93CF93DF93869F8001879F100D969FC2
:101A8000100D1124C8010E94530DEC01009729F09C
:101A9000A80160E070E00E947F0ECE01DF91CF913F
:101AA0001F910F9108950F931F93CF93DF9382306F
:101AB000910510F482E090E0E091C002F091C10243
:101AC00020E030E0A0E0B0E0309719F14081518192
:101AD0000281138148175907C8F08417950769F4E4
:101AE000109731F012960C93129713961C9327C0FF
:101AF0000093C0021093C10222C02115310519F0D4
:101B00004217530718F49A01BD01EF01DF01F801F4
:101B1000DBCF21153105F9F0281B390B24303105B5
:101B200080F48A819B816115710521F0FB0193830B
:101B3000828304C09093C1028093C002FE0132965A
:101B400044C0FE01E20FF31F8193919322503109AB
:101B5000398328833AC02091BE023091BF02232BE3
:101B600041F420910201309103013093BF02209390
:101B7000BE0220910001309101012115310541F48F
:101B80002DB73EB74091040150910501241B350B40
:101B9000E091BE02F091BF02E217F307A0F42E1B02
:101BA0003F0B2817390778F0AC014E5F5F4F2417C1
:101BB000350748F04E0F5F1F5093BF024093BE029F
:101BC0008193919302C0E0E0F0E0CF01DF91CF91EB
:101BD0001F910F910895CF93DF93009709F481C06F
:101BE000FC01329713821282A091C002B091C1020F
:101BF000109781F420813181820F931F2091BE02C2
:101C00003091BF022817390751F5F093BF02E093D6
:101C1000BE0267C0ED0120E030E0CE17DF0740F4E0
:101C20004A815B819E0141155105F1F0EA01F5CF32
:101C3000D383C28340815181840F951FC817D90770
:101C400059F488819981840F951F0296918380832E
:101C50008A819B81938382832115310529F4F09336
:101C6000C102E093C0023DC0E901FB83EA834991D0
:101C70005991C40FD51FEC17FD0761F48081918144
:101C8000840F951F0296E90199838883828193814D
:101C90009B838A83E0E0F0E012968D919C911397EC
:101CA000009719F0FD01DC01F7CF8D919C91119700
:101CB0009D012E5F3F4F820F931F2091BE023091F6
:101CC000BF022817390769F4309729F41092C1022E
:101CD0001092C00202C013821282B093BF02A0937E
:101CE000BE02DF91CF910895FC01059061507040D4
:101CF0000110D8F7809590958E0F9F1F0895DC01F5
:101D000001C06D9341505040E0F70895FC016150CF
:101D1000704001900110D8F7809590958E0F9F1F0D
:101D200008950F931F93CF93DF93FB01238121FD30
:101D300003C08FEF9FEF2CC022FF16C04681578152
:101D4000248135814217530744F4A081B1819D015C
:101D50002F5F3F4F318320838C93268137812F5F04
:101D60003F4F3783268314C08B01EC01FB010084B5
:101D7000F185E02D0995892BE1F6D80116968D9114
:101D80009C911797019617969C938E931697CE0168
:101D9000DF91CF911F910F910895FA01AA27283062
:101DA00051F1203181F1E8946F936E7F6E5F7F4F28
:101DB0008F4F9F4FAF4FB1E03ED0B4E03CD0670FA4
:101DC000781F891F9A1FA11D680F791F8A1F911DF7
:101DD000A11D6A0F711D811D911DA11D20D009F447
:101DE00068943F912AE0269F11243019305D319389
:101DF000DEF6CF010895462F4770405D4193B3E072
:101E00000FD0C9F7F6CF462F4F70405D4A3318F018
:101E1000495D31FD4052419302D0A9F7EACFB4E0C9
:101E2000A6959795879577956795BA95C9F7009781
:101E30006105710508959B01AC010A2E0694579522
:101E4000479537952795BA95C9F7620F731F841F79
:101E5000951FA01D08952F923F924F925F926F920F
:101E60007F928F929F92AF92BF92CF92DF92EF922A
:101E7000FF920F931F93CF93DF93CDB7DEB7CA1BAB
:101E8000DB0B0FB6F894DEBF0FBECDBF09942A88D6
:101E9000398848885F846E847D848C849B84AA847E
:101EA000B984C884DF80EE80FD800C811B81AA810B
:101EB000B981CE0FD11D0FB6F894DEBF0FBECDBFD6
:081EC000ED010895F894FFCF35
:101EC8000000C202200053020000000000000000D1
:101ED80000000000840100085F020000000000000C
:101EE800000000000000600100076402000000001C
:101EF8000000000000000000600100066B02000006
:101F080000000000000000000000600100057002F1
:101F1800000000000000000000000000960100031F
:101F28007A023C012A011801000000000000840127
:101F3800030485020000000000000000000000000B
:101F4800960100028F0260010601000000000000F7
:101F58000000960102019802720184014E010000FE
:101F68000000000000000300626567696E00686594
:101F780072653F0056414C4944204D4553534147F3
:101F880045200A0D00594F55522053434F52453AA8
:101F980020257500484947484553542053434F521C
:101FA800453A0020003173743A20257500484947A6
:101FB8004853434F5245533A0057656C636F6D65FC
:101FC80021005765206172652077616974696E67C1
:101FD80000666F72204E6F64652032005768696C26
:101FE800652077616974696E670076696577207422
:101FF8006869730062656175746966756C204C75F3
:102008006E64650048616E647368616B6520646F17
:102018006E6500526563616C69627261746500483F
:10202800617264004D656469756D0045617379007E
:102038004869676873636F726500446966666963B7
:10204800756C747900506C61792067616D65005317
:10205800657474696E6773004D61696E206D656E95
:02206800750001
:00000001FF
