:100000000C94C6030C94F4060C94E3030C94E303E1
:100010000C94E3030C94E3030C94E3030C94720438
:100020000C94E3030C94E3030C94E3030C94E303B8
:100030000C94E3030C94E3030C94E3030C94E303A8
:100040000C94E3030C9448040C94E3030C94E30332
:100050000C94E3030C94E3030C94E3030C94E30388
:100060000C94E3030C94E3030C94E3030C94E30378
:100070006D057F05C00529061B0669067606200664
:10008000F70AFA0AFD0A090B060B8F0B8F0B8F0B71
:10009000830B910B00000000000000000000000036
:1000A0000000000000000000000000000000000050
:1000B0000000000000000000000000000000000040
:1000C0000000000000000000000000E0F0F0F8F880
:1000D000F8FCFCFEFFFFFFFFFFFFFFFFFFFFFFFF3E
:1000E000FFFFFFFFFFFFFFFFFEFEFCFCF8F0F0E06C
:1000F000C0C0808000000000000000000000000080
:1001000000000000000000000000000000000000EF
:1001100000000000000000000000000000000000DF
:1001200000000000000000000000000000000000CF
:1001300000000000000000000000000000000000BF
:1001400000000000000000000028FFFFFFFFFFFF8D
:10015000FFFFFFFFFF7F7F7FFFFFFFFFFFFFFFFF2F
:10016000FFFFFFFFFFFFFFFFFFFFFFFFFFFFFFFF9F
:10017000FFFFFFFFFFFEFCF8F0F0C0C080000000B2
:10018000000000000000000000000000000000006F
:10019000000000000000000000000000000000005F
:1001A000000000000000000000000000000000004F
:1001B000000000000000000000000000000000003F
:1001C000000000000000000000007FFFFFFFFFFFB5
:1001D000FFFFFFF820004000820200000405052513
:1001E0002727276F6F6F6FEFDFDFFFFFFFFFFFFF37
:1001F000FFFFFFFFFFFFFFFFFFFFFFFFFFFFFFFE10
:10020000F8F0E0C0800000000000000000000000E6
:1002100000000000000000000000000000000000DE
:1002200000000000000000000000000000000000CE
:1002300000000000000000000000000000000000BE
:1002400000000000000000000000207FFFFFFFFF13
:10025000FFFFFFFFFEF0FC030000000000000000B5
:1002600088C8FCFCFCFEFEFEFEFFFFFFFFFFFFFF59
:10027000FFFFFFDFDF9F3F3F7FFFFFFFFFFFFFFF2E
:10028000FFFFFFFFFFFFFCF0E08000000000000028
:10029000000000000000000000000000000000005E
:1002A000000000000000000000000000000000004E
:1002B000000000000000000000000000000000003E
:1002C0000000000000000000000000000003071F05
:1002D0007FFFFFFFFFFFF9180000000018FCFEFF82
:1002E000FFFFFFFFFFFFFFFFFFFFF7C30783C3C34E
:1002F000E3F3F3F3FFFFFF7C00000001030F1F7F18
:10030000FFFFFFFFFFFFFFFFFFFF100000000000E7
:1003100000000000000000000000000000000000DD
:1003200000000000000000000000000000000000CD
:1003300000000000000000000000000000000000BD
:1003400000000000000000000000000000000000AD
:10035000000001030301000000800000000001C351
:10036000FFFFFFFFFFFFFFFFFFFFFFFFE083FFFF38
:10037000FFFFFF7F1F0F03000000000000000000D0
:1003800001FFFFFFFFFFFF3F0F0100000000000023
:10039000000000000000000000000000000000005D
:1003A000000000000000000000000000000000004D
:1003B000000000000000000000000000000000003D
:1003C000000000000000000000000000000000002D
:1003D0000000000000000000000000000002020712
:1003E000070F0F0F1F1F3F7F7FFFFFFFFFFFFFFF65
:1003F0001F07010000000000000000000000C060B6
:100400003C1F1F0F07030100000000000000000058
:1004100000000000000000000000000000000000DC
:1004200000000000000000000000000000000000CC
:1004300000000000000000000000000000000000BC
:1004400000000000000000000000000000000000AC
:10045000000000000000000000000000000000009C
:100460000000000000000000000000010101030383
:10047000000000000000000000000000000100007B
:10048000000000000000000000000000000000006C
:1004900000000000000000000000000000065F5F98
:1004A000060000000007070007070000147F7F1404
:1004B0007F7F1400242E6B6B3A12000046663018C2
:1004C0000C666200307A4F5D377A480004070300FB
:1004D00000000000001C3E63410000000041633E3C
:1004E0001C000000082A3E1C1C3E2A0808083E3E4C
:1004F0000808000000A0E0600000000008080808EC
:100500000808000000006060000000006030180C67
:10051000060301003E7F594D7F3E000042427F7F2F
:1005200040400000627359496F66000022634949E8
:100530007F360000181C16137F7F10002767454583
:100540007D3900003C7E4B4979300000036371190E
:100550000F070000367F49497F360000064F496982
:100560003F1E000000006C6C0000000000A0EC6C5E
:1005700000000000081C366341000000141414142D
:1005800014140000004163361C0800000203515996
:100590000F0600003E7F415D5D1F1E007C7E131331
:1005A0007E7C0000417F7F49497F36001C3E6341CD
:1005B00041632200417F7F41637F1C00417F7F496F
:1005C0005D416300417F7F491D0103001C3E634183
:1005D000517372007F7F08087F7F000000417F7F9A
:1005E00041000000307040417F3F0100417F7F08A3
:1005F0001C776300417F7F41406070007F7F060C65
:10060000067F7F007F7F060C187F7F001C3E6341C2
:10061000633E1C00417F7F49090F06001E3F217188
:100620007F5E0000417F7F19396F460026674D5974
:100630007B32000003417F7F410300007F7F404009
:100640007F7F00001F3F60603F1F00007F7F3018EA
:10065000307F7F0063771C081C776300074F787832
:100660004F0700006773594D47637100007F7F415A
:10067000410000000103060C183060000041417F7A
:100680007F000000080C0603060C080080808080B4
:100690008080808000000307040000002074545410
:1006A0003C784000413F7F44447C3800387C4444DF
:1006B0006C280000307848493F7F4000387C545413
:1006C0005C180000487E7F490302000098BCA4A487
:1006D000F87C0400417F7F08047C780000447D7D25
:1006E0004000000040C484FD7D000000417F7F1079
:1006F000386C440000417F7F400000007C7C0C1877
:100700000C7C78007C7C04047C780000387C4444B9
:100710007C38000084FCF8A4243C1800183C24A475
:10072000F8FC8400447C78441C180000485C545455
:100730007424000000043E7F442400003C7C4040C0
:100740003C7C40001C3C60603C1C00003C7C6030F9
:10075000607C3C00446C3810386C44009CBCA0A009
:10076000FC7C00004C64745C4C64000008083E771C
:100770004141000000000077770000004141773ED2
:1007800008080000020301030203010011241FBE38
:10079000CFEFD4E0DEBFCDBF13E0A0E0B1E0ECEFDF
:1007A000F1E202C005900D92A637B107D9F723E018
:1007B000A6E7B3E001C01D92AF3AB207E1F70E948D
:1007C00012040C94FC100C940000CF93DF93CDB76F
:1007D000DEB72A970FB6F894DEBF0FBECDBF1982E1
:1007E000CE0101960E9402058981803119F0813184
:1007F00049F00FC00E948D06823059F487E00E94B4
:100800008A0607C00E948D06863019F484E00E9493
:100810008A062A960FB6F894DEBF0FBECDBFDF91D1
:10082000CF910895F8948FE190E00E9457088AEAEA
:1008300091E09F938F930E94B80C8D9A0E941808A4
:100840000E9446080E9414090E94A40480EC91E0D2
:100850009F938F930E94B80C0E94A50B0E94D4080E
:1008600078940E943D0886ED91E09F938F930E94BB
:10087000B80C0F900F900F900F900F900F900E9458
:10088000E5030E94EB070E944D050E94D20AF7CFB4
:100890001F920F920FB60F9211242F933F934F93F5
:1008A0005F936F937F938F939F93AF93BF93EF93D8
:1008B000FF9384EE91E09F938F930E94B80C0F906A
:1008C0000F90FF91EF91BF91AF919F918F917F9189
:1008D0006F915F914F913F912F910F900FBE0F90AD
:1008E0001F9018951F920F920FB60F9211240F9020
:1008F0000FBE0F901F90189530980895843040F4E3
:100900008460809300142899FECF8091001408958C
:100910008FEF08958C569F4FFC0184910895E62F28
:10092000F0E0EE0FFF1FEE0FFF1FEE0FFF1FEC5664
:10093000FC4FDC019C01285F3F4F94919D933196C1
:10094000A217B307D1F708950E9402080E94C006BB
:1009500040E86FEF8FE00E94C8064FEF60E680E648
:100960000E94C80641E061E08BE20E94C80640E0B8
:1009700060EE8FE00E94C8068A988BB780648BBFB8
:1009800008950F931F93CF938C01FC0160816695AE
:100990006695669581E30E94AC06F8016081F0E2FD
:1009A0006F9FB001112482E30E94AC06F8016181BF
:1009B00085E30E94AC06F80180811F928F9382EF3D
:1009C00091E09F938F930E94B80C0F900F900F901F
:1009D0000F90F8018181882371F0C0E0F801EC0FDD
:1009E000F11D628186E38C0F0E94AC06CF5FF80197
:1009F0008181C81798F380E00E94E206CF911F9191
:100A00000F9108950F931F93CF938C018CE20E9456
:100A10009A0680FF37C081E60E949A06C82F82E6B8
:100A20000E949A06CC0FCC0FCC0F829586958770CA
:100A30008C2BF80180831F928F938FE092E09F931D
:100A40008F930E94B80C85E60E949A068F70F80179
:100A500081830F900F900F900F90882371F0C0E06A
:100A600086E68C0F0E949A06F801EC0FF11D828336
:100A7000CF5FF8018181C81798F340E061E08CE214
:100A80000E94C806CF911F910F91089585B7806885
:100A900085BF80B7806280BF0895CF92DF92EF92CA
:100AA000FF920F931F93CF93DF93CDB7DEB7A89735
:100AB0000FB6F894DEBF0FBECDBF82E080939203E5
:100AC000E09179038E2F90E08830910508F013C1F2
:100AD000FC01E85CFF4F0C94530CEEE7F3E022E9D5
:100AE00033E084E392E01382128291838083349610
:100AF0002E173F07C1F784E080937903FCC0109262
:100B000078031092770340E060E088E392E00E946F
:100B10006A0803E010E00F2EF4E5CF2EF2E0DF2E9E
:100B2000F02D7E012BE0E20EF11C1F930F93DF925C
:100B3000CF92FF92EF920E94CE0C40E063E0C7019B
:100B40000E946A080E94EB073FEF8FEF9EE0315052
:100B500080409040E1F700C00000015011090F9063
:100B60000F900F900F900F900F90F9F60E941D07B5
:100B700082E993E00E94C10482E080937903BBC0C4
:100B80000E949C09809178038F93809177038F93C3
:100B900088E492E09F938F938E01065E1F4F1F9310
:100BA0000F930E94CE0C40E061E0C8010E946A08E9
:100BB000AEE7B3E0ED91FC91119713968C911397EA
:100BC0008F9312968C918F9382811F928F93818144
:100BD0001F928F9380811F928F9387E592E09F935E
:100BE0008F930F5011091F930F930E94CE0C40E07A
:100BF00064E082E692E00E946A0840E065E0C80195
:100C00000E946A08809176038F5F809376030FB607
:100C1000F894DEBF0FBECDBF853108F46CC0809163
:100C200077039091780301969093780380937703EC
:100C30001092760360C00E94730A0E94CF085BC0C6
:100C400063E08CE993E00E94570A83E08093790384
:100C500052C06091770370917803EEE7F3E042E9C8
:100C600053E020E010E030E00F2EFCE9CF2EF3E05F
:100C7000DF2EF02DEE24E394213069F492818381FC
:100C8000B081A181128333830083F1820B2FFA2E6E
:100C9000192F382F10C0828193818617970758F437
:100CA000211109C00081F18073836283D182C082E7
:100CB000182F392F2E2D34964E175F07E9F6109214
:100CC0007803109277030E94340C84E080937903B8
:100CD00012C088E089838B8381E08A83CE010196EC
:100CE0000E94C10486E08093790305C00E94340C01
:100CF00084E080937903A8960FB6F894DEBF0FBE08
:100D0000CDBFDF91CF911F910F91FF90EF90DF90BA
:100D1000CF90089580937903089580917903089581
:100D200024E0829FC0011124FC01E258FC4F828123
:100D300093810895CF93C82F0E94140883E00E94E6
:100D40000A088C2F0E940A080E940E08C82F0E94D1
:100D500016088C2FCF910895CF93DF93D82FC62FED
:100D60000E94140882E00E940A088D2F0E940A083F
:100D70008C2F0E940A080E941608DF91CF910895D7
:100D80000E94140880EC0E940A080E941608089528
:100D90001F93CF93DF93182FD62FC42F0E941408D0
:100DA00085E00E940A08812F0E940A088D2F0E9468
:100DB0000A088C2F0E940A080E941608DF91CF9122
:100DC0001F910895CF93C82F0E94140881E090E0EE
:100DD00002C0880F991FCA95E2F780680E940A082E
:100DE0000E941608CF9108951F920F920FB60F928E
:100DF00011240F900FBE0F901F901895E091001CCA
:100E0000F0E0F096F695FE2FEE27F795E795E60FC2
:100E1000F11D80830895CF93DF93D82F8093001C1A
:100E2000C0E06C2F80E00E94FE06CF5FC038C9F79B
:100E3000D093001CDF91CF910895CF93C0E08C2F09
:100E40000E940B07CF5FC830D1F71092001CCF91E2
:100E50000895CF92DF92EF92FF920F931F93CF935B
:100E6000DF93CDB7DEB728970FB6F894DEBF0FBE7D
:100E7000CDBF062F142F682FCE0101960E948F043C
:100E80000130B1F4110F110F110FCE0101967C0149
:100E90006E0199E0C90ED11CF70181917F01612F8C
:100EA00080950E94FE061F5FCE14DF04A9F714C0D0
:100EB000110F110F110FCE0101967C016E0199E007
:100EC000C90ED11C612FF70181917F010E94FE069E
:100ED0001F5FEC14FD04B1F728960FB6F894DEBF3F
:100EE0000FBECDBFDF91CF911F910F91FF90EF907B
:100EF000DF90CF9008950F931F93CF93DF93E0E09F
:100F0000F0E181E2808310828FE7808382E2808338
:100F1000108287E08083C0E0D0E000E012E1CE01E3
:100F20000E948A04F80180832196C115F4E0DF074E
:100F3000B1F7DF91CF911F910F910895E0E0F0E1BB
:100F40008EEA808381EA80838AED808382E18083D8
:100F500088EC808380E28083108288EA80838FE33C
:100F6000808385ED808380E880838BED808380E3C0
:100F7000808381E8808380E5808389ED808381E2BE
:100F800080838DEA8083108284EA808386EA80836E
:100F90008FEA80830E941D0708950F931F93CF93BC
:100FA000DF93FC018081882389F0D62F8F010F5FAA
:100FB0001F4FC0E04C2F6D2F0E942907F80181912F
:100FC0008F01882319F0CF5FC031A1F7DF91CF9156
:100FD0001F910F910895E0E0F0E181E2808310829B
:100FE0008FE7808382E28083108287E08083E0E065
:100FF000F8E1A0E0B2E181918C93E1158CE1F80772
:10100000D1F7089587B3806B87BBBE988DB181659A
:101010008DB908958FB9779BFECF08958AEA8FB96D
:10102000779BFECF8FB10895C4980895C49A089510
:1010300082E089BF12BE8FB583648FBD8FB58F7775
:101040008FBD8EB588618EBDEBE8F0E080818C733A
:101050008083EAE8F0E080818F7E808380818860F1
:10106000808384EF91E09093870080938600EDE782
:10107000F0E08081806180830895EAE8F0E080817B
:101080008460808380818C7F80830895EAE8F0E02B
:101090008081887F808308955D9BFECF8CB980E03E
:1010A00090E008955F9BFECF8CB190E0089590BDD5
:1010B00089B988E98AB98EE880BD62E578E08CE478
:1010C00098E00E946D0C9093A00380939F0380E0B2
:1010D00090E008951F93CF93DF93EC01862F142F98
:1010E0000E940B07612FCE010E94CD07DF91CF91A7
:1010F0001F910895CF93E091A103F091A20340E0E6
:1011000060E0808191810E946A08A091A103B09162
:10111000A20350968C9150978823B9F1C1E001C089
:10112000C92F8FEF8C0F90917D03981312C0892FD8
:1011300090E00196880F991FFD01E80FF91F0190BB
:10114000F081E02D41E06C2F808191810E946A083E
:1011500010C0E82FF0E03196EE0FFF1FEA0FFB1FE3
:101160000190F081E02D40E06C2F808191810E9400
:101170006A08A091A103B091A20391E09C0F509640
:101180008C915097C81760F201C0C0E062E06C0F0C
:1011900040E086E392E00E946A08CF9108950E94A1
:1011A0001D070E947A080895E8E9F1E0F093A20390
:1011B000E093A103828193819093A4038093A3037E
:1011C0000E94CF080895843091F420917D03422F2E
:1011D00050E0E091A103F091A203808990E0019793
:1011E000481759076CF42F5F20937D0309C08330A3
:1011F00039F480917D03882319F0815080937D0319
:101200002091A1033091A20380917D03E82FF0E0AB
:101210003196EE0FFF1FE20FF31F808191819093B3
:10122000A4038093A30308950E9446050E947C04B2
:101230000E949E0787B3876087BBC29A0895CF93A9
:1012400080E00E947E04C82F81E00E947E04282F47
:10125000CC23A4F44C2F50E04F57510984E6849FCF
:10126000B001859F700D1124772314F461587F4FCE
:10127000660F672F661F770B462F13C0CF3780F49A
:101280004C2F50E04F57510934E6349FC001359F31
:10129000900D11246FE770E00E943F0C462F01C0B3
:1012A00040E022239CF430E02F57310984E6829FEE
:1012B000B001839F700D1124772314F461587F4F80
:1012C000660F672F661F770B762F12C02F3778F4C3
:1012D00030E02F57310954E6529FC001539F900DC3
:1012E00011246FE770E00E943F0C762F01C070E080
:1012F000642F80E0CF9108950E941F096E3C14F482
:1013000081E00895633314F082E008957E3C14F484
:1013100084E00895733314F083E0089580E0089525
:10132000CF9383E00E947E04C82F82E00E947E0457
:10133000982F8C2FCF910895CF93DF93CDB7DEB741
:101340002A970FB6F894DEBF0FBECDBF0E9490095A
:1013500036B326B341E0498344E04A838B839C83C0
:1013600032703D8321702E83CE0101960E94C1040C
:101370002A960FB6F894DEBF0FBECDBFDF91CF9196
:1013800008950E947C0990917B03911142C08230A4
:1013900091F118F4813009F10895833081F084309F
:1013A000E1F581E080937B0320917C03822F90E024
:1013B00009964B9794F5275F20937C03089581E06D
:1013C00080937B0380917C03282F30E029503109E2
:1013D00022F1895080937C03089581E080937B0300
:1013E00080917C03282F30E021503109B2F08150E8
:1013F00080937C03089581E080937B0320917C039C
:10140000822F90E001964B9744F42F5F20937C034A
:101410000895811102C010927B0308951F93CF930A
:10142000DF930E941D0710E0D0E0812F0E940B0780
:10143000C0E08D2F8C0F90917C0398130CC0E0912D
:101440000601F0910701E90FF11D4C2F61E0808149
:101450000E9429070BC0E0910601F0910701E80FF7
:10146000F11D4C2F60E080810E942907CF5FC930B9
:1014700001F7D75F1F5FDB31C1F6DF91CF911F917D
:10148000089510927C03B19908C00E94C1090E947E
:101490000E0A0E94EB07B19BF8CF80917C03E0918C
:1014A0000601F0910701E80FF11D808108950F9367
:1014B0001F93CF93DF93662389F08C01EC01615079
:1014C000262F30E02F5F3F4F020F131FB199FECF41
:1014D0000E94410A8993C017D107C1F7DF91CF91CC
:1014E0001F910F9108950E947C0990917A039111A8
:1014F00054C0823071F118F4813099F0089583302E
:1015000049F0843009F04DC00E94E30881E08093E7
:101510007A03089583E00E94E30881E080937A03D0
:101520000895E091A103F091A20386859785009725
:10153000C1F1F093A403E093A3039093A2038093DB
:10154000A10310927D030E94CF0881E080937A036B
:1015500008952091A1033091A20380917D03E82F8B
:10156000F0E03196EE0FFF1FE20FF31F0190F081C4
:10157000E02D3097B1F0F093A203E093A1038281B4
:1015800093819093A4038093A30310927D030E9400
:10159000CF0881E080937A030895811102C01092F0
:1015A0007A0308958F929F92AF92BF92CF92DF926B
:1015B000EF92FF920F931F93CF93DF93CDB7DEB7D8
:1015C000CB54D1090FB6F894DEBF0FBECDBFE0916A
:1015D000A103F091A203E1898E2F90E08A3091055A
:1015E00008F09DC0FC01E05CFF4F0C94530C0E947E
:1015F000CF0897C00E94CF0894C00E948D06843007
:1016000009F08FC081E00E948A068BC00E94CF083B
:1016100088C00E94CF0880E00E9490069F938F931D
:1016200081E792E09F938F935E018DE3A80EB11C3A
:10163000BF92AF920E94CE0C81E00E9490069F93D1
:101640008F9389E792E09F938F936E019EE2C90E7C
:10165000D11CDF92CF920E94CE0C82E00E949006B5
:101660009F938F9381E892E09F938F937E018FE108
:10167000E80EF11CFF92EF920E94CE0C83E00E94D4
:1016800090069F938F9389E892E09F938F938E01AA
:10169000005F1F4F1F930F930E94CE0C84E00E94A7
:1016A00090069F938F9381E992E09F938F93CE0151
:1016B00001964C019F938F930E94CE0C40E060E016
:1016C00089E992E00E946A0840E062E0C5010E9458
:1016D0006A0840E063E0C6010E946A0840E064E0F6
:1016E000C7010E946A0840E065E0C8010E946A08DC
:1016F00040E066E0C4010E946A080FB6F894DEBFBD
:101700000FBECDBF0EC00E948D06853051F00E94E5
:101710008D06863031F085E00E948A0602C00E9464
:10172000CF08C55BDF4F0FB6F894DEBF0FBECDBF4D
:10173000DF91CF911F910F91FF90EF90DF90CF90AD
:10174000BF90AF909F908F900895CF93DF93CDB7C8
:10175000DEB764970FB6F894DEBF0FBECDBF0E9410
:101760001D0740E060E085EA92E00E946A0840E0E0
:1017700061E08EEA92E00E946A0840E062E08DEB50
:1017800092E00E946A0840E063E088EC92E00E94E8
:101790006A0840E064E086ED92E00E946A0840E05A
:1017A00065E080EE92E00E946A088CEC94E001977C
:1017B000F1F700C000000E94EB070E94EB079FEFCB
:1017C0002FEF8CE2915020408040E1F700C000C034
:1017D0000E941D070E947B0789E08B878D8781E02F
:1017E0008C87CE010B960E94C1049FEF2FE781E00A
:1017F000915020408040E1F700C000C0CE0101962A
:101800000E94020589818B3051F09FEF2FE781E024
:10181000915020408040E1F700C000C0E2CF9FEF30
:101820002FE781E0915020408040E1F700C000C0E8
:1018300080EF92E09F938F930E94B80C9FEF2FEF61
:101840008DE1915020408040E1F700C000000E94EF
:101850001D070F900F9064960FB6F894DEBF0FBE71
:10186000CDBFDF91CF910895E091A103F091A20344
:10187000868597859093A2038093A103089597FB93
:10188000072E16F4009407D077FD09D00E94590C5A
:1018900007FC05D03EF4909581959F4F0895709573
:1018A00061957F4F0895EE0FFF1F0590F491E02D95
:1018B0000994AA1BBB1B51E107C0AA1FBB1FA61797
:1018C000B70710F0A61BB70B881F991F5A95A9F7E9
:1018D00080959095BC01CD0108950F931F93CF93F0
:1018E000DF93009731F46115710519F480E090E001
:1018F0003AC08B01EC016EE070E081E090E00E9464
:10190000D10EFC01892B91F380E883830115110529
:1019100071F01387028781E883838091A5039091FA
:10192000A603892B21F4F093A603E093A503209747
:10193000C9F0D187C0878381826083838091A703A8
:101940009091A803892B71F4F093A803E093A70367
:101950008091A9039091AA03892B21F4F093AA0303
:10196000E093A903CF01DF91CF911F910F910895CB
:10197000A0E0B0E0EEEBFCE00C94D510AE014B5FC4
:101980005F4FFA0161917191AF018091A70390912E
:10199000A8030E94F00CE2E00C94F110AEE0B0E07D
:1019A000E4EDFCE00C94D3100D891E8986E08C8355
:1019B0001A8309838FEF9FE79E838D83AE01475E75
:1019C0005F4F6F89788DCE0101960E94F00CEF81F8
:1019D000F885E00FF11F10822E96E4E00C94EF10D2
:1019E000ABE0B0E0E6EFFCE00C94C5106C017B01CD
:1019F0008A01FC0117821682838181FFCCC1CE014E
:101A000001963C01F6019381F70193FD859193FFC7
:101A100081917F01882309F4BAC1853239F493FD9D
:101A2000859193FF81917F01853229F4B60190E081
:101A30000E942B10E7CF912C212C312CFFE1F315C4
:101A4000D8F08B3279F038F4803279F08332A1F417
:101A5000232D20611DC08D3261F0803369F4232D68
:101A6000216016C0832D8260382EE32DE4603E2E67
:101A70002AC0F32DF8601DC037FC2DC020ED280FC3
:101A80002A3040F08E32B9F436FC81C1232D206417
:101A9000322E19C036FE06C08AE0989E200D112411
:101AA000922E11C0EAE02E9E200D1124222EF32D3D
:101AB000F0623F2E08C08C3621F4832D8068382ECA
:101AC00002C0883641F4F70193FD859193FF81911F
:101AD0007F018111B3CF982F9F7D9554933028F4C7
:101AE0000C5F1F4F9FE399830DC0833631F083371E
:101AF00071F0833509F059C021C0F80180818983D4
:101B00000E5F1F4F88248394912C530113C028012A
:101B1000F2E04F0E511CF801A080B18036FE03C0E8
:101B2000692D70E002C06FEF7FEFC5010E942010A9
:101B30004C018201F32DFF773F2E16C0280122E0D1
:101B4000420E511CF801A080B18036FE03C0692D01
:101B500070E002C06FEF7FEFC5010E940E104C01D4
:101B6000F32DF0683F2E820133FC1BC0822D90E0E4
:101B700088169906B0F4B60180E290E00E942B101E
:101B80002A94F4CFF50137FC859137FE81915F01EE
:101B9000B60190E00E942B1021102A9421E0821AB5
:101BA00091088114910471F7E8C0843611F08936E8
:101BB00041F5F80137FE07C0608171818281938110
:101BC0000C5F1F4F08C060817181072E000C880BCD
:101BD000990B0E5F1F4FF32DFF763F2E97FF09C025
:101BE00090958095709561957F4F8F4F9F4FF068CE
:101BF0003F2E2AE030E0A3010E946710882E86184D
:101C000045C0853731F4232D2F7EB22E2AE030E0F7
:101C100025C0932D997FB92E8F36C1F018F48835E1
:101C200079F0B5C0803719F0883721F0B0C0E92FBE
:101C3000E061BE2EB4FE0DC0FB2DF460BF2E09C0C6
:101C400034FE0AC0292F2660B22E06C028E030E0FC
:101C500005C020E130E002C020E132E0F801B7FE2B
:101C600007C060817181828193810C5F1F4F06C024
:101C70006081718180E090E00E5F1F4FA3010E94A0
:101C80006710882E8618FB2DFF773F2E36FE0DC07D
:101C9000232D2E7FA22E891458F434FE0BC032FC63
:101CA00009C0832D8E7EA82E05C0B82CA32C03C09E
:101CB000B82C01C0B92CA4FE0FC0FE01E80DF11D27
:101CC0008081803321F49A2D997EA92E09C0A2FE2D
:101CD00006C0B394B39404C08A2D867809F0B394F7
:101CE000A3FC11C0A0FE06C0B21488F4280C922CEC
:101CF0009B180EC0B21460F4B60180E290E00E941E
:101D00002B10B394F7CFB21418F42B1802C0982CF0
:101D1000212CA4FE10C0B60180E390E00E942B109D
:101D2000A2FE17C0A1FC03C088E790E002C088E5CE
:101D300090E0B6010CC08A2D867859F0A1FE02C051
:101D40008BE201C080E2A7FC8DE2B60190E00E9428
:101D50002B10891438F4B60180E390E00E942B1018
:101D60009A94F7CF8A94F301E80DF11D8081B601B2
:101D700090E00E942B108110F5CF222009F442CE72
:101D8000B60180E290E00E942B102A94F6CFF60173
:101D90008681978102C08FEF9FEF2B96E2E10C9432
:101DA000E1100F931F93CF93DF93869F8001879F4E
:101DB000100D969F100D1124C8010E94ED0EEC012C
:101DC000009729F0A80160E070E00E941910CE0190
:101DD000DF91CF911F910F9108950F931F93CF9390
:101DE000DF938230910510F482E090E0E091AD0342
:101DF000F091AE0320E030E0A0E0B0E0309719F1C0
:101E0000408151810281138148175907C8F0841716
:101E1000950769F4109731F012960C931297139668
:101E20001C9327C00093AD031093AE0322C021156D
:101E3000310519F04217530718F49A01BD01EF015B
:101E4000DF01F801DBCF21153105F9F0281B390B33
:101E50002430310580F48A819B816115710521F060
:101E6000FB019383828304C09093AE038093AD0300
:101E7000FE01329644C0FE01E20FF31F819391935D
:101E800022503109398328833AC02091AB03309125
:101E9000AC03232B41F420910201309103013093D4
:101EA000AC032093AB032091000130910101211577
:101EB000310541F42DB73EB7409104015091050121
:101EC000241B350BE091AB03F091AC03E217F30751
:101ED000A0F42E1B3F0B2817390778F0AC014E5F9A
:101EE0005F4F2417350748F04E0F5F1F5093AC0328
:101EF0004093AB038193919302C0E0E0F0E0CF0107
:101F0000DF91CF911F910F910895CF93DF930097A9
:101F100009F481C0FC01329713821282A091AD03B3
:101F2000B091AE03109781F420813181820F931F0D
:101F30002091AB033091AC032817390751F5F0938A
:101F4000AC03E093AB0367C0ED0120E030E0CE17B7
:101F5000DF0740F44A815B819E0141155105F1F094
:101F6000EA01F5CFD383C28340815181840F951F4D
:101F7000C817D90759F488819981840F951F029653
:101F8000918380838A819B8193838283211531058C
:101F900029F4F093AE03E093AD033DC0E901FB8368
:101FA000EA8349915991C40FD51FEC17FD0761F4DD
:101FB00080819181840F951F0296E901998388831E
:101FC000828193819B838A83E0E0F0E012968D9179
:101FD0009C911397009719F0FD01DC01F7CF8D91CB
:101FE0009C9111979D012E5F3F4F820F931F20916F
:101FF000AB033091AC032817390769F4309729F403
:102000001092AE031092AD0302C013821282B093FD
:10201000AC03A093AB03DF91CF910895FC01059031
:10202000615070400110D8F7809590958E0F9F1FDA
:102030000895DC0101C06D9341505040E0F70895D0
:10204000FC016150704001900110D8F78095909587
:102050008E0F9F1F08950F931F93CF93DF93FB0164
:10206000238121FD03C08FEF9FEF2CC022FF16C0FC
:1020700046815781248135814217530744F4A0815A
:10208000B1819D012F5F3F4F318320838C93268147
:1020900037812F5F3F4F3783268314C08B01EC01BC
:1020A000FB010084F185E02D0995892BE1F6D8012B
:1020B00016968D919C911797019617969C938E93E7
:1020C0001697CE01DF91CF911F910F910895FA01DC
:1020D000AA27283051F1203181F1E8946F936E7F67
:1020E0006E5F7F4F8F4F9F4FAF4FB1E03ED0B4E058
:1020F0003CD0670F781F891F9A1FA11D680F791F99
:102100008A1F911DA11D6A0F711D811D911DA11DA9
:1021100020D009F468943F912AE0269F11243019B9
:10212000305D3193DEF6CF010895462F4770405D54
:102130004193B3E00FD0C9F7F6CF462F4F70405D03
:102140004A3318F0495D31FD4052419302D0A9F75E
:10215000EACFB4E0A6959795879577956795BA9558
:10216000C9F700976105710508959B01AC010A2E1E
:1021700006945795479537952795BA95C9F7620FF5
:10218000731F841F951FA01D08952F923F924F9299
:102190005F926F927F928F929F92AF92BF92CF92F7
:1021A000DF92EF92FF920F931F93CF93DF93CDB700
:1021B000DEB7CA1BDB0B0FB6F894DEBF0FBECDBF78
:1021C00009942A88398848885F846E847D848C8449
:1021D0009B84AA84B984C884DF80EE80FD800C8152
:1021E0001B81AA81B981CE0FD11D0FB6F894DEBF35
:0C21F0000FBECDBFED010895F894FFCFA5
:1021FC000000AF032000FF022703000000000000D6
:10220C0000000000000086010008330300000000FD
:10221C00000000000000000062010007380300000D
:10222C0000000000000000000000620100063F03F7
:10223C00000000000000000000000000620100052A
:10224C0044030000000000000000000000009801A2
:10225C0000034E033E012C011A0100000000000097
:10226C008601030459030000000000000000000078
:10227C0000009801000263036201080100000000E5
:10228C0000000000980102016C03740186015001EA
:10229C00000000000000000003000A0A0D737461C6
:1022AC007274206F662070726F6772616D0A0D0018
:1022BC000A0D77616974696E67206F6E206E6F64AA
:1022CC006520310A0D000A0D696E697420646F6E09
:1022DC00650A0D0074696D65722030207465737425
:1022EC00200053454E44542056414C4944204D4502
:1022FC0053534147452069643A2025750A0D005611
:10230C00414C4944204D4553534147452072656328
:10231C00696576656420776974682069643A20255C
:10232C00750A0D002020200047414D452053544193
:10233C0052545320494E3A00594F55522053434F53
:10234C0052453A202575002563256325633A2025DF
:10235C007500484947484553542053434F52453A1A
:10236C00003173743A20257500326E643A2025755D
:10237C00003372643A202575003474683A20257550
:10238C00003574683A202575004849474853434F37
:10239C005245533A0057656C636F6D652100576564
:1023AC00206172652077616974696E6700666F726F
:1023BC00204E6F64652032005768696C6520776128
:1023CC006974696E67007669657720746869730053
:1023DC0062656175746966756C204C756E64650018
:1023EC0048616E647368616B6520646F6E65004153
:1023FC0042434445464748494A4B4C4D4E4F505139
:10240C0052535455565758595A5F0073656C65634F
:10241C0074206E616D6500526563616C69627261F6
:10242C0074650048617264004D656469756D0045A2
:10243C00617379004869676873636F7265004469FA
:10244C0066666963756C747900506C61792067619C
:10245C006D650053657474696E6773004D61696EC8
:06246C00206D656E750095
:00000001FF
